{
  "_format": "hh-sol-artifact-1",
  "contractName": "WillController",
  "sourceName": "contracts/Will/WillController.sol",
  "abi": [
    {
      "inputs": [
        {
          "internalType": "uint256",
          "name": "",
          "type": "uint256"
        }
      ],
      "name": "_will",
      "outputs": [
        {
          "internalType": "uint256",
          "name": "lastActionBlock",
          "type": "uint256"
        },
        {
          "internalType": "uint256",
          "name": "actionInterval",
          "type": "uint256"
        },
        {
          "internalType": "address",
          "name": "collectionAddress",
          "type": "address"
        },
        {
          "internalType": "uint256",
          "name": "collectionId",
          "type": "uint256"
        },
        {
          "internalType": "address",
          "name": "willer",
          "type": "address"
        },
        {
          "internalType": "address",
          "name": "recipient",
          "type": "address"
        },
        {
          "internalType": "uint256",
          "name": "willOrderId",
          "type": "uint256"
        },
        {
          "internalType": "enum WillController.Status",
          "name": "status",
          "type": "uint8"
        }
      ],
      "stateMutability": "view",
      "type": "function"
    },
    {
      "inputs": [
        {
          "internalType": "uint256",
          "name": "_willId",
          "type": "uint256"
        }
      ],
      "name": "cancelWIll",
      "outputs": [],
      "stateMutability": "nonpayable",
      "type": "function"
    },
    {
      "inputs": [
        {
          "internalType": "uint256",
          "name": "_willId",
          "type": "uint256"
        }
      ],
      "name": "claimWIll",
      "outputs": [],
      "stateMutability": "nonpayable",
      "type": "function"
    },
    {
      "inputs": [
        {
          "internalType": "uint256",
          "name": "_actionInterval",
          "type": "uint256"
        },
        {
          "internalType": "address",
          "name": "_collectionAddress",
          "type": "address"
        },
        {
          "internalType": "uint256",
          "name": "_collectionId",
          "type": "uint256"
        },
        {
          "internalType": "address",
          "name": "_recipient",
          "type": "address"
        }
      ],
      "name": "createWill",
      "outputs": [],
      "stateMutability": "nonpayable",
      "type": "function"
    },
    {
      "inputs": [
        {
          "internalType": "uint256",
          "name": "_willId",
          "type": "uint256"
        }
      ],
      "name": "getWill",
      "outputs": [
        {
          "components": [
            {
              "internalType": "uint256",
              "name": "lastActionBlock",
              "type": "uint256"
            },
            {
              "internalType": "uint256",
              "name": "actionInterval",
              "type": "uint256"
            },
            {
              "internalType": "address",
              "name": "collectionAddress",
              "type": "address"
            },
            {
              "internalType": "uint256",
              "name": "collectionId",
              "type": "uint256"
            },
            {
              "internalType": "address",
              "name": "willer",
              "type": "address"
            },
            {
              "internalType": "address",
              "name": "recipient",
              "type": "address"
            },
            {
              "internalType": "uint256",
              "name": "willOrderId",
              "type": "uint256"
            },
            {
              "internalType": "enum WillController.Status",
              "name": "status",
              "type": "uint8"
            }
          ],
          "internalType": "struct WillController.Will",
          "name": "",
          "type": "tuple"
        }
      ],
      "stateMutability": "view",
      "type": "function"
    },
    {
      "inputs": [],
      "name": "getWillCounter",
      "outputs": [
        {
          "internalType": "uint256",
          "name": "",
          "type": "uint256"
        }
      ],
      "stateMutability": "view",
      "type": "function"
    },
    {
      "inputs": [
        {
          "internalType": "uint256",
          "name": "_willId",
          "type": "uint256"
        }
      ],
      "name": "getWillStatus",
      "outputs": [
        {
          "internalType": "enum WillController.Status",
          "name": "",
          "type": "uint8"
        }
      ],
      "stateMutability": "view",
      "type": "function"
    },
    {
      "inputs": [
        {
          "internalType": "uint256",
          "name": "_willId",
          "type": "uint256"
        }
      ],
      "name": "getWillToRecipient",
      "outputs": [
        {
          "internalType": "address",
          "name": "",
          "type": "address"
        }
      ],
      "stateMutability": "view",
      "type": "function"
    },
    {
      "inputs": [
        {
          "internalType": "uint256",
          "name": "_willId",
          "type": "uint256"
        }
      ],
      "name": "getWillToWiller",
      "outputs": [
        {
          "internalType": "address",
          "name": "",
          "type": "address"
        }
      ],
      "stateMutability": "view",
      "type": "function"
    },
    {
      "inputs": [
        {
          "internalType": "address",
          "name": "",
          "type": "address"
        },
        {
          "internalType": "address",
          "name": "",
          "type": "address"
        },
        {
          "internalType": "uint256",
          "name": "",
          "type": "uint256"
        },
        {
          "internalType": "bytes",
          "name": "",
          "type": "bytes"
        }
      ],
      "name": "onERC721Received",
      "outputs": [
        {
          "internalType": "bytes4",
          "name": "",
          "type": "bytes4"
        }
      ],
      "stateMutability": "nonpayable",
      "type": "function"
    },
    {
      "inputs": [
        {
          "internalType": "uint256",
          "name": "_willId",
          "type": "uint256"
        }
      ],
      "name": "resetActionBlock",
      "outputs": [],
      "stateMutability": "nonpayable",
      "type": "function"
    },
    {
      "inputs": [
        {
          "internalType": "uint256",
          "name": "",
          "type": "uint256"
        }
      ],
      "name": "willToRecipient",
      "outputs": [
        {
          "internalType": "address",
          "name": "",
          "type": "address"
        }
      ],
      "stateMutability": "view",
      "type": "function"
    },
    {
      "inputs": [
        {
          "internalType": "uint256",
          "name": "",
          "type": "uint256"
        }
      ],
      "name": "willToWiller",
      "outputs": [
        {
          "internalType": "address",
          "name": "",
          "type": "address"
        }
      ],
      "stateMutability": "view",
      "type": "function"
    }
  ],
  "bytecode": "0x608060405234801561001057600080fd5b506111f0806100206000396000f3fe608060405234801561001057600080fd5b50600436106100cf5760003560e01c80637a81a2981161008c578063de3722a711610066578063de3722a7146101b3578063ede5c07e146101c6578063f2878f91146101ed578063facd71eb1461020d576100cf565b80637a81a2981461017857806391b6f0561461018b578063b53f8bd91461019e576100cf565b806309ee721c146100d4578063150b7a02146100e95780634192bbb0146101125780636db04fce14610132578063705ba180146101455780637259fac714610165575b600080fd5b6100e76100e2366004610fb6565b610220565b005b6100fc6100f7366004610ee1565b610562565b6040516101099190611086565b60405180910390f35b610125610120366004610fb6565b610572565b60405161010991906110af565b6100e7610140366004610fb6565b610644565b610158610153366004610fb6565b61092f565b6040516101099190611035565b6100e7610173366004610fce565b61094a565b610158610186366004610fb6565b610b09565b610158610199366004610fb6565b610b24565b6101a6610b3f565b6040516101099190611121565b6101586101c1366004610fb6565b610b50565b6101d96101d4366004610fb6565b610b6b565b60405161010998979695949392919061112a565b6102006101fb366004610fb6565b610bc0565b604051610109919061109b565b6100e761021b366004610fb6565b610bd8565b60008181526001602052604090206004015481906001600160a01b0316331461024857600080fd5b60008281526001602081815260408084208151610100810183528154815293810154928401929092526002808301546001600160a01b039081169285019290925260038301546060850152600483015482166080850152600583015490911660a0840152600682015460c0840152600782015460e084019160ff909116908111156102e357634e487b7160e01b600052602160045260246000fd5b600281111561030257634e487b7160e01b600052602160045260246000fd5b905250905061030f610e88565b60008260e00151600281111561033557634e487b7160e01b600052602160045260246000fd5b1461033f57600080fd5b60208201518251439161035191611180565b1161035b57600080fd5b600160e0830181905250602082810151908201526040808301516001600160a01b03908116918301919091526060808401519083015260808084015182169083015260a0808401519091169082015260c08083015190820152600260e082018190525060008481526001602081815260409283902084518155908401518183015591830151600280840180546001600160a01b039384166001600160a01b03199182161790915560608601516003860155608086015160048601805491851691831691909117905560a08601516005860180549190941691161790915560c0840151600684015560e08401516007840180548695949293919260ff1990911691849081111561047a57634e487b7160e01b600052602160045260246000fd5b021790555090505081604001516001600160a01b031663095ea7b3836080015184606001516040518363ffffffff1660e01b81526004016104bc92919061106d565b600060405180830381600087803b1580156104d657600080fd5b505af11580156104ea573d6000803e3d6000fd5b5050505081604001516001600160a01b03166342842e0e30846080015185606001516040518463ffffffff1660e01b815260040161052a93929190611049565b600060405180830381600087803b15801561054457600080fd5b505af1158015610558573d6000803e3d6000fd5b5050505050505050565b630a85bd0160e11b949350505050565b61057a610e88565b6000828152600160208181526040928390208351610100810185528154815292810154918301919091526002808201546001600160a01b039081169484019490945260038201546060840152600482015484166080840152600582015490931660a0830152600681015460c083015260078101549192909160e084019160ff9091169081111561061a57634e487b7160e01b600052602160045260246000fd5b600281111561063957634e487b7160e01b600052602160045260246000fd5b90525090505b919050565b60008181526001602052604090206005015481906001600160a01b0316331461066c57600080fd5b60008281526001602081815260408084208151610100810183528154815293810154928401929092526002808301546001600160a01b039081169285019290925260038301546060850152600483015482166080850152600583015490911660a0840152600682015460c0840152600782015460e084019160ff9091169081111561070757634e487b7160e01b600052602160045260246000fd5b600281111561072657634e487b7160e01b600052602160045260246000fd5b9052509050610733610e88565b60008260e00151600281111561075957634e487b7160e01b600052602160045260246000fd5b1461076357600080fd5b60208201518251439161077591611180565b1061077f57600080fd5b600160e08381018290526020808501518482019081526040808701516001600160a01b039081168288019081526060808a01519089019081526080808b01518416908a0190815260a0808c01518516908b0190815260c0808d0151908c01908152988b018a815260008f8152988b9052959097208a5181559551868a01559151600280870180549286166001600160a01b0319938416179055915160038701559151600486018054918516918416919091179055945160058501805491909316911617905592516006820155915160078301805486959293919260ff1990911691849081111561087f57634e487b7160e01b600052602160045260246000fd5b021790555090505081604001516001600160a01b031663095ea7b38360a0015184606001516040518363ffffffff1660e01b81526004016108c192919061106d565b600060405180830381600087803b1580156108db57600080fd5b505af11580156108ef573d6000803e3d6000fd5b5050505081604001516001600160a01b03166342842e0e308460a0015185606001516040518463ffffffff1660e01b815260040161052a93929190611049565b6002602052600090815260409020546001600160a01b031681565b610952610e88565b438152602081018590526001600160a01b03848116604080840182905260608401869052336080850181905292851660a0850152600060c0850181905260e085015251632142170760e11b815290916342842e0e916109b8919030908890600401611049565b600060405180830381600087803b1580156109d257600080fd5b505af11580156109e6573d6000803e3d6000fd5b5050505060006109f66000610e7b565b60008181526001602081815260409283902086518155908601518183015591850151600280840180546001600160a01b039384166001600160a01b03199182161790915560608801516003860155608088015160048601805491851691831691909117905560a08801516005860180549190941691161790915560c0860151600684015560e086015160078401805495965087959193909260ff19909216918490811115610ab457634e487b7160e01b600052602160045260246000fd5b0217905550505060008181526002602090815260408083208054336001600160a01b0319918216179091556003909252822080549091166001600160a01b038616179055610b0190610e7f565b505050505050565b6000908152600360205260409020546001600160a01b031690565b6003602052600090815260409020546001600160a01b031681565b6000610b4b6000610e7b565b905090565b6000908152600260205260409020546001600160a01b031690565b60016020819052600091825260409091208054918101546002820154600383015460048401546005850154600686015460079096015494956001600160a01b0394851695939492831693929091169160ff1688565b60009081526001602052604090206007015460ff1690565b60008181526001602052604090206004015481906001600160a01b03163314610c0057600080fd5b60008281526001602081815260408084208151610100810183528154815293810154928401929092526002808301546001600160a01b039081169285019290925260038301546060850152600483015482166080850152600583015490911660a0840152600682015460c0840152600782015460e084019160ff90911690811115610c9b57634e487b7160e01b600052602160045260246000fd5b6002811115610cba57634e487b7160e01b600052602160045260246000fd5b9052509050610cc7610e88565b60008260e001516002811115610ced57634e487b7160e01b600052602160045260246000fd5b14610cf757600080fd5b602082015182514391610d0991611180565b11610d1357600080fd5b438152602080830151908201526040808301516001600160a01b03908116918301919091526060808401519083015260808084015182169083015260a0808401519091169082015260c0808301519082015260e080830151908201906002811115610d8e57634e487b7160e01b600052602160045260246000fd5b90816002811115610daf57634e487b7160e01b600052602160045260246000fd5b90525060008481526001602081815260409283902084518155908401518183015591830151600280840180546001600160a01b039384166001600160a01b03199182161790915560608601516003860155608086015160048601805491851691831691909117905560a08601516005860180549190941691161790915560c0840151600684015560e08401516007840180548695949293919260ff19909116918490811115610e6e57634e487b7160e01b600052602160045260246000fd5b0217905550505050505050565b5490565b80546001019055565b6040805161010081018252600080825260208201819052918101829052606081018290526080810182905260a0810182905260c081018290529060e082015290565b80356001600160a01b038116811461063f57600080fd5b60008060008060808587031215610ef6578384fd5b610eff85610eca565b9350610f0d60208601610eca565b925060408501359150606085013567ffffffffffffffff80821115610f30578283fd5b818701915087601f830112610f43578283fd5b813581811115610f5557610f556111a4565b604051601f8201601f19908116603f01168101908382118183101715610f7d57610f7d6111a4565b816040528281528a6020848701011115610f95578586fd5b82602086016020830137918201602001949094529598949750929550505050565b600060208284031215610fc7578081fd5b5035919050565b60008060008060808587031215610fe3578384fd5b84359350610ff360208601610eca565b92506040850135915061100860608601610eca565b905092959194509250565b6003811061103157634e487b7160e01b600052602160045260246000fd5b9052565b6001600160a01b0391909116815260200190565b6001600160a01b039384168152919092166020820152604081019190915260600190565b6001600160a01b03929092168252602082015260400190565b6001600160e01b031991909116815260200190565b602081016110a98284611013565b92915050565b6000610100820190508251825260208301516020830152604083015160018060a01b038082166040850152606085015160608501528060808601511660808501528060a08601511660a0850152505060c083015160c083015260e083015161111a60e0840182611013565b5092915050565b90815260200190565b888152602081018890526001600160a01b038781166040830152606082018790528581166080830152841660a082015260c08101839052610100810161117360e0830184611013565b9998505050505050505050565b6000821982111561119f57634e487b7160e01b81526011600452602481fd5b500190565b634e487b7160e01b600052604160045260246000fdfea2646970667358221220d94c40d47cc7768023e1975f4105dc9b2c86986d7eed8aa0f229975b5955434764736f6c63430008010033",
  "linkReferences": {},
  "deployedLinkReferences": {}
}