{
  "_format": "hh-sol-artifact-1",
  "contractName": "SSV",
  "sourceName": "contracts/Tokens/SSV.sol",
  "abi": [
    {
      "inputs": [],
      "stateMutability": "nonpayable",
      "type": "constructor"
    },
    {
      "inputs": [
        {
          "internalType": "address",
          "name": "account",
          "type": "address"
        }
      ],
      "name": "balanceOf",
      "outputs": [
        {
          "internalType": "uint256",
          "name": "",
          "type": "uint256"
        }
      ],
      "stateMutability": "view",
      "type": "function"
    },
    {
      "inputs": [
        {
          "internalType": "uint256",
          "name": "amount",
          "type": "uint256"
        }
      ],
      "name": "burn",
      "outputs": [
        {
          "internalType": "uint256",
          "name": "",
          "type": "uint256"
        }
      ],
      "stateMutability": "nonpayable",
      "type": "function"
    },
    {
      "inputs": [
        {
          "internalType": "uint256",
          "name": "amount",
          "type": "uint256"
        }
      ],
      "name": "mint",
      "outputs": [
        {
          "internalType": "uint256",
          "name": "",
          "type": "uint256"
        }
      ],
      "stateMutability": "nonpayable",
      "type": "function"
    },
    {
      "inputs": [],
      "name": "name",
      "outputs": [
        {
          "internalType": "string",
          "name": "",
          "type": "string"
        }
      ],
      "stateMutability": "view",
      "type": "function"
    },
    {
      "inputs": [],
      "name": "owner",
      "outputs": [
        {
          "internalType": "address",
          "name": "",
          "type": "address"
        }
      ],
      "stateMutability": "view",
      "type": "function"
    },
    {
      "inputs": [],
      "name": "symbol",
      "outputs": [
        {
          "internalType": "string",
          "name": "",
          "type": "string"
        }
      ],
      "stateMutability": "view",
      "type": "function"
    },
    {
      "inputs": [],
      "name": "totalSupply",
      "outputs": [
        {
          "internalType": "uint256",
          "name": "",
          "type": "uint256"
        }
      ],
      "stateMutability": "view",
      "type": "function"
    },
    {
      "inputs": [
        {
          "internalType": "address",
          "name": "to",
          "type": "address"
        },
        {
          "internalType": "uint256",
          "name": "amount",
          "type": "uint256"
        }
      ],
      "name": "transfer",
      "outputs": [],
      "stateMutability": "nonpayable",
      "type": "function"
    }
  ],
  "bytecode": "0x60c0604052601060808190526f2a32b9ba1029a72aa9ab102a37b5b2b760811b60a09081526100319160009190610089565b506040805180820190915260038082526229a9ab60e91b602090920191825261005c91600191610089565b50620f424060025534801561007057600080fd5b506002543360009081526004602052604090205561015d565b82805461009590610122565b90600052602060002090601f0160209004810192826100b757600085556100fd565b82601f106100d057805160ff19168380011785556100fd565b828001600101855582156100fd579182015b828111156100fd5782518255916020019190600101906100e2565b5061010992915061010d565b5090565b5b80821115610109576000815560010161010e565b60028104600182168061013657607f821691505b6020821081141561015757634e487b7160e01b600052602260045260246000fd5b50919050565b6105ed8061016c6000396000f3fe608060405234801561001057600080fd5b50600436106100885760003560e01c80638da5cb5b1161005b5780638da5cb5b146100e657806395d89b41146100fb578063a0712d6814610103578063a9059cbb1461011657610088565b806306fdde031461008d57806318160ddd146100ab57806342966c68146100c057806370a08231146100d3575b600080fd5b61009561012b565b6040516100a291906104ce565b60405180910390f35b6100b36101b9565b6040516100a2919061052e565b6100b36100ce366004610457565b6101bf565b6100b36100e136600461040d565b610233565b6100ee61024e565b6040516100a291906104ba565b61009561025d565b6100b3610111366004610457565b61026a565b61012961012436600461042e565b6102a4565b005b6000805461013890610566565b80601f016020809104026020016040519081016040528092919081815260200182805461016490610566565b80156101b15780601f10610186576101008083540402835291602001916101b1565b820191906000526020600020905b81548152906001019060200180831161019457829003601f168201915b505050505081565b60025490565b336000908152600460205260408120548211156101f75760405162461bcd60e51b81526004016101ee90610503565b60405180910390fd5b336000908152600460205260408120805484929061021690849061054f565b90915550503360009081526004602052604090205490505b919050565b6001600160a01b031660009081526004602052604090205490565b6003546001600160a01b031681565b6001805461013890610566565b3360009081526004602052604081208054839190839061028b908490610537565b9250508190555081600260008282546102169190610537565b6103086040518060400160405280601b81526020017f53656e6465722062616c616e636520697320257320746f6b656e73000000000081525060046000336001600160a01b03166001600160a01b031681526020019081526020016000205461038c565b336000908152600460205260409020548111156103375760405162461bcd60e51b81526004016101ee90610503565b336000908152600460205260408120805483929061035690849061054f565b90915550506001600160a01b03821660009081526004602052604081208054839290610383908490610537565b90915550505050565b6103d182826040516024016103a29291906104e1565b60408051601f198184030181529190526020810180516001600160e01b03166309710a9d60e41b1790526103d5565b5050565b80516a636f6e736f6c652e6c6f67602083016000808483855afa5050505050565b80356001600160a01b038116811461022e57600080fd5b60006020828403121561041e578081fd5b610427826103f6565b9392505050565b60008060408385031215610440578081fd5b610449836103f6565b946020939093013593505050565b600060208284031215610468578081fd5b5035919050565b60008151808452815b8181101561049457602081850181015186830182015201610478565b818111156104a55782602083870101525b50601f01601f19169290920160200192915050565b6001600160a01b0391909116815260200190565b600060208252610427602083018461046f565b6000604082526104f4604083018561046f565b90508260208301529392505050565b6020808252601190820152704e6f7420656e6f75676820746f6b656e7360781b604082015260600190565b90815260200190565b6000821982111561054a5761054a6105a1565b500190565b600082821015610561576105616105a1565b500390565b60028104600182168061057a57607f821691505b6020821081141561059b57634e487b7160e01b600052602260045260246000fd5b50919050565b634e487b7160e01b600052601160045260246000fdfea2646970667358221220d6781729ef4c4514dd15d9595a91d9cb8fb30ec2e12ef9b33c3c6176d6303cbf64736f6c63430008010033",
  "linkReferences": {},
  "deployedLinkReferences": {}
}