{
  "_format": "hh-sol-artifact-1",
  "contractName": "DecipherToken",
  "sourceName": "contracts/Tokens/DecipherToken.sol",
  "abi": [
    {
      "inputs": [],
      "stateMutability": "nonpayable",
      "type": "constructor"
    },
    {
      "anonymous": false,
      "inputs": [
        {
          "indexed": true,
          "internalType": "address",
          "name": "owner",
          "type": "address"
        },
        {
          "indexed": true,
          "internalType": "address",
          "name": "spender",
          "type": "address"
        },
        {
          "indexed": false,
          "internalType": "uint256",
          "name": "value",
          "type": "uint256"
        }
      ],
      "name": "Approval",
      "type": "event"
    },
    {
      "anonymous": false,
      "inputs": [
        {
          "indexed": true,
          "internalType": "address",
          "name": "previousOwner",
          "type": "address"
        },
        {
          "indexed": true,
          "internalType": "address",
          "name": "newOwner",
          "type": "address"
        }
      ],
      "name": "OwnershipTransferred",
      "type": "event"
    },
    {
      "anonymous": false,
      "inputs": [
        {
          "indexed": true,
          "internalType": "address",
          "name": "from",
          "type": "address"
        },
        {
          "indexed": true,
          "internalType": "address",
          "name": "to",
          "type": "address"
        },
        {
          "indexed": false,
          "internalType": "uint256",
          "name": "value",
          "type": "uint256"
        }
      ],
      "name": "Transfer",
      "type": "event"
    },
    {
      "inputs": [],
      "name": "INITIAL_SUPPLY",
      "outputs": [
        {
          "internalType": "uint256",
          "name": "",
          "type": "uint256"
        }
      ],
      "stateMutability": "view",
      "type": "function"
    },
    {
      "inputs": [
        {
          "internalType": "address",
          "name": "owner",
          "type": "address"
        },
        {
          "internalType": "address",
          "name": "spender",
          "type": "address"
        }
      ],
      "name": "allowance",
      "outputs": [
        {
          "internalType": "uint256",
          "name": "",
          "type": "uint256"
        }
      ],
      "stateMutability": "view",
      "type": "function"
    },
    {
      "inputs": [
        {
          "internalType": "address",
          "name": "spender",
          "type": "address"
        },
        {
          "internalType": "uint256",
          "name": "amount",
          "type": "uint256"
        }
      ],
      "name": "approve",
      "outputs": [
        {
          "internalType": "bool",
          "name": "",
          "type": "bool"
        }
      ],
      "stateMutability": "nonpayable",
      "type": "function"
    },
    {
      "inputs": [
        {
          "internalType": "address",
          "name": "account",
          "type": "address"
        }
      ],
      "name": "balanceOf",
      "outputs": [
        {
          "internalType": "uint256",
          "name": "",
          "type": "uint256"
        }
      ],
      "stateMutability": "view",
      "type": "function"
    },
    {
      "inputs": [],
      "name": "decimals",
      "outputs": [
        {
          "internalType": "uint8",
          "name": "",
          "type": "uint8"
        }
      ],
      "stateMutability": "view",
      "type": "function"
    },
    {
      "inputs": [
        {
          "internalType": "address",
          "name": "spender",
          "type": "address"
        },
        {
          "internalType": "uint256",
          "name": "subtractedValue",
          "type": "uint256"
        }
      ],
      "name": "decreaseAllowance",
      "outputs": [
        {
          "internalType": "bool",
          "name": "",
          "type": "bool"
        }
      ],
      "stateMutability": "nonpayable",
      "type": "function"
    },
    {
      "inputs": [
        {
          "internalType": "address",
          "name": "spender",
          "type": "address"
        },
        {
          "internalType": "uint256",
          "name": "addedValue",
          "type": "uint256"
        }
      ],
      "name": "increaseAllowance",
      "outputs": [
        {
          "internalType": "bool",
          "name": "",
          "type": "bool"
        }
      ],
      "stateMutability": "nonpayable",
      "type": "function"
    },
    {
      "inputs": [
        {
          "internalType": "address",
          "name": "_to",
          "type": "address"
        },
        {
          "internalType": "uint256",
          "name": "_amount",
          "type": "uint256"
        }
      ],
      "name": "mint",
      "outputs": [],
      "stateMutability": "nonpayable",
      "type": "function"
    },
    {
      "inputs": [],
      "name": "minter",
      "outputs": [
        {
          "internalType": "address",
          "name": "",
          "type": "address"
        }
      ],
      "stateMutability": "view",
      "type": "function"
    },
    {
      "inputs": [],
      "name": "name",
      "outputs": [
        {
          "internalType": "string",
          "name": "",
          "type": "string"
        }
      ],
      "stateMutability": "view",
      "type": "function"
    },
    {
      "inputs": [],
      "name": "owner",
      "outputs": [
        {
          "internalType": "address",
          "name": "",
          "type": "address"
        }
      ],
      "stateMutability": "view",
      "type": "function"
    },
    {
      "inputs": [],
      "name": "renounceOwnership",
      "outputs": [],
      "stateMutability": "nonpayable",
      "type": "function"
    },
    {
      "inputs": [],
      "name": "symbol",
      "outputs": [
        {
          "internalType": "string",
          "name": "",
          "type": "string"
        }
      ],
      "stateMutability": "view",
      "type": "function"
    },
    {
      "inputs": [],
      "name": "totalSupply",
      "outputs": [
        {
          "internalType": "uint256",
          "name": "",
          "type": "uint256"
        }
      ],
      "stateMutability": "view",
      "type": "function"
    },
    {
      "inputs": [
        {
          "internalType": "address",
          "name": "recipient",
          "type": "address"
        },
        {
          "internalType": "uint256",
          "name": "amount",
          "type": "uint256"
        }
      ],
      "name": "transfer",
      "outputs": [
        {
          "internalType": "bool",
          "name": "",
          "type": "bool"
        }
      ],
      "stateMutability": "nonpayable",
      "type": "function"
    },
    {
      "inputs": [
        {
          "internalType": "address",
          "name": "sender",
          "type": "address"
        },
        {
          "internalType": "address",
          "name": "recipient",
          "type": "address"
        },
        {
          "internalType": "uint256",
          "name": "amount",
          "type": "uint256"
        }
      ],
      "name": "transferFrom",
      "outputs": [
        {
          "internalType": "bool",
          "name": "",
          "type": "bool"
        }
      ],
      "stateMutability": "nonpayable",
      "type": "function"
    },
    {
      "inputs": [
        {
          "internalType": "address",
          "name": "newOwner",
          "type": "address"
        }
      ],
      "name": "transferOwnership",
      "outputs": [],
      "stateMutability": "nonpayable",
      "type": "function"
    },
    {
      "inputs": [
        {
          "internalType": "address",
          "name": "newMinter",
          "type": "address"
        }
      ],
      "name": "updateMinter",
      "outputs": [],
      "stateMutability": "nonpayable",
      "type": "function"
    }
  ],
  "bytecode": "0x60806040523480156200001157600080fd5b50604080518082018252600d81526c2232b1b4b83432b92a37b5b2b760991b602080830191825283518085019094526002845261111560f21b90840152815191929162000061916003916200022f565b508051620000779060049060208401906200022f565b505050620000946200008e620000e360201b60201c565b620000e7565b620000b3620000a262000139565b69152d02c7e14af680000062000148565b620000bd620000e3565b600680546001600160a01b0319166001600160a01b039290921691909117905562000377565b3390565b600580546001600160a01b038381166001600160a01b0319831681179093556040519116919082907f8be0079c531659141344cd1fd0a4f28419497f9722a3daafe3b4186f6b6457e090600090a35050565b6005546001600160a01b031690565b6001600160a01b0382166200017a5760405162461bcd60e51b81526004016200017190620002d5565b60405180910390fd5b62000188600083836200022a565b80600260008282546200019c919062000315565b90915550506001600160a01b03821660009081526020819052604081208054839290620001cb90849062000315565b90915550506040516001600160a01b038316906000907fddf252ad1be2c89b69c2b068fc378daa952ba7f163c4a11628f55a4df523b3ef90620002109085906200030c565b60405180910390a362000226600083836200022a565b5050565b505050565b8280546200023d906200033a565b90600052602060002090601f016020900481019282620002615760008555620002ac565b82601f106200027c57805160ff1916838001178555620002ac565b82800160010185558215620002ac579182015b82811115620002ac5782518255916020019190600101906200028f565b50620002ba929150620002be565b5090565b5b80821115620002ba5760008155600101620002bf565b6020808252601f908201527f45524332303a206d696e7420746f20746865207a65726f206164647265737300604082015260600190565b90815260200190565b600082198211156200033557634e487b7160e01b81526011600452602481fd5b500190565b6002810460018216806200034f57607f821691505b602082108114156200037157634e487b7160e01b600052602260045260246000fd5b50919050565b610d8c80620003876000396000f3fe608060405234801561001057600080fd5b50600436106101165760003560e01c80634eb03f6e116100a257806395d89b411161007157806395d89b4114610211578063a457c2d714610219578063a9059cbb1461022c578063dd62ed3e1461023f578063f2fde38b1461025257610116565b80634eb03f6e146101db57806370a08231146101ee578063715018a6146102015780638da5cb5b1461020957610116565b806323b872dd116100e957806323b872dd146101835780632ff2e9dc14610196578063313ce5671461019e57806339509351146101b357806340c10f19146101c657610116565b806306fdde031461011b5780630754617214610139578063095ea7b31461014e57806318160ddd1461016e575b600080fd5b610123610265565b6040516101309190610a21565b60405180910390f35b6101416102f7565b6040516101309190610a02565b61016161015c3660046109d9565b610351565b6040516101309190610a16565b610176610373565b6040516101309190610cbf565b61016161019136600461099e565b610379565b6101766103bc565b6101a66103ca565b6040516101309190610cc8565b6101616101c13660046109d9565b6103cf565b6101d96101d43660046109d9565b610416565b005b6101d96101e936600461094b565b610431565b6101766101fc36600461094b565b610492565b6101d96104b1565b6101416104fc565b61012361050b565b6101616102273660046109d9565b61051a565b61016161023a3660046109d9565b61057b565b61017661024d36600461096c565b610598565b6101d961026036600461094b565b6105c3565b60606003805461027490610d05565b80601f01602080910402602001604051908101604052809291908181526020018280546102a090610d05565b80156102ed5780601f106102c2576101008083540402835291602001916102ed565b820191906000526020600020905b8154815290600101906020018083116102d057829003601f168201915b5050505050905090565b6000610301610634565b6001600160a01b03166103126104fc565b6001600160a01b0316146103415760405162461bcd60e51b815260040161033890610b85565b60405180910390fd5b506006546001600160a01b031690565b60008061035c610634565b9050610369818585610638565b5060019392505050565b60025490565b60006103868484846106ec565b60006103948561024d610634565b90506103b1856103a2610634565b6103ac8685610cee565b610638565b506001949350505050565b69152d02c7e14af680000081565b601290565b6000806103da610634565b6001600160a01b0380821660009081526001602090815260408083209389168352929052205490915061036990829086906103ac908790610cd6565b6000610420610373565b905061042c8383610816565b505050565b610439610634565b6001600160a01b031661044a6104fc565b6001600160a01b0316146104705760405162461bcd60e51b815260040161033890610b85565b600680546001600160a01b0319166001600160a01b0392909216919091179055565b6001600160a01b0381166000908152602081905260409020545b919050565b6104b9610634565b6001600160a01b03166104ca6104fc565b6001600160a01b0316146104f05760405162461bcd60e51b815260040161033890610b85565b6104fa60006108e2565b565b6005546001600160a01b031690565b60606004805461027490610d05565b600080610525610634565b6001600160a01b038082166000908152600160209081526040808320938916835292905220549091508381101561056e5760405162461bcd60e51b815260040161033890610c43565b6103b18286868403610638565b600061058f610588610634565b84846106ec565b50600192915050565b6001600160a01b03918216600090815260016020908152604080832093909416825291909152205490565b6105cb610634565b6001600160a01b03166105dc6104fc565b6001600160a01b0316146106025760405162461bcd60e51b815260040161033890610b85565b6001600160a01b0381166106285760405162461bcd60e51b815260040161033890610ab7565b610631816108e2565b50565b3390565b6001600160a01b03831661065e5760405162461bcd60e51b815260040161033890610bff565b6001600160a01b0382166106845760405162461bcd60e51b815260040161033890610afd565b6001600160a01b0380841660008181526001602090815260408083209487168084529490915290819020849055517f8c5be1e5ebec7d5bd14f71427d1e84f3dd0314c0f7b2291e5b200ac8c7c3b925906106df908590610cbf565b60405180910390a3505050565b6001600160a01b0383166107125760405162461bcd60e51b815260040161033890610bba565b6001600160a01b0382166107385760405162461bcd60e51b815260040161033890610a74565b61074383838361042c565b6001600160a01b0383166000908152602081905260409020548181101561077c5760405162461bcd60e51b815260040161033890610b3f565b6001600160a01b038085166000908152602081905260408082208585039055918516815290812080548492906107b3908490610cd6565b92505081905550826001600160a01b0316846001600160a01b03167fddf252ad1be2c89b69c2b068fc378daa952ba7f163c4a11628f55a4df523b3ef846040516107fd9190610cbf565b60405180910390a361081084848461042c565b50505050565b6001600160a01b03821661083c5760405162461bcd60e51b815260040161033890610c88565b6108486000838361042c565b806002600082825461085a9190610cd6565b90915550506001600160a01b03821660009081526020819052604081208054839290610887908490610cd6565b90915550506040516001600160a01b038316906000907fddf252ad1be2c89b69c2b068fc378daa952ba7f163c4a11628f55a4df523b3ef906108ca908590610cbf565b60405180910390a36108de6000838361042c565b5050565b600580546001600160a01b038381166001600160a01b0319831681179093556040519116919082907f8be0079c531659141344cd1fd0a4f28419497f9722a3daafe3b4186f6b6457e090600090a35050565b80356001600160a01b03811681146104ac57600080fd5b60006020828403121561095c578081fd5b61096582610934565b9392505050565b6000806040838503121561097e578081fd5b61098783610934565b915061099560208401610934565b90509250929050565b6000806000606084860312156109b2578081fd5b6109bb84610934565b92506109c960208501610934565b9150604084013590509250925092565b600080604083850312156109eb578182fd5b6109f483610934565b946020939093013593505050565b6001600160a01b0391909116815260200190565b901515815260200190565b6000602080835283518082850152825b81811015610a4d57858101830151858201604001528201610a31565b81811115610a5e5783604083870101525b50601f01601f1916929092016040019392505050565b60208082526023908201527f45524332303a207472616e7366657220746f20746865207a65726f206164647260408201526265737360e81b606082015260800190565b60208082526026908201527f4f776e61626c653a206e6577206f776e657220697320746865207a65726f206160408201526564647265737360d01b606082015260800190565b60208082526022908201527f45524332303a20617070726f766520746f20746865207a65726f206164647265604082015261737360f01b606082015260800190565b60208082526026908201527f45524332303a207472616e7366657220616d6f756e7420657863656564732062604082015265616c616e636560d01b606082015260800190565b6020808252818101527f4f776e61626c653a2063616c6c6572206973206e6f7420746865206f776e6572604082015260600190565b60208082526025908201527f45524332303a207472616e736665722066726f6d20746865207a65726f206164604082015264647265737360d81b606082015260800190565b60208082526024908201527f45524332303a20617070726f76652066726f6d20746865207a65726f206164646040820152637265737360e01b606082015260800190565b60208082526025908201527f45524332303a2064656372656173656420616c6c6f77616e63652062656c6f77604082015264207a65726f60d81b606082015260800190565b6020808252601f908201527f45524332303a206d696e7420746f20746865207a65726f206164647265737300604082015260600190565b90815260200190565b60ff91909116815260200190565b60008219821115610ce957610ce9610d40565b500190565b600082821015610d0057610d00610d40565b500390565b600281046001821680610d1957607f821691505b60208210811415610d3a57634e487b7160e01b600052602260045260246000fd5b50919050565b634e487b7160e01b600052601160045260246000fdfea2646970667358221220357d519ad490fa2b05792aa8c2be9f8a23ed5f40872409457af1b6cff518b66c64736f6c63430008010033",
  "linkReferences": {},
  "deployedLinkReferences": {}
}