{
  "_format": "hh-sol-artifact-1",
  "contractName": "BatchAuction",
  "sourceName": "contracts/BatchAuction/BatchAuction.sol",
  "abi": [
    {
      "anonymous": false,
      "inputs": [
        {
          "indexed": false,
          "internalType": "address",
          "name": "addr",
          "type": "address"
        },
        {
          "indexed": false,
          "internalType": "uint256",
          "name": "commitment",
          "type": "uint256"
        }
      ],
      "name": "AddedCommitment",
      "type": "event"
    },
    {
      "anonymous": false,
      "inputs": [],
      "name": "AuctionCancelled",
      "type": "event"
    },
    {
      "anonymous": false,
      "inputs": [],
      "name": "AuctionFinalized",
      "type": "event"
    },
    {
      "anonymous": false,
      "inputs": [
        {
          "indexed": false,
          "internalType": "uint256",
          "name": "minimumCommitmentAmount",
          "type": "uint256"
        }
      ],
      "name": "AuctionPriceUpdated",
      "type": "event"
    },
    {
      "anonymous": false,
      "inputs": [
        {
          "indexed": false,
          "internalType": "uint256",
          "name": "startTime",
          "type": "uint256"
        },
        {
          "indexed": false,
          "internalType": "uint256",
          "name": "endTime",
          "type": "uint256"
        }
      ],
      "name": "AuctionTimeUpdated",
      "type": "event"
    },
    {
      "anonymous": false,
      "inputs": [
        {
          "indexed": false,
          "internalType": "address",
          "name": "wallet",
          "type": "address"
        }
      ],
      "name": "AuctionWalletUpdated",
      "type": "event"
    },
    {
      "anonymous": false,
      "inputs": [
        {
          "indexed": true,
          "internalType": "address",
          "name": "previousOwner",
          "type": "address"
        },
        {
          "indexed": true,
          "internalType": "address",
          "name": "newOwner",
          "type": "address"
        }
      ],
      "name": "OwnershipTransferred",
      "type": "event"
    },
    {
      "inputs": [],
      "name": "auctionEnded",
      "outputs": [
        {
          "internalType": "bool",
          "name": "",
          "type": "bool"
        }
      ],
      "stateMutability": "view",
      "type": "function"
    },
    {
      "inputs": [],
      "name": "auctionSuccessful",
      "outputs": [
        {
          "internalType": "bool",
          "name": "",
          "type": "bool"
        }
      ],
      "stateMutability": "view",
      "type": "function"
    },
    {
      "inputs": [],
      "name": "auctionToken",
      "outputs": [
        {
          "internalType": "address",
          "name": "",
          "type": "address"
        }
      ],
      "stateMutability": "view",
      "type": "function"
    },
    {
      "inputs": [],
      "name": "cancelAuction",
      "outputs": [],
      "stateMutability": "nonpayable",
      "type": "function"
    },
    {
      "inputs": [
        {
          "internalType": "address",
          "name": "",
          "type": "address"
        }
      ],
      "name": "claimed",
      "outputs": [
        {
          "internalType": "uint256",
          "name": "",
          "type": "uint256"
        }
      ],
      "stateMutability": "view",
      "type": "function"
    },
    {
      "inputs": [
        {
          "internalType": "address payable",
          "name": "_beneficiary",
          "type": "address"
        },
        {
          "internalType": "bool",
          "name": "readAndAgreedToMarketParticipationAgreement",
          "type": "bool"
        }
      ],
      "name": "commitEth",
      "outputs": [],
      "stateMutability": "payable",
      "type": "function"
    },
    {
      "inputs": [
        {
          "internalType": "address",
          "name": "",
          "type": "address"
        }
      ],
      "name": "commitments",
      "outputs": [
        {
          "internalType": "uint256",
          "name": "",
          "type": "uint256"
        }
      ],
      "stateMutability": "view",
      "type": "function"
    },
    {
      "inputs": [],
      "name": "finalize",
      "outputs": [],
      "stateMutability": "nonpayable",
      "type": "function"
    },
    {
      "inputs": [],
      "name": "finalizeTimeExpired",
      "outputs": [
        {
          "internalType": "bool",
          "name": "",
          "type": "bool"
        }
      ],
      "stateMutability": "view",
      "type": "function"
    },
    {
      "inputs": [],
      "name": "finalized",
      "outputs": [
        {
          "internalType": "bool",
          "name": "",
          "type": "bool"
        }
      ],
      "stateMutability": "view",
      "type": "function"
    },
    {
      "inputs": [
        {
          "internalType": "address",
          "name": "_funder",
          "type": "address"
        },
        {
          "internalType": "address",
          "name": "_token",
          "type": "address"
        },
        {
          "internalType": "uint256",
          "name": "_totalTokens",
          "type": "uint256"
        },
        {
          "internalType": "uint256",
          "name": "_startTime",
          "type": "uint256"
        },
        {
          "internalType": "uint256",
          "name": "_endTime",
          "type": "uint256"
        },
        {
          "internalType": "address",
          "name": "_paymentCurrency",
          "type": "address"
        },
        {
          "internalType": "uint256",
          "name": "_minimumCommitmentAmount",
          "type": "uint256"
        },
        {
          "internalType": "uint256",
          "name": "_maximumCommitmentAmount",
          "type": "uint256"
        },
        {
          "internalType": "address",
          "name": "_admin",
          "type": "address"
        },
        {
          "internalType": "address payable",
          "name": "_wallet",
          "type": "address"
        }
      ],
      "name": "initAuction",
      "outputs": [],
      "stateMutability": "nonpayable",
      "type": "function"
    },
    {
      "inputs": [],
      "name": "marketInfo",
      "outputs": [
        {
          "internalType": "uint256",
          "name": "startTime",
          "type": "uint256"
        },
        {
          "internalType": "uint256",
          "name": "endTime",
          "type": "uint256"
        },
        {
          "internalType": "uint256",
          "name": "totalTokens",
          "type": "uint256"
        }
      ],
      "stateMutability": "view",
      "type": "function"
    },
    {
      "inputs": [],
      "name": "marketParticipationAgreement",
      "outputs": [
        {
          "internalType": "string",
          "name": "",
          "type": "string"
        }
      ],
      "stateMutability": "pure",
      "type": "function"
    },
    {
      "inputs": [],
      "name": "marketStatus",
      "outputs": [
        {
          "internalType": "uint256",
          "name": "commitmentsTotal",
          "type": "uint256"
        },
        {
          "internalType": "uint256",
          "name": "minimumCommitmentAmount",
          "type": "uint256"
        },
        {
          "internalType": "uint256",
          "name": "maximumCommitmentAmount",
          "type": "uint256"
        },
        {
          "internalType": "bool",
          "name": "finalized",
          "type": "bool"
        },
        {
          "internalType": "bool",
          "name": "usePointList",
          "type": "bool"
        }
      ],
      "stateMutability": "view",
      "type": "function"
    },
    {
      "inputs": [],
      "name": "owner",
      "outputs": [
        {
          "internalType": "address",
          "name": "",
          "type": "address"
        }
      ],
      "stateMutability": "view",
      "type": "function"
    },
    {
      "inputs": [],
      "name": "paymentCurrency",
      "outputs": [
        {
          "internalType": "address",
          "name": "",
          "type": "address"
        }
      ],
      "stateMutability": "view",
      "type": "function"
    },
    {
      "inputs": [],
      "name": "pointList",
      "outputs": [
        {
          "internalType": "address",
          "name": "",
          "type": "address"
        }
      ],
      "stateMutability": "view",
      "type": "function"
    },
    {
      "inputs": [],
      "name": "renounceOwnership",
      "outputs": [],
      "stateMutability": "nonpayable",
      "type": "function"
    },
    {
      "inputs": [
        {
          "internalType": "uint256",
          "name": "_minimumCommitmentAmount",
          "type": "uint256"
        }
      ],
      "name": "setAuctionPrice",
      "outputs": [],
      "stateMutability": "nonpayable",
      "type": "function"
    },
    {
      "inputs": [
        {
          "internalType": "uint256",
          "name": "_startTime",
          "type": "uint256"
        },
        {
          "internalType": "uint256",
          "name": "_endTime",
          "type": "uint256"
        }
      ],
      "name": "setAuctionTime",
      "outputs": [],
      "stateMutability": "nonpayable",
      "type": "function"
    },
    {
      "inputs": [
        {
          "internalType": "address payable",
          "name": "_wallet",
          "type": "address"
        }
      ],
      "name": "setAuctionWallet",
      "outputs": [],
      "stateMutability": "nonpayable",
      "type": "function"
    },
    {
      "inputs": [],
      "name": "tokenPrice",
      "outputs": [
        {
          "internalType": "uint256",
          "name": "",
          "type": "uint256"
        }
      ],
      "stateMutability": "view",
      "type": "function"
    },
    {
      "inputs": [
        {
          "internalType": "address",
          "name": "_user",
          "type": "address"
        }
      ],
      "name": "tokensClaimable",
      "outputs": [
        {
          "internalType": "uint256",
          "name": "claimerCommitment",
          "type": "uint256"
        }
      ],
      "stateMutability": "view",
      "type": "function"
    },
    {
      "inputs": [
        {
          "internalType": "address",
          "name": "newOwner",
          "type": "address"
        }
      ],
      "name": "transferOwnership",
      "outputs": [],
      "stateMutability": "nonpayable",
      "type": "function"
    },
    {
      "inputs": [],
      "name": "wallet",
      "outputs": [
        {
          "internalType": "address payable",
          "name": "",
          "type": "address"
        }
      ],
      "stateMutability": "view",
      "type": "function"
    },
    {
      "inputs": [
        {
          "internalType": "address payable",
          "name": "beneficiary",
          "type": "address"
        }
      ],
      "name": "withdrawTokens",
      "outputs": [],
      "stateMutability": "nonpayable",
      "type": "function"
    },
    {
      "stateMutability": "payable",
      "type": "receive"
    }
  ],
  "bytecode": "0x608060405234801561001057600080fd5b50600160005561002661002161002b565b61002f565b610081565b3390565b600180546001600160a01b038381166001600160a01b0319831681179093556040519116919082907f8be0079c531659141344cd1fd0a4f28419497f9722a3daafe3b4186f6b6457e090600090a35050565b611db4806100906000396000f3fe6080604052600436106101855760003560e01c80637ff9b596116100d1578063b3f05b971161008a578063e8fcf72311610064578063e8fcf723146103ef578063f04899d31461040f578063f18a884214610424578063f2fde38b1461044457610194565b8063b3f05b9714610394578063c884ef83146103a9578063e0e081d7146103c957610194565b80637ff9b5961461032057806386433374146101c65780638da5cb5b146103355780638fa8b7901461034a57806399fdb3201461035f5780639a87222c1461037457610194565b806349df728c1161013e578063521eb27311610118578063521eb273146102b45780636ae260c1146102c9578063715018a6146102e957806374cf9fc5146102fe57610194565b806349df728c146102525780634bb278f3146102725780634dc80e151461028757610194565b8063031bee001461019957806317026455146101c657806329762960146101e857806336d0054b146101fb5780633b33fe73146102105780633d15cc6d1461023057610194565b3661019457610192610464565b005b600080fd5b3480156101a557600080fd5b506101ae610485565b6040516101bd93929190611b3f565b60405180910390f35b3480156101d257600080fd5b506101db610491565b6040516101bd9190611444565b6101926101f63660046112a9565b610499565b34801561020757600080fd5b506101db6104fd565b34801561021c57600080fd5b5061019261022b36600461139f565b61051a565b34801561023c57600080fd5b506102456105b9565b6040516101bd91906113f3565b34801561025e57600080fd5b5061019261026d36600461128d565b6105c8565b34801561027e57600080fd5b50610192610737565b34801561029357600080fd5b506102a76102a236600461128d565b6108d0565b6040516101bd9190611b28565b3480156102c057600080fd5b506102456109d7565b3480156102d557600080fd5b506101926102e43660046113cf565b6109e6565b3480156102f557600080fd5b50610192610b14565b34801561030a57600080fd5b50610313610b5f565b6040516101bd919061144f565b34801561032c57600080fd5b506102a7610b82565b34801561034157600080fd5b50610245610ba7565b34801561035657600080fd5b50610192610bb6565b34801561036b57600080fd5b50610245610cc5565b34801561038057600080fd5b5061019261038f36600461128d565b610cd4565b3480156103a057600080fd5b506101db610d84565b3480156103b557600080fd5b506102a76103c436600461128d565b610d8d565b3480156103d557600080fd5b506103de610d9f565b6040516101bd959493929190611b55565b3480156103fb57600080fd5b506102a761040a36600461128d565b610dba565b34801561041b57600080fd5b50610245610dcc565b34801561043057600080fd5b5061019261043f3660046112e1565b610ddb565b34801561045057600080fd5b5061019261045f36600461128d565b610ef1565b60405162461bcd60e51b815260040161047c9061159a565b60405180910390fd5b60025460035460045483565b600354421190565b600a546001600160a01b0316156104c25760405162461bcd60e51b815260040161047c9061190e565b600034116104e25760405162461bcd60e51b815260040161047c9061199f565b806104ef576104ef610464565b6104f98234610f62565b5050565b60065460055460009111801590610515575060055415155b905090565b610522611051565b6001600160a01b0316610533610ba7565b6001600160a01b0316146105595760405162461bcd60e51b815260040161047c9061181a565b600554156105795760405162461bcd60e51b815260040161047c906118bd565b60068190556040517f1fd3f6b4312b53d1521fb9dab5af66131ff5b6141870420ded20e5ffb42f6cf2906105ae908390611b28565b60405180910390a150565b600a546001600160a01b031681565b600260005414156105eb5760405162461bcd60e51b815260040161047c90611abc565b60026000556105f86104fd565b156106ac5760085460ff1661061f5760405162461bcd60e51b815260040161047c90611886565b600061062a826108d0565b116106475760405162461bcd60e51b815260040161047c90611af3565b610672610653826108d0565b6001600160a01b0383166000908152600e602052604090205490611055565b6001600160a01b038083166000908152600e60205260409020919091556009546106a7911630836106a2816108d0565b611068565b61072f565b60035442116106cd5760405162461bcd60e51b815260040161047c9061177c565b6001600160a01b0381166000908152600d6020526040902054806107035760405162461bcd60e51b815260040161047c906116f2565b6001600160a01b038083166000908152600d6020526040812055600a5461072d9116308484611068565b505b506001600055565b6002600054141561075a5760405162461bcd60e51b815260040161047c90611abc565b6002600055610767611051565b6001600160a01b0316610778610ba7565b6001600160a01b03161461079e5760405162461bcd60e51b815260040161047c9061181a565b600c546001600160a01b03163314806107ba57506107ba610491565b6107d65760405162461bcd60e51b815260040161047c906119e8565b60085460ff16156107f95760405162461bcd60e51b815260040161047c90611509565b600354421161081a5760405162461bcd60e51b815260040161047c9061177c565b6108226104fd565b1561084f57600a54600c5460055461084a926001600160a01b03908116923092911690611068565b610893565b60035442116108705760405162461bcd60e51b815260040161047c9061177c565b600954600c54600454610893926001600160a01b03908116923092911690611068565b6008805460ff191660011790556040517f32bebcfd2d04dbae321298091d96d2cb1d07279f59718cd83bd98245b8b82b5a90600090a16001600055565b6001600160a01b0381166000908152600d60205260408120546108f5575060006109d2565b6009546040516370a0823160e01b81526000916001600160a01b0316906370a08231906109269030906004016113f3565b60206040518083038186803b15801561093e57600080fd5b505afa158015610952573d6000803e3d6000fd5b505050506040513d601f19601f8201168201806040525081019061097691906113b7565b6001600160a01b0384166000908152600d602052604090205490915061099b906111e2565b6001600160a01b0384166000908152600e60205260409020549092506109c2908390611217565b9150808211156109d0578091505b505b919050565b600c546001600160a01b031681565b6109ee611051565b6001600160a01b03166109ff610ba7565b6001600160a01b031614610a255760405162461bcd60e51b815260040161047c9061181a565b6402540be4008210610a495760405162461bcd60e51b815260040161047c906114a2565b6402540be4008110610a6d5760405162461bcd60e51b815260040161047c906114a2565b42821015610a8d5760405162461bcd60e51b815260040161047c90611a6d565b818111610aac5760405162461bcd60e51b815260040161047c9061169d565b60055415610acc5760405162461bcd60e51b815260040161047c906118bd565b600282905560038190556040517f5725d1e4352d6944889e54837ffaefde55cdc0b55796b831365d61cd4c87fdb890610b089084908490611b31565b60405180910390a15050565b610b1c611051565b6001600160a01b0316610b2d610ba7565b6001600160a01b031614610b535760405162461bcd60e51b815260040161047c9061181a565b610b5d6000611223565b565b606060405180610180016040528061015b8152602001611c2461015b9139905090565b60045460055460009161051591610ba190670de0b6b3a7640000611275565b90611281565b6001546001600160a01b031690565b60026000541415610bd95760405162461bcd60e51b815260040161047c90611abc565b6002600055610be6611051565b6001600160a01b0316610bf7610ba7565b6001600160a01b031614610c1d5760405162461bcd60e51b815260040161047c9061181a565b60085460059060ff1615610c435760405162461bcd60e51b815260040161047c90611666565b805415610c625760405162461bcd60e51b815260040161047c9061184f565b600954600c54600454610c85926001600160a01b03908116923092911690611068565b60038101805460ff191660011790556040517fa5fb31e47bd1eca58bf14a3312d5e6aeafdc4ee787c8ed348c15c2b092324d9390600090a1506001600055565b6009546001600160a01b031681565b610cdc611051565b6001600160a01b0316610ced610ba7565b6001600160a01b031614610d135760405162461bcd60e51b815260040161047c9061181a565b6001600160a01b038116610d395760405162461bcd60e51b815260040161047c90611957565b600c80546001600160a01b0319166001600160a01b0383161790556040517f34ae2bad9265f0212d4cf341708b8250949164bb54f9d0e4f442024f83bb2f90906105ae9083906113f3565b60085460ff1690565b600e6020526000908152604090205481565b60055460065460075460085460ff8082169161010090041685565b600d6020526000908152604090205481565b600b546001600160a01b031681565b6402540be4008710610dff5760405162461bcd60e51b815260040161047c906114a2565b6402540be4008610610e235760405162461bcd60e51b815260040161047c906114a2565b42871015610e435760405162461bcd60e51b815260040161047c90611a6d565b868611610e625760405162461bcd60e51b815260040161047c90611612565b60008811610e825760405162461bcd60e51b815260040161047c906117c6565b60068490556007839055600287905560038690556004889055600980546001600160a01b03808c166001600160a01b03199283161792839055600a8054898316908416179055600c8054858316931692909217909155610ee591168b308b611068565b50505050505050505050565b610ef9611051565b6001600160a01b0316610f0a610ba7565b6001600160a01b031614610f305760405162461bcd60e51b815260040161047c9061181a565b6001600160a01b038116610f565760405162461bcd60e51b815260040161047c90611554565b610f5f81611223565b50565b6002544210801590610f7657506003544211155b610f925760405162461bcd60e51b815260040161047c90611a2a565b600754600554610fa29083611055565b1115610fc05760405162461bcd60e51b815260040161047c90611727565b6001600160a01b0382166000908152600d6020526040812054610fe4908390611b7c565b6001600160a01b0384166000908152600d6020526040902081905560055490915061100f9083611055565b6005556040517f077511a636ba1f10551cc7b89c13ff66a6ac9344e8a917527817a9690b15af7a90611044908590859061142b565b60405180910390a1505050565b3390565b60006110618284611b7c565b9392505050565b6001600160a01b0384166110d757816001600160a01b03168160405161108d906113f0565b60006040518083038185875af1925050503d80600081146110ca576040519150601f19603f3d011682016040523d82523d6000602084013e6110cf565b606091505b5050506111dc565b60405163095ea7b360e01b81526001600160a01b0385169063095ea7b390611105908590859060040161142b565b602060405180830381600087803b15801561111f57600080fd5b505af1158015611133573d6000803e3d6000fd5b505050506040513d601f19601f820116820180604052508101906111579190611383565b506040516323b872dd60e01b81526001600160a01b038516906323b872dd9061118890869086908690600401611407565b602060405180830381600087803b1580156111a257600080fd5b505af11580156111b6573d6000803e3d6000fd5b505050506040513d601f19601f820116820180604052508101906111da9190611383565b505b50505050565b6005546000906111f4575060006109d2565b6112116111ff610b82565b610ba184670de0b6b3a7640000611275565b92915050565b60006110618284611bd3565b600180546001600160a01b038381166001600160a01b0319831681179093556040519116919082907f8be0079c531659141344cd1fd0a4f28419497f9722a3daafe3b4186f6b6457e090600090a35050565b60006110618284611bb4565b60006110618284611b94565b60006020828403121561129e578081fd5b813561106181611c00565b600080604083850312156112bb578081fd5b82356112c681611c00565b915060208301356112d681611c15565b809150509250929050565b6000806000806000806000806000806101408b8d031215611300578586fd5b8a3561130b81611c00565b995060208b013561131b81611c00565b985060408b0135975060608b0135965060808b0135955060a08b013561134081611c00565b945060c08b0135935060e08b013592506101008b013561135f81611c00565b91506101208b013561137081611c00565b809150509295989b9194979a5092959850565b600060208284031215611394578081fd5b815161106181611c15565b6000602082840312156113b0578081fd5b5035919050565b6000602082840312156113c8578081fd5b5051919050565b600080604083850312156113e1578182fd5b50508035926020909101359150565b90565b6001600160a01b0391909116815260200190565b6001600160a01b039384168152919092166020820152604081019190915260600190565b6001600160a01b03929092168252602082015260400190565b901515815260200190565b6000602080835283518082850152825b8181101561147b5785810183015185820160400152820161145f565b8181111561148c5783604083870101525b50601f01601f1916929092016040019392505050565b60208082526041908201527f426174636841756374696f6e3a20656e74657220616e20756e69782074696d6560408201527f7374616d7020696e207365636f6e64732c206e6f74206d696c697365636f6e646060820152607360f81b608082015260a00190565b6020808252602b908201527f426174636841756374696f6e3a2041756374696f6e2068617320616c7265616460408201526a1e48199a5b985b1a5e995960aa1b606082015260800190565b60208082526026908201527f4f776e61626c653a206e6577206f776e657220697320746865207a65726f206160408201526564647265737360d01b606082015260800190565b60208082526052908201527f4e6f2061677265656d656e742070726f76696465642c20706c6561736520726560408201527f766965772074686520736d61727420636f6e7472616374206265666f726520696060820152711b9d195c9858dd1a5b99c81dda5d1a081a5d60721b608082015260a00190565b60208082526034908201527f426174636841756374696f6e3a20656e642074696d65206d757374206265206f6040820152736c646572207468616e2073746172742074696d6560601b606082015260800190565b6020808252601c908201527f43726f776473616c653a20616c72656164792066696e616c697a656400000000604082015260600190565b60208082526035908201527f426174636841756374696f6e3a20656e642074696d65206d757374206265206f6040820152746c646572207468616e20737461727420707269636560581b606082015260800190565b6020808252818101527f426174636841756374696f6e3a204e6f2066756e647320636f6d6d6974746564604082015260600190565b60208082526035908201527f426174636841756374696f6e3a20746f74616c20636f6d6d69746d656e7420696040820152747320686967686572207468616e206d6178696d756d60581b606082015260800190565b6020808252602a908201527f426174636841756374696f6e3a2041756374696f6e20686173206e6f742066696040820152691b9a5cda1959081e595d60b21b606082015260800190565b60208082526034908201527f426174636841756374696f6e3a20746f74616c20746f6b656e73206d7573742060408201527362652067726561746572207468616e207a65726f60601b606082015260800190565b6020808252818101527f4f776e61626c653a2063616c6c6572206973206e6f7420746865206f776e6572604082015260600190565b6020808252601f908201527f43726f776473616c653a2046756e647320616c72656164792072616973656400604082015260600190565b6020808252601b908201527f426174636841756374696f6e3a206e6f742066696e616c697a65640000000000604082015260600190565b60208082526031908201527f426174636841756374696f6e3a2061756374696f6e2063616e6e6f74206861766040820152701948185b1c9958591e481cdd185c9d1959607a1b606082015260800190565b60208082526029908201527f426174636841756374696f6e3a207061796d656e742063757272656e637920696040820152680e640dcdee8408aa8960bb1b606082015260800190565b60208082526028908201527f426174636841756374696f6e3a2077616c6c657420697320746865207a65726f604082015267206164647265737360c01b606082015260800190565b60208082526029908201527f426174636841756374696f6e3a2056616c7565206d757374206265206869676860408201526806572207468616e20360bc1b606082015260800190565b60208082526022908201527f426174636841756374696f6e3a2053656e646572206d7573742062652061646d60408201526134b760f11b606082015260800190565b60208082526023908201527f426174636841756374696f6e3a206f7574736964652061756374696f6e20686f60408201526275727360e81b606082015260800190565b6020808252602f908201527f426174636841756374696f6e3a2073746172742074696d65206973206265666f60408201526e72652063757272656e742074696d6560881b606082015260800190565b6020808252601f908201527f5265656e7472616e637947756172643a207265656e7472616e742063616c6c00604082015260600190565b6020808252818101527f426174636841756374696f6e3a204e6f20746f6b656e7320746f20636c61696d604082015260600190565b90815260200190565b918252602082015260400190565b9283526020830191909152604082015260600190565b94855260208501939093526040840191909152151560608301521515608082015260a00190565b60008219821115611b8f57611b8f611bea565b500190565b600082611baf57634e487b7160e01b81526012600452602481fd5b500490565b6000816000190483118215151615611bce57611bce611bea565b500290565b600082821015611be557611be5611bea565b500390565b634e487b7160e01b600052601160045260246000fd5b6001600160a01b0381168114610f5f57600080fd5b8015158114610f5f57600080fdfe4920756e6465727374616e642074686174204920616d20696e746572616374696e672077697468206120736d61727420636f6e74726163742e204920756e6465727374616e64207468617420746f6b656e7320636f6d6d6974656420617265207375626a65637420746f2074686520746f6b656e2069737375657220616e64206c6f63616c206c617773207768657265206170706c696361626c652e204920686176652072657669657765642074686520636f6465206f66207468697320736d61727420636f6e747261637420616e6420756e6465727374616e642069742066756c6c792e204920616772656520746f206e6f7420686f6c6420646576656c6f70657273206f72206f746865722070656f706c65206173736f6369617465642077697468207468652070726f6a656374206c6961626c6520666f7220616e79206c6f73736573206f72206d6973756e6465727374616e64696e6773a2646970667358221220c09ebd28ab6351c54422b9bb57acd5e1dd55d525fb6dd7fd10eda73dd06f7c6a64736f6c63430008010033",
  "linkReferences": {},
  "deployedLinkReferences": {}
}