{
  "_format": "hh-sol-artifact-1",
  "contractName": "DutchAuction",
  "sourceName": "contracts/TokenLaunch/DutchAuction.sol",
  "abi": [
    {
      "anonymous": false,
      "inputs": [
        {
          "indexed": true,
          "internalType": "address",
          "name": "previousOwner",
          "type": "address"
        },
        {
          "indexed": true,
          "internalType": "address",
          "name": "newOwner",
          "type": "address"
        }
      ],
      "name": "OwnershipTransferred",
      "type": "event"
    },
    {
      "inputs": [],
      "name": "auctionEnded",
      "outputs": [
        {
          "internalType": "bool",
          "name": "",
          "type": "bool"
        }
      ],
      "stateMutability": "view",
      "type": "function"
    },
    {
      "inputs": [],
      "name": "auctionSuccessful",
      "outputs": [
        {
          "internalType": "bool",
          "name": "",
          "type": "bool"
        }
      ],
      "stateMutability": "view",
      "type": "function"
    },
    {
      "inputs": [],
      "name": "auctionToken",
      "outputs": [
        {
          "internalType": "address",
          "name": "",
          "type": "address"
        }
      ],
      "stateMutability": "view",
      "type": "function"
    },
    {
      "inputs": [
        {
          "internalType": "uint256",
          "name": "_commitment",
          "type": "uint256"
        }
      ],
      "name": "calculateCommitment",
      "outputs": [
        {
          "internalType": "uint256",
          "name": "committed",
          "type": "uint256"
        }
      ],
      "stateMutability": "view",
      "type": "function"
    },
    {
      "inputs": [],
      "name": "cancelAuction",
      "outputs": [],
      "stateMutability": "nonpayable",
      "type": "function"
    },
    {
      "inputs": [
        {
          "internalType": "address",
          "name": "",
          "type": "address"
        }
      ],
      "name": "claimed",
      "outputs": [
        {
          "internalType": "uint256",
          "name": "",
          "type": "uint256"
        }
      ],
      "stateMutability": "view",
      "type": "function"
    },
    {
      "inputs": [],
      "name": "clearingPrice",
      "outputs": [
        {
          "internalType": "uint256",
          "name": "",
          "type": "uint256"
        }
      ],
      "stateMutability": "view",
      "type": "function"
    },
    {
      "inputs": [
        {
          "internalType": "address payable",
          "name": "_beneficiary",
          "type": "address"
        },
        {
          "internalType": "bool",
          "name": "readAndAgreedToMarketParticipationAgreement",
          "type": "bool"
        }
      ],
      "name": "commitEth",
      "outputs": [],
      "stateMutability": "payable",
      "type": "function"
    },
    {
      "inputs": [
        {
          "internalType": "uint256",
          "name": "_amount",
          "type": "uint256"
        },
        {
          "internalType": "bool",
          "name": "readAndAgreedToMarketParticipationAgreement",
          "type": "bool"
        }
      ],
      "name": "commitTokens",
      "outputs": [],
      "stateMutability": "nonpayable",
      "type": "function"
    },
    {
      "inputs": [
        {
          "internalType": "address",
          "name": "_from",
          "type": "address"
        },
        {
          "internalType": "uint256",
          "name": "_amount",
          "type": "uint256"
        },
        {
          "internalType": "bool",
          "name": "readAndAgreedToMarketParticipationAgreement",
          "type": "bool"
        }
      ],
      "name": "commitTokensFrom",
      "outputs": [],
      "stateMutability": "nonpayable",
      "type": "function"
    },
    {
      "inputs": [
        {
          "internalType": "address",
          "name": "",
          "type": "address"
        }
      ],
      "name": "commitments",
      "outputs": [
        {
          "internalType": "uint256",
          "name": "",
          "type": "uint256"
        }
      ],
      "stateMutability": "view",
      "type": "function"
    },
    {
      "inputs": [],
      "name": "finalize",
      "outputs": [],
      "stateMutability": "nonpayable",
      "type": "function"
    },
    {
      "inputs": [],
      "name": "finalizeTimeExpired",
      "outputs": [
        {
          "internalType": "bool",
          "name": "",
          "type": "bool"
        }
      ],
      "stateMutability": "view",
      "type": "function"
    },
    {
      "inputs": [],
      "name": "finalized",
      "outputs": [
        {
          "internalType": "bool",
          "name": "",
          "type": "bool"
        }
      ],
      "stateMutability": "view",
      "type": "function"
    },
    {
      "inputs": [
        {
          "internalType": "address",
          "name": "_funder",
          "type": "address"
        },
        {
          "internalType": "address",
          "name": "_token",
          "type": "address"
        },
        {
          "internalType": "uint256",
          "name": "_totalTokens",
          "type": "uint256"
        },
        {
          "internalType": "uint256",
          "name": "_startTime",
          "type": "uint256"
        },
        {
          "internalType": "uint256",
          "name": "_endTime",
          "type": "uint256"
        },
        {
          "internalType": "address",
          "name": "_paymentCurrency",
          "type": "address"
        },
        {
          "internalType": "uint256",
          "name": "_startPrice",
          "type": "uint256"
        },
        {
          "internalType": "uint256",
          "name": "_minimumPrice",
          "type": "uint256"
        },
        {
          "internalType": "address payable",
          "name": "_wallet",
          "type": "address"
        }
      ],
      "name": "initAuction",
      "outputs": [],
      "stateMutability": "nonpayable",
      "type": "function"
    },
    {
      "inputs": [],
      "name": "isOpen",
      "outputs": [
        {
          "internalType": "bool",
          "name": "",
          "type": "bool"
        }
      ],
      "stateMutability": "view",
      "type": "function"
    },
    {
      "inputs": [],
      "name": "marketInfo",
      "outputs": [
        {
          "internalType": "uint256",
          "name": "startTime",
          "type": "uint256"
        },
        {
          "internalType": "uint256",
          "name": "endTime",
          "type": "uint256"
        },
        {
          "internalType": "uint256",
          "name": "totalTokens",
          "type": "uint256"
        }
      ],
      "stateMutability": "view",
      "type": "function"
    },
    {
      "inputs": [],
      "name": "marketParticipationAgreement",
      "outputs": [
        {
          "internalType": "string",
          "name": "",
          "type": "string"
        }
      ],
      "stateMutability": "pure",
      "type": "function"
    },
    {
      "inputs": [],
      "name": "marketPrice",
      "outputs": [
        {
          "internalType": "uint256",
          "name": "startPrice",
          "type": "uint256"
        },
        {
          "internalType": "uint256",
          "name": "minimumPrice",
          "type": "uint256"
        }
      ],
      "stateMutability": "view",
      "type": "function"
    },
    {
      "inputs": [],
      "name": "marketStatus",
      "outputs": [
        {
          "internalType": "uint256",
          "name": "commitmentsTotal",
          "type": "uint256"
        },
        {
          "internalType": "bool",
          "name": "finalized",
          "type": "bool"
        },
        {
          "internalType": "bool",
          "name": "usePointList",
          "type": "bool"
        }
      ],
      "stateMutability": "view",
      "type": "function"
    },
    {
      "inputs": [],
      "name": "owner",
      "outputs": [
        {
          "internalType": "address",
          "name": "",
          "type": "address"
        }
      ],
      "stateMutability": "view",
      "type": "function"
    },
    {
      "inputs": [],
      "name": "paymentCurrency",
      "outputs": [
        {
          "internalType": "address",
          "name": "",
          "type": "address"
        }
      ],
      "stateMutability": "view",
      "type": "function"
    },
    {
      "inputs": [],
      "name": "pointList",
      "outputs": [
        {
          "internalType": "address",
          "name": "",
          "type": "address"
        }
      ],
      "stateMutability": "view",
      "type": "function"
    },
    {
      "inputs": [],
      "name": "priceDrop",
      "outputs": [
        {
          "internalType": "uint256",
          "name": "",
          "type": "uint256"
        }
      ],
      "stateMutability": "view",
      "type": "function"
    },
    {
      "inputs": [],
      "name": "priceFunction",
      "outputs": [
        {
          "internalType": "uint256",
          "name": "",
          "type": "uint256"
        }
      ],
      "stateMutability": "view",
      "type": "function"
    },
    {
      "inputs": [],
      "name": "renounceOwnership",
      "outputs": [],
      "stateMutability": "nonpayable",
      "type": "function"
    },
    {
      "inputs": [
        {
          "internalType": "uint256",
          "name": "_startPrice",
          "type": "uint256"
        },
        {
          "internalType": "uint256",
          "name": "_minimumPrice",
          "type": "uint256"
        }
      ],
      "name": "setAuctionPrice",
      "outputs": [],
      "stateMutability": "nonpayable",
      "type": "function"
    },
    {
      "inputs": [
        {
          "internalType": "uint256",
          "name": "_startTime",
          "type": "uint256"
        },
        {
          "internalType": "uint256",
          "name": "_endTime",
          "type": "uint256"
        }
      ],
      "name": "setAuctionTime",
      "outputs": [],
      "stateMutability": "nonpayable",
      "type": "function"
    },
    {
      "inputs": [
        {
          "internalType": "address payable",
          "name": "_wallet",
          "type": "address"
        }
      ],
      "name": "setAuctionWallet",
      "outputs": [],
      "stateMutability": "nonpayable",
      "type": "function"
    },
    {
      "inputs": [],
      "name": "tokenPrice",
      "outputs": [
        {
          "internalType": "uint256",
          "name": "",
          "type": "uint256"
        }
      ],
      "stateMutability": "view",
      "type": "function"
    },
    {
      "inputs": [
        {
          "internalType": "address",
          "name": "_user",
          "type": "address"
        }
      ],
      "name": "tokensClaimable",
      "outputs": [
        {
          "internalType": "uint256",
          "name": "claimerCommitment",
          "type": "uint256"
        }
      ],
      "stateMutability": "view",
      "type": "function"
    },
    {
      "inputs": [],
      "name": "totalTokensCommitted",
      "outputs": [
        {
          "internalType": "uint256",
          "name": "",
          "type": "uint256"
        }
      ],
      "stateMutability": "view",
      "type": "function"
    },
    {
      "inputs": [
        {
          "internalType": "address",
          "name": "newOwner",
          "type": "address"
        }
      ],
      "name": "transferOwnership",
      "outputs": [],
      "stateMutability": "nonpayable",
      "type": "function"
    },
    {
      "inputs": [],
      "name": "wallet",
      "outputs": [
        {
          "internalType": "address payable",
          "name": "",
          "type": "address"
        }
      ],
      "stateMutability": "view",
      "type": "function"
    },
    {
      "inputs": [
        {
          "internalType": "address payable",
          "name": "beneficiary",
          "type": "address"
        }
      ],
      "name": "withdrawTokens",
      "outputs": [],
      "stateMutability": "nonpayable",
      "type": "function"
    },
    {
      "stateMutability": "payable",
      "type": "receive"
    }
  ],
  "bytecode": "0x608060405234801561001057600080fd5b50600160005561002661002161002b565b61002f565b610081565b3390565b600180546001600160a01b038381166001600160a01b0319831681179093556040519116919082907f8be0079c531659141344cd1fd0a4f28419497f9722a3daafe3b4186f6b6457e090600090a35050565b61239c80620000916000396000f3fe6080604052600436106102085760003560e01c806373973fcb11610118578063a9d87ee6116100a0578063dc97e0821161006f578063dc97e0821461054d578063e0e081d71461056d578063e8fcf72314610591578063f04899d3146105b1578063f2fde38b146105c657610217565b8063a9d87ee6146104ee578063b3f05b9714610503578063c884ef8314610518578063d7568b6e1461053857610217565b80638da5cb5b116100e75780638da5cb5b1461047a5780638fa8b7901461048f578063919e93b5146104a457806399fdb320146104b95780639a87222c146104ce57610217565b806373973fcb1461040e57806374cf9fc51461042e5780637ff9b59614610450578063864333741461046557610217565b806345a153881161019b5780634ce5505f1161016a5780634ce5505f146103845780634dc80e15146103a4578063521eb273146103c45780636ae260c1146103d9578063715018a6146103f957610217565b806345a153881461031757806347535d7b1461033a57806349df728c1461034f5780634bb278f31461036f57610217565b806329762960116101d757806329762960146102ab57806332a0f2d7146102be57806336d0054b146102e05780633d15cc6d146102f557610217565b8063031bee001461021c5780631702645514610249578063212f8a811461026b57806324e4025b1461028b57610217565b36610217576102156105e6565b005b600080fd5b34801561022857600080fd5b50610231610607565b60405161024093929190612158565b60405180910390f35b34801561025557600080fd5b5061025e610613565b6040516102409190611928565b34801561027757600080fd5b506102156102863660046117e4565b61062f565b34801561029757600080fd5b506102156102a6366004611895565b6106cc565b6102156102b936600461171e565b610775565b3480156102ca57600080fd5b506102d361083c565b6040516102409190612129565b3480156102ec57600080fd5b5061025e61086b565b34801561030157600080fd5b5061030a610884565b60405161024091906118d7565b34801561032357600080fd5b5061032c610893565b60405161024092919061214a565b34801561034657600080fd5b5061025e61089c565b34801561035b57600080fd5b5061021561036a366004611702565b6108b8565b34801561037b57600080fd5b506102156109ed565b34801561039057600080fd5b5061021561039f366004611756565b610b5d565b3480156103b057600080fd5b506102d36103bf366004611702565b610de7565b3480156103d057600080fd5b5061030a610efe565b3480156103e557600080fd5b506102156103f4366004611895565b610f0d565b34801561040557600080fd5b50610215610ffe565b34801561041a57600080fd5b506102d3610429366004611841565b611049565b34801561043a57600080fd5b506104436110a1565b6040516102409190611933565b34801561045c57600080fd5b506102d36110c4565b34801561047157600080fd5b5061025e6110e3565b34801561048657600080fd5b5061030a6110fc565b34801561049b57600080fd5b5061021561110b565b3480156104b057600080fd5b506102d36111b7565b3480156104c557600080fd5b5061030a6111d9565b3480156104da57600080fd5b506102156104e9366004611702565b6111e8565b3480156104fa57600080fd5b506102d361126f565b34801561050f57600080fd5b5061025e61129e565b34801561052457600080fd5b506102d3610533366004611702565b6112a7565b34801561054457600080fd5b506102d36112b9565b34801561055957600080fd5b50610215610568366004611871565b61132c565b34801561057957600080fd5b5061058261133b565b60405161024093929190612132565b34801561059d57600080fd5b506102d36105ac366004611702565b611350565b3480156105bd57600080fd5b5061030a611362565b3480156105d257600080fd5b506102156105e1366004611702565b611371565b60405162461bcd60e51b81526004016105fe90611ccf565b60405180910390fd5b60025460035460045483565b60035460009042906106289062093a8061216e565b1090505b90565b600260005414156106525760405162461bcd60e51b81526004016105fe90612044565b6002600055600a546001600160a01b031661067f5760405162461bcd60e51b81526004016105fe90611986565b8061068c5761068c6105e6565b600061069783611049565b905080156106c157600a546106b7906001600160a01b03163330846113e2565b6106c1848261155b565b505060016000555050565b6106d46115e4565b6001600160a01b03166106e56110fc565b6001600160a01b03161461070b5760405162461bcd60e51b81526004016105fe90611e13565b80821161072a5760405162461bcd60e51b81526004016105fe906120cc565b6000811161074a5760405162461bcd60e51b81526004016105fe90611aef565b6007541561076a5760405162461bcd60e51b81526004016105fe9061207b565b600591909155600655565b600a546001600160a01b03161561079e5760405162461bcd60e51b81526004016105fe90611e8b565b806107ab576107ab6105e6565b60006107b634611049565b905060006107c434836115e8565b905081156107d6576107d6848361155b565b8015610814576040516001600160a01b0385169082156108fc029083906000818181858888f19350505050158015610812573d6000803e3d6000fd5b505b6007544710156108365760405162461bcd60e51b81526004016105fe90611b41565b50505050565b6000806108476110c4565b9050600061085361126f565b90508082116108625780610864565b815b9250505090565b600061087561083c565b61087d6110c4565b1015905090565b600a546001600160a01b031681565b60055460065482565b60025460009042108015906108b357506003544211155b905090565b600260005414156108db5760405162461bcd60e51b81526004016105fe90612044565b60026000556108e861086b565b156109925760085460ff1661090f5760405162461bcd60e51b81526004016105fe90611f76565b600061091a82610de7565b90506000811161093c5760405162461bcd60e51b81526004016105fe90611a27565b6001600160a01b0382166000908152600e602052604090205461095f90826115fb565b6001600160a01b038084166000908152600e602052604090209190915560095461098c91163084846113e2565b506109e5565b60035442116109b35760405162461bcd60e51b81526004016105fe90611fad565b6001600160a01b038082166000908152600d602052604081208054919055600a5490916109e391163084846113e2565b505b506001600055565b60026000541415610a105760405162461bcd60e51b81526004016105fe90612044565b6002600055610a1d6115e4565b6001600160a01b0316610a2e6110fc565b6001600160a01b031614610a545760405162461bcd60e51b81526004016105fe90611e13565b600b546001600160a01b0316331480610a705750610a70610613565b610a8c5760405162461bcd60e51b81526004016105fe90611edc565b600454610aab5760405162461bcd60e51b81526004016105fe90611dea565b60085460079060ff1615610ad15760405162461bcd60e51b81526004016105fe90611bda565b610ad961086b565b15610b0557600a54600b548254610b00926001600160a01b039081169230929116906113e2565b610b49565b6003544211610b265760405162461bcd60e51b81526004016105fe90611fad565b600954600b54600454610b49926001600160a01b039081169230929116906113e2565b6001908101805460ff191682179055600055565b6402540be4008510610b815760405162461bcd60e51b81526004016105fe90611c21565b42861015610ba15760405162461bcd60e51b81526004016105fe90611d47565b858511610bc05760405162461bcd60e51b81526004016105fe90611f21565b60008711610be05760405162461bcd60e51b81526004016105fe90611d96565b818311610bff5760405162461bcd60e51b81526004016105fe906120cc565b60008211610c1f5760405162461bcd60e51b81526004016105fe90611aef565b6001600160a01b038116610c455760405162461bcd60e51b81526004016105fe90611a5c565b876001600160a01b031663313ce5676040518163ffffffff1660e01b815260040160206040518083038186803b158015610c7e57600080fd5b505afa158015610c92573d6000803e3d6000fd5b505050506040513d601f19601f82011682018060405250810190610cb691906118b6565b60ff16601214610cd85760405162461bcd60e51b81526004016105fe90611ff7565b6001600160a01b03841615610d7a576000846001600160a01b031663313ce5676040518163ffffffff1660e01b815260040160206040518083038186803b158015610d2257600080fd5b505afa158015610d36573d6000803e3d6000fd5b505050506040513d601f19601f82011682018060405250810190610d5a91906118b6565b60ff1611610d7a5760405162461bcd60e51b81526004016105fe90611aa4565b60028690556003859055600487905560058390556006829055600980546001600160a01b03808b166001600160a01b031992831617909255600a8054878416908316179055600b805492841692909116919091179055610ddc888a308a6113e2565b505050505050505050565b6001600160a01b0381166000908152600d6020526040812054610e0c57506000610ef9565b6009546040516370a0823160e01b81526000916001600160a01b0316906370a0823190610e3d9030906004016118d7565b60206040518083038186803b158015610e5557600080fd5b505afa158015610e69573d6000803e3d6000fd5b505050506040513d601f19601f82011682018060405250810190610e8d9190611859565b6007546004546001600160a01b0386166000908152600d6020526040902054929350610ec292610ebc91611607565b90611613565b6001600160a01b0384166000908152600e6020526040902054909250610ee99083906115e8565b915080821115610ef7578091505b505b919050565b600b546001600160a01b031681565b610f156115e4565b6001600160a01b0316610f266110fc565b6001600160a01b031614610f4c5760405162461bcd60e51b81526004016105fe90611e13565b6402540be4008210610f705760405162461bcd60e51b81526004016105fe90611c21565b6402540be4008110610f945760405162461bcd60e51b81526004016105fe90611c21565b42821015610fb45760405162461bcd60e51b81526004016105fe90611d47565b818111610fd35760405162461bcd60e51b81526004016105fe906119d3565b60075415610ff35760405162461bcd60e51b81526004016105fe9061207b565b600291909155600355565b6110066115e4565b6001600160a01b03166110176110fc565b6001600160a01b03161461103d5760405162461bcd60e51b81526004016105fe90611e13565b611047600061161f565b565b60008061106c670de0b6b3a7640000610ebc61106361083c565b60045490611607565b600754909150819061107e90856115fb565b111561109a576007546110929082906115e8565b915050610ef9565b5090919050565b606060405180610180016040528061015181526020016122166101519139905090565b6004546007546000916108b391610ebc90670de0b6b3a7640000611607565b60006110ed61086b565b806108b3575050600354421190565b6001546001600160a01b031690565b6002600054141561112e5760405162461bcd60e51b81526004016105fe90612044565b600260005561113b6115e4565b6001600160a01b031661114c6110fc565b6001600160a01b0316146111725760405162461bcd60e51b81526004016105fe90611e13565b60085460079060ff16156111985760405162461bcd60e51b81526004016105fe90611bda565b805415610b265760405162461bcd60e51b81526004016105fe90611c88565b60006108b36111c461083c565b600754610ebc90670de0b6b3a7640000611607565b6009546001600160a01b031681565b6111f06115e4565b6001600160a01b03166112016110fc565b6001600160a01b0316146112275760405162461bcd60e51b81526004016105fe90611e13565b6001600160a01b03811661124d5760405162461bcd60e51b81526004016105fe90611a5c565b600b80546001600160a01b0319166001600160a01b0392909216919091179055565b6002546000904211611284575060055461062c565b6003544210611296575060065461062c565b6108b3611671565b60085460ff1690565b600e6020526000908152604090205481565b604080516060810182526002548152600354602080830191909152600454828401528251808401909352600554808452600654918401829052600093918491611301916115e8565b83516020850151919250600091611317916115e8565b90506113238183612186565b94505050505090565b61133733838361062f565b5050565b60075460085460ff8082169161010090041683565b600d6020526000908152604090205481565b600c546001600160a01b031681565b6113796115e4565b6001600160a01b031661138a6110fc565b6001600160a01b0316146113b05760405162461bcd60e51b81526004016105fe90611e13565b6001600160a01b0381166113d65760405162461bcd60e51b81526004016105fe90611b94565b6113df8161161f565b50565b6001600160a01b03841661145157816001600160a01b0316816040516114079061062c565b60006040518083038185875af1925050503d8060008114611444576040519150601f19603f3d011682016040523d82523d6000602084013e611449565b606091505b505050610836565b60405163095ea7b360e01b81526001600160a01b0385169063095ea7b39061147f908590859060040161190f565b602060405180830381600087803b15801561149957600080fd5b505af11580156114ad573d6000803e3d6000fd5b505050506040513d601f19601f820116820180604052508101906114d19190611825565b506040516323b872dd60e01b81526001600160a01b038516906323b872dd90611502908690869086906004016118eb565b602060405180830381600087803b15801561151c57600080fd5b505af1158015611530573d6000803e3d6000fd5b505050506040513d601f19601f820116820180604052508101906115549190611825565b5050505050565b600254421080159061156f57506003544211155b61158b5760405162461bcd60e51b81526004016105fe90611e48565b6001600160a01b0382166000908152600d6020526040812054600791906115b290846115fb565b6001600160a01b0385166000908152600d6020526040902081905582549091506115dc90846115fb565b909155505050565b3390565b60006115f482846121c5565b9392505050565b60006115f4828461216e565b60006115f482846121a6565b60006115f48284612186565b600180546001600160a01b038381166001600160a01b0319831681179093556040519116919082907f8be0079c531659141344cd1fd0a4f28419497f9722a3daafe3b4186f6b6457e090600090a35050565b6040805160608101825260025481526003546020808301918252600454838501528351808501909452600554845260065490840152815190516000939184916116b9916115e8565b602083015183516116e1916116ce91906115e8565b85516116db9042906115e8565b90611607565b6116eb9190612186565b82519091506116fa90826115e8565b935050505090565b600060208284031215611713578081fd5b81356115f4816121f2565b60008060408385031215611730578081fd5b823561173b816121f2565b9150602083013561174b81612207565b809150509250929050565b60008060008060008060008060006101208a8c031215611774578485fd5b893561177f816121f2565b985060208a013561178f816121f2565b975060408a0135965060608a0135955060808a0135945060a08a01356117b4816121f2565b935060c08a0135925060e08a013591506101008a01356117d3816121f2565b809150509295985092959850929598565b6000806000606084860312156117f8578283fd5b8335611803816121f2565b925060208401359150604084013561181a81612207565b809150509250925092565b600060208284031215611836578081fd5b81516115f481612207565b600060208284031215611852578081fd5b5035919050565b60006020828403121561186a578081fd5b5051919050565b60008060408385031215611883578182fd5b82359150602083013561174b81612207565b600080604083850312156118a7578182fd5b50508035926020909101359150565b6000602082840312156118c7578081fd5b815160ff811681146115f4578182fd5b6001600160a01b0391909116815260200190565b6001600160a01b039384168152919092166020820152604081019190915260600190565b6001600160a01b03929092168252602082015260400190565b901515815260200190565b6000602080835283518082850152825b8181101561195f57858101830151858201604001528201611943565b818111156119705783604083870101525b50601f01601f1916929092016040019392505050565b6020808252602d908201527f447574636841756374696f6e3a205061796d656e742063757272656e6379206960408201526c39903737ba1030903a37b5b2b760991b606082015260800190565b60208082526034908201527f447574636841756374696f6e3a20656e642074696d65206d757374206265206f6040820152736c646572207468616e2073746172742074696d6560601b606082015260800190565b6020808252818101527f447574636841756374696f6e3a204e6f20746f6b656e7320746f20636c61696d604082015260600190565b60208082526028908201527f447574636841756374696f6e3a2077616c6c657420697320746865207a65726f604082015267206164647265737360c01b606082015260800190565b6020808252602b908201527f447574636841756374696f6e3a205061796d656e742063757272656e6379206960408201526a073206e6f742045524332360ac1b606082015260800190565b60208082526032908201527f447574636841756374696f6e3a206d696e696d756d207072696365206d75737460408201527102062652067726561746572207468616e20360741b606082015260800190565b60208082526033908201527f447574636841756374696f6e3a2054686520636f6d6d6974746564204554482060408201527265786365656473207468652062616c616e636560681b606082015260800190565b60208082526026908201527f4f776e61626c653a206e6577206f776e657220697320746865207a65726f206160408201526564647265737360d01b606082015260800190565b60208082526027908201527f447574636841756374696f6e3a2061756374696f6e20616c72656164792066696040820152661b985b1a5e995960ca1b606082015260800190565b60208082526041908201527f447574636841756374696f6e3a20656e74657220616e20756e69782074696d6560408201527f7374616d7020696e207365636f6e64732c206e6f74206d696c697365636f6e646060820152607360f81b608082015260a00190565b60208082526027908201527f447574636841756374696f6e3a2061756374696f6e20616c726561647920636f6040820152661b5b5a5d1d195960ca1b606082015260800190565b60208082526052908201527f4e6f2061677265656d656e742070726f76696465642c20706c6561736520726560408201527f766965772074686520736d61727420636f6e7472616374206265666f726520696060820152711b9d195c9858dd1a5b99c81dda5d1a081a5d60721b608082015260a00190565b6020808252602f908201527f447574636841756374696f6e3a2073746172742074696d65206973206265666f60408201526e72652063757272656e742074696d6560881b606082015260800190565b60208082526034908201527f447574636841756374696f6e3a20746f74616c20746f6b656e73206d7573742060408201527362652067726561746572207468616e207a65726f60601b606082015260800190565b6020808252600f908201526e139bdd081a5b9a5d1a585b1a5e9959608a1b604082015260600190565b6020808252818101527f4f776e61626c653a2063616c6c6572206973206e6f7420746865206f776e6572604082015260600190565b60208082526023908201527f447574636841756374696f6e3a206f7574736964652061756374696f6e20686f60408201526275727360e81b606082015260800190565b60208082526031908201527f447574636841756374696f6e3a207061796d656e742063757272656e6379206960408201527073206e6f7420455448206164647265737360781b606082015260800190565b60208082526025908201527f447574636841756374696f6e3a2073656e646572206d75737420626520616e2060408201526430b236b4b760d91b606082015260800190565b60208082526035908201527f447574636841756374696f6e3a20656e642074696d65206d757374206265206f6040820152746c646572207468616e20737461727420707269636560581b606082015260800190565b6020808252601b908201527f447574636841756374696f6e3a206e6f742066696e616c697a65640000000000604082015260600190565b6020808252602a908201527f447574636841756374696f6e3a2061756374696f6e20686173206e6f742066696040820152691b9a5cda1959081e595d60b21b606082015260800190565b6020808252602d908201527f447574636841756374696f6e3a20546f6b656e20646f6573206e6f742068617660408201526c6520313820646563696d616c7360981b606082015260800190565b6020808252601f908201527f5265656e7472616e637947756172643a207265656e7472616e742063616c6c00604082015260600190565b60208082526031908201527f447574636841756374696f6e3a2061756374696f6e2063616e6e6f74206861766040820152701948185b1c9958591e481cdd185c9d1959607a1b606082015260800190565b6020808252603b908201527f447574636841756374696f6e3a207374617274207072696365206d757374206260408201527f6520686967686572207468616e206d696e696d756d2070726963650000000000606082015260800190565b90815260200190565b92835290151560208301521515604082015260600190565b918252602082015260400190565b9283526020830191909152604082015260600190565b60008219821115612181576121816121dc565b500190565b6000826121a157634e487b7160e01b81526012600452602481fd5b500490565b60008160001904831182151516156121c0576121c06121dc565b500290565b6000828210156121d7576121d76121dc565b500390565b634e487b7160e01b600052601160045260246000fd5b6001600160a01b03811681146113df57600080fd5b80151581146113df57600080fdfe4920756e6465727374616e6420746861742049276d20696e746572616374696e672077697468206120736d61727420636f6e74726163742e204920756e6465727374616e64207468617420746f6b656e7320636f6d6d697474656420617265207375626a65637420746f2074686520746f6b656e2069737375657220616e64206c6f63616c206c617773207768657265206170706c696361626c652e204920726576696577656420636f6465206f662074686520736d61727420636f6e747261637420616e6420756e6465727374616e642069742066756c6c792e204920616772656520746f206e6f7420686f6c6420646576656c6f70657273206f72206f746865722070656f706c65206173736f6369617465642077697468207468652070726f6a656374206c6961626c6520666f7220616e79206c6f73736573206f72206d6973756e6465727374616e64696e6773a26469706673582212201956d80b1f1b1102056db305c31f3758170d0adb7ee627e264ec87b920551ae564736f6c63430008010033",
  "linkReferences": {},
  "deployedLinkReferences": {}
}