{
  "_format": "hh-sol-artifact-1",
  "contractName": "PaymentSplitter",
  "sourceName": "contracts/Adidas/PaymentSplitter.sol",
  "abi": [
    {
      "inputs": [
        {
          "internalType": "address[]",
          "name": "payees",
          "type": "address[]"
        },
        {
          "internalType": "uint256[]",
          "name": "shares_",
          "type": "uint256[]"
        }
      ],
      "stateMutability": "payable",
      "type": "constructor"
    },
    {
      "anonymous": false,
      "inputs": [
        {
          "indexed": false,
          "internalType": "address",
          "name": "account",
          "type": "address"
        },
        {
          "indexed": false,
          "internalType": "uint256",
          "name": "shares",
          "type": "uint256"
        }
      ],
      "name": "PayeeAdded",
      "type": "event"
    },
    {
      "anonymous": false,
      "inputs": [
        {
          "indexed": false,
          "internalType": "address",
          "name": "to",
          "type": "address"
        },
        {
          "indexed": false,
          "internalType": "uint256",
          "name": "amount",
          "type": "uint256"
        }
      ],
      "name": "PaymentReleased",
      "type": "event"
    },
    {
      "inputs": [
        {
          "internalType": "address payable",
          "name": "account",
          "type": "address"
        }
      ],
      "name": "release",
      "outputs": [],
      "stateMutability": "nonpayable",
      "type": "function"
    },
    {
      "inputs": [
        {
          "internalType": "address",
          "name": "account",
          "type": "address"
        }
      ],
      "name": "shares",
      "outputs": [
        {
          "internalType": "uint256",
          "name": "",
          "type": "uint256"
        }
      ],
      "stateMutability": "view",
      "type": "function"
    }
  ],
  "bytecode": "0x608060405260405162000a8138038062000a818339810160408190526200002691620002a8565b8051825114620000535760405162461bcd60e51b81526004016200004a90620003e7565b60405180910390fd5b6000825111620000775760405162461bcd60e51b81526004016200004a9062000484565b60005b8251811015620000fb57620000e6838281518110620000a957634e487b7160e01b600052603260045260246000fd5b6020026020010151838381518110620000d257634e487b7160e01b600052603260045260246000fd5b60200260200101516200010460201b60201c565b80620000f28162000566565b9150506200007a565b505050620005b0565b6001600160a01b0382166200012d5760405162461bcd60e51b81526004016200004a906200039b565b60008111620001505760405162461bcd60e51b81526004016200004a90620004bb565b6001600160a01b03821660009081526002602052604090205415620001895760405162461bcd60e51b81526004016200004a9062000439565b60048054600181019091557f8a35acfbc15ff81a39ae7d344fd709f28e8600b4aa8c65c6b64bfe7fe36bd19b0180546001600160a01b0319166001600160a01b038416908117909155600090815260026020526040812082905554620001f19082906200054b565b6000556040517f40c340f65e17194d14ddddb073d3c9f888e3cb52b5aae0c6c7706b4fbc905fac9062000228908490849062000382565b60405180910390a15050565b600082601f83011262000245578081fd5b815160206200025e620002588362000525565b620004f2565b82815281810190858301838502870184018810156200027b578586fd5b855b858110156200029b578151845292840192908401906001016200027d565b5090979650505050505050565b60008060408385031215620002bb578182fd5b82516001600160401b0380821115620002d2578384fd5b818501915085601f830112620002e6578384fd5b81516020620002f9620002588362000525565b82815281810190858301838502870184018b101562000316578889fd5b8896505b848710156200034f5780516001600160a01b03811681146200033a57898afd5b8352600196909601959183019183016200031a565b509188015191965090935050508082111562000369578283fd5b50620003788582860162000234565b9150509250929050565b6001600160a01b03929092168252602082015260400190565b6020808252602c908201527f5061796d656e7453706c69747465723a206163636f756e74206973207468652060408201526b7a65726f206164647265737360a01b606082015260800190565b60208082526032908201527f5061796d656e7453706c69747465723a2070617965657320616e6420736861726040820152710cae640d8cadccee8d040dad2e6dac2e8c6d60731b606082015260800190565b6020808252602b908201527f5061796d656e7453706c69747465723a206163636f756e7420616c726561647960408201526a206861732073686172657360a81b606082015260800190565b6020808252601a908201527f5061796d656e7453706c69747465723a206e6f20706179656573000000000000604082015260600190565b6020808252601d908201527f5061796d656e7453706c69747465723a20736861726573206172652030000000604082015260600190565b604051601f8201601f191681016001600160401b03811182821017156200051d576200051d6200059a565b604052919050565b60006001600160401b038211156200054157620005416200059a565b5060209081020190565b6000821982111562000561576200056162000584565b500190565b60006000198214156200057d576200057d62000584565b5060010190565b634e487b7160e01b600052601160045260246000fd5b634e487b7160e01b600052604160045260246000fd5b6104c180620005c06000396000f3fe608060405234801561001057600080fd5b50600436106100365760003560e01c8063191655871461003b578063ce7c2ac214610050575b600080fd5b61004e610049366004610282565b610079565b005b61006361005e366004610282565b6101c6565b60405161007091906103e6565b60405180910390f35b6001600160a01b0381166000908152600260205260409020546100b75760405162461bcd60e51b81526004016100ae906102c1565b60405180910390fd5b6000600154476100c791906103ef565b6001600160a01b038316600090815260036020908152604080832054835460029093529083205493945091926100fd9085610427565b6101079190610407565b6101119190610446565b9050806101305760405162461bcd60e51b81526004016100ae9061039b565b6001600160a01b0383166000908152600360205260409020546101549082906103ef565b6001600160a01b03841660009081526003602052604090205560015461017b9082906103ef565b60015561018883826101e1565b7fdf20fd1e76bc69d672e4814fafb2c449bba3a5369d8359adf9e05e6fde87b05683826040516101b99291906102a8565b60405180910390a1505050565b6001600160a01b031660009081526002602052604090205490565b804710156102015760405162461bcd60e51b81526004016100ae90610364565b6000826001600160a01b03168260405161021a906102a5565b60006040518083038185875af1925050503d8060008114610257576040519150601f19603f3d011682016040523d82523d6000602084013e61025c565b606091505b505090508061027d5760405162461bcd60e51b81526004016100ae90610307565b505050565b600060208284031215610293578081fd5b813561029e81610473565b9392505050565b90565b6001600160a01b03929092168252602082015260400190565b60208082526026908201527f5061796d656e7453706c69747465723a206163636f756e7420686173206e6f2060408201526573686172657360d01b606082015260800190565b6020808252603a908201527f416464726573733a20756e61626c6520746f2073656e642076616c75652c207260408201527f6563697069656e74206d61792068617665207265766572746564000000000000606082015260800190565b6020808252601d908201527f416464726573733a20696e73756666696369656e742062616c616e6365000000604082015260600190565b6020808252602b908201527f5061796d656e7453706c69747465723a206163636f756e74206973206e6f742060408201526a191d59481c185e5b595b9d60aa1b606082015260800190565b90815260200190565b600082198211156104025761040261045d565b500190565b60008261042257634e487b7160e01b81526012600452602481fd5b500490565b60008160001904831182151516156104415761044161045d565b500290565b6000828210156104585761045861045d565b500390565b634e487b7160e01b600052601160045260246000fd5b6001600160a01b038116811461048857600080fd5b5056fea26469706673582212209ae7e6dc7e28b17693d93fb4d4e270dfd0834754dd1bd9da8d50f73c8f2c155b64736f6c63430008010033",
  "linkReferences": {},
  "deployedLinkReferences": {}
}