{
  "_format": "hh-sol-artifact-1",
  "contractName": "TestToken3",
  "sourceName": "contracts/Uniswap/TestToken3.sol",
  "abi": [
    {
      "inputs": [],
      "stateMutability": "nonpayable",
      "type": "constructor"
    },
    {
      "anonymous": false,
      "inputs": [
        {
          "indexed": true,
          "internalType": "address",
          "name": "owner",
          "type": "address"
        },
        {
          "indexed": true,
          "internalType": "address",
          "name": "spender",
          "type": "address"
        },
        {
          "indexed": false,
          "internalType": "uint256",
          "name": "value",
          "type": "uint256"
        }
      ],
      "name": "Approval",
      "type": "event"
    },
    {
      "anonymous": false,
      "inputs": [
        {
          "indexed": true,
          "internalType": "address",
          "name": "previousOwner",
          "type": "address"
        },
        {
          "indexed": true,
          "internalType": "address",
          "name": "newOwner",
          "type": "address"
        }
      ],
      "name": "OwnershipTransferred",
      "type": "event"
    },
    {
      "anonymous": false,
      "inputs": [
        {
          "indexed": true,
          "internalType": "address",
          "name": "from",
          "type": "address"
        },
        {
          "indexed": true,
          "internalType": "address",
          "name": "to",
          "type": "address"
        },
        {
          "indexed": false,
          "internalType": "uint256",
          "name": "value",
          "type": "uint256"
        }
      ],
      "name": "Transfer",
      "type": "event"
    },
    {
      "inputs": [],
      "name": "INITIAL_SUPPLY",
      "outputs": [
        {
          "internalType": "uint256",
          "name": "",
          "type": "uint256"
        }
      ],
      "stateMutability": "view",
      "type": "function"
    },
    {
      "inputs": [],
      "name": "MAX_SUPPLY",
      "outputs": [
        {
          "internalType": "uint256",
          "name": "",
          "type": "uint256"
        }
      ],
      "stateMutability": "view",
      "type": "function"
    },
    {
      "inputs": [
        {
          "internalType": "address",
          "name": "owner",
          "type": "address"
        },
        {
          "internalType": "address",
          "name": "spender",
          "type": "address"
        }
      ],
      "name": "allowance",
      "outputs": [
        {
          "internalType": "uint256",
          "name": "",
          "type": "uint256"
        }
      ],
      "stateMutability": "view",
      "type": "function"
    },
    {
      "inputs": [
        {
          "internalType": "address",
          "name": "spender",
          "type": "address"
        },
        {
          "internalType": "uint256",
          "name": "amount",
          "type": "uint256"
        }
      ],
      "name": "approve",
      "outputs": [
        {
          "internalType": "bool",
          "name": "",
          "type": "bool"
        }
      ],
      "stateMutability": "nonpayable",
      "type": "function"
    },
    {
      "inputs": [
        {
          "internalType": "address",
          "name": "account",
          "type": "address"
        }
      ],
      "name": "balanceOf",
      "outputs": [
        {
          "internalType": "uint256",
          "name": "",
          "type": "uint256"
        }
      ],
      "stateMutability": "view",
      "type": "function"
    },
    {
      "inputs": [],
      "name": "decimals",
      "outputs": [
        {
          "internalType": "uint8",
          "name": "",
          "type": "uint8"
        }
      ],
      "stateMutability": "view",
      "type": "function"
    },
    {
      "inputs": [
        {
          "internalType": "address",
          "name": "spender",
          "type": "address"
        },
        {
          "internalType": "uint256",
          "name": "subtractedValue",
          "type": "uint256"
        }
      ],
      "name": "decreaseAllowance",
      "outputs": [
        {
          "internalType": "bool",
          "name": "",
          "type": "bool"
        }
      ],
      "stateMutability": "nonpayable",
      "type": "function"
    },
    {
      "inputs": [
        {
          "internalType": "address",
          "name": "spender",
          "type": "address"
        },
        {
          "internalType": "uint256",
          "name": "addedValue",
          "type": "uint256"
        }
      ],
      "name": "increaseAllowance",
      "outputs": [
        {
          "internalType": "bool",
          "name": "",
          "type": "bool"
        }
      ],
      "stateMutability": "nonpayable",
      "type": "function"
    },
    {
      "inputs": [
        {
          "internalType": "address",
          "name": "_to",
          "type": "address"
        },
        {
          "internalType": "uint256",
          "name": "_amount",
          "type": "uint256"
        }
      ],
      "name": "mint",
      "outputs": [],
      "stateMutability": "nonpayable",
      "type": "function"
    },
    {
      "inputs": [],
      "name": "minter",
      "outputs": [
        {
          "internalType": "address",
          "name": "",
          "type": "address"
        }
      ],
      "stateMutability": "view",
      "type": "function"
    },
    {
      "inputs": [],
      "name": "name",
      "outputs": [
        {
          "internalType": "string",
          "name": "",
          "type": "string"
        }
      ],
      "stateMutability": "view",
      "type": "function"
    },
    {
      "inputs": [],
      "name": "owner",
      "outputs": [
        {
          "internalType": "address",
          "name": "",
          "type": "address"
        }
      ],
      "stateMutability": "view",
      "type": "function"
    },
    {
      "inputs": [],
      "name": "renounceOwnership",
      "outputs": [],
      "stateMutability": "nonpayable",
      "type": "function"
    },
    {
      "inputs": [],
      "name": "symbol",
      "outputs": [
        {
          "internalType": "string",
          "name": "",
          "type": "string"
        }
      ],
      "stateMutability": "view",
      "type": "function"
    },
    {
      "inputs": [],
      "name": "totalSupply",
      "outputs": [
        {
          "internalType": "uint256",
          "name": "",
          "type": "uint256"
        }
      ],
      "stateMutability": "view",
      "type": "function"
    },
    {
      "inputs": [
        {
          "internalType": "address",
          "name": "recipient",
          "type": "address"
        },
        {
          "internalType": "uint256",
          "name": "amount",
          "type": "uint256"
        }
      ],
      "name": "transfer",
      "outputs": [
        {
          "internalType": "bool",
          "name": "",
          "type": "bool"
        }
      ],
      "stateMutability": "nonpayable",
      "type": "function"
    },
    {
      "inputs": [
        {
          "internalType": "address",
          "name": "sender",
          "type": "address"
        },
        {
          "internalType": "address",
          "name": "recipient",
          "type": "address"
        },
        {
          "internalType": "uint256",
          "name": "amount",
          "type": "uint256"
        }
      ],
      "name": "transferFrom",
      "outputs": [
        {
          "internalType": "bool",
          "name": "",
          "type": "bool"
        }
      ],
      "stateMutability": "nonpayable",
      "type": "function"
    },
    {
      "inputs": [
        {
          "internalType": "address",
          "name": "newOwner",
          "type": "address"
        }
      ],
      "name": "transferOwnership",
      "outputs": [],
      "stateMutability": "nonpayable",
      "type": "function"
    },
    {
      "inputs": [
        {
          "internalType": "address",
          "name": "newMinter",
          "type": "address"
        }
      ],
      "name": "updateMinter",
      "outputs": [],
      "stateMutability": "nonpayable",
      "type": "function"
    }
  ],
  "bytecode": "0x60806040523480156200001157600080fd5b506040518060400160405280600c81526020016b5465737420546f6b656e203360a01b8152506040518060400160405280600381526020016254543360e81b81525081600390805190602001906200006b92919062000238565b5080516200008190600490602084019062000238565b5050506200009e62000098620000ec60201b60201c565b620000f0565b620000bc620000ac62000142565b68056bc75e2d6310000062000151565b620000c6620000ec565b600680546001600160a01b0319166001600160a01b039290921691909117905562000380565b3390565b600580546001600160a01b038381166001600160a01b0319831681179093556040519116919082907f8be0079c531659141344cd1fd0a4f28419497f9722a3daafe3b4186f6b6457e090600090a35050565b6005546001600160a01b031690565b6001600160a01b038216620001835760405162461bcd60e51b81526004016200017a90620002de565b60405180910390fd5b620001916000838362000233565b8060026000828254620001a591906200031e565b90915550506001600160a01b03821660009081526020819052604081208054839290620001d49084906200031e565b90915550506040516001600160a01b038316906000907fddf252ad1be2c89b69c2b068fc378daa952ba7f163c4a11628f55a4df523b3ef906200021990859062000315565b60405180910390a36200022f6000838362000233565b5050565b505050565b828054620002469062000343565b90600052602060002090601f0160209004810192826200026a5760008555620002b5565b82601f106200028557805160ff1916838001178555620002b5565b82800160010185558215620002b5579182015b82811115620002b557825182559160200191906001019062000298565b50620002c3929150620002c7565b5090565b5b80821115620002c35760008155600101620002c8565b6020808252601f908201527f45524332303a206d696e7420746f20746865207a65726f206164647265737300604082015260600190565b90815260200190565b600082198211156200033e57634e487b7160e01b81526011600452602481fd5b500190565b6002810460018216806200035857607f821691505b602082108114156200037a57634e487b7160e01b600052602260045260246000fd5b50919050565b610e3e80620003906000396000f3fe608060405234801561001057600080fd5b50600436106101215760003560e01c806340c10f19116100ad57806395d89b411161007157806395d89b4114610224578063a457c2d71461022c578063a9059cbb1461023f578063dd62ed3e14610252578063f2fde38b1461026557610121565b806340c10f19146101d95780634eb03f6e146101ee57806370a0823114610201578063715018a6146102145780638da5cb5b1461021c57610121565b806323b872dd116100f457806323b872dd1461018e5780632ff2e9dc146101a1578063313ce567146101a957806332cb6b0c146101be57806339509351146101c657610121565b806306fdde03146101265780630754617214610144578063095ea7b31461015957806318160ddd14610179575b600080fd5b61012e610278565b60405161013b9190610a9c565b60405180910390f35b61014c61030a565b60405161013b9190610a7d565b61016c610167366004610a54565b610364565b60405161013b9190610a91565b610181610386565b60405161013b9190610d71565b61016c61019c366004610a19565b61038c565b6101816103cf565b6101b16103dc565b60405161013b9190610d7a565b6101816103e1565b61016c6101d4366004610a54565b6103f0565b6101ec6101e7366004610a54565b610437565b005b6101ec6101fc3660046109c6565b6104ad565b61018161020f3660046109c6565b61050e565b6101ec61052d565b61014c610578565b61012e610587565b61016c61023a366004610a54565b610596565b61016c61024d366004610a54565b6105f7565b6101816102603660046109e7565b610614565b6101ec6102733660046109c6565b61063f565b60606003805461028790610db7565b80601f01602080910402602001604051908101604052809291908181526020018280546102b390610db7565b80156103005780601f106102d557610100808354040283529160200191610300565b820191906000526020600020905b8154815290600101906020018083116102e357829003601f168201915b5050505050905090565b60006103146106b0565b6001600160a01b0316610325610578565b6001600160a01b0316146103545760405162461bcd60e51b815260040161034b90610c37565b60405180910390fd5b506006546001600160a01b031690565b60008061036f6106b0565b905061037c8185856106b4565b5060019392505050565b60025490565b6000610399848484610768565b60006103a7856102606106b0565b90506103c4856103b56106b0565b6103bf8685610da0565b6106b4565b506001949350505050565b68056bc75e2d6310000081565b601290565b6a084595161401484a00000081565b6000806103fb6106b0565b6001600160a01b0380821660009081526001602090815260408083209389168352929052205490915061037c90829086906103bf908790610d88565b6000610441610386565b90506a084595161401484a000000811061046d5760405162461bcd60e51b815260040161034b90610c00565b6000610484826a084595161401484a000000610da0565b90508281111561049d57610498848461088c565b6104a7565b6104a7848261088c565b50505050565b6104b56106b0565b6001600160a01b03166104c6610578565b6001600160a01b0316146104ec5760405162461bcd60e51b815260040161034b90610c37565b600680546001600160a01b0319166001600160a01b0392909216919091179055565b6001600160a01b0381166000908152602081905260409020545b919050565b6105356106b0565b6001600160a01b0316610546610578565b6001600160a01b03161461056c5760405162461bcd60e51b815260040161034b90610c37565b6105766000610958565b565b6005546001600160a01b031690565b60606004805461028790610db7565b6000806105a16106b0565b6001600160a01b03808216600090815260016020908152604080832093891683529290522054909150838110156105ea5760405162461bcd60e51b815260040161034b90610cf5565b6103c482868684036106b4565b600061060b6106046106b0565b8484610768565b50600192915050565b6001600160a01b03918216600090815260016020908152604080832093909416825291909152205490565b6106476106b0565b6001600160a01b0316610658610578565b6001600160a01b03161461067e5760405162461bcd60e51b815260040161034b90610c37565b6001600160a01b0381166106a45760405162461bcd60e51b815260040161034b90610b32565b6106ad81610958565b50565b3390565b6001600160a01b0383166106da5760405162461bcd60e51b815260040161034b90610cb1565b6001600160a01b0382166107005760405162461bcd60e51b815260040161034b90610b78565b6001600160a01b0380841660008181526001602090815260408083209487168084529490915290819020849055517f8c5be1e5ebec7d5bd14f71427d1e84f3dd0314c0f7b2291e5b200ac8c7c3b9259061075b908590610d71565b60405180910390a3505050565b6001600160a01b03831661078e5760405162461bcd60e51b815260040161034b90610c6c565b6001600160a01b0382166107b45760405162461bcd60e51b815260040161034b90610aef565b6107bf8383836109aa565b6001600160a01b038316600090815260208190526040902054818110156107f85760405162461bcd60e51b815260040161034b90610bba565b6001600160a01b0380851660009081526020819052604080822085850390559185168152908120805484929061082f908490610d88565b92505081905550826001600160a01b0316846001600160a01b03167fddf252ad1be2c89b69c2b068fc378daa952ba7f163c4a11628f55a4df523b3ef846040516108799190610d71565b60405180910390a36104a78484846109aa565b6001600160a01b0382166108b25760405162461bcd60e51b815260040161034b90610d3a565b6108be600083836109aa565b80600260008282546108d09190610d88565b90915550506001600160a01b038216600090815260208190526040812080548392906108fd908490610d88565b90915550506040516001600160a01b038316906000907fddf252ad1be2c89b69c2b068fc378daa952ba7f163c4a11628f55a4df523b3ef90610940908590610d71565b60405180910390a3610954600083836109aa565b5050565b600580546001600160a01b038381166001600160a01b0319831681179093556040519116919082907f8be0079c531659141344cd1fd0a4f28419497f9722a3daafe3b4186f6b6457e090600090a35050565b505050565b80356001600160a01b038116811461052857600080fd5b6000602082840312156109d7578081fd5b6109e0826109af565b9392505050565b600080604083850312156109f9578081fd5b610a02836109af565b9150610a10602084016109af565b90509250929050565b600080600060608486031215610a2d578081fd5b610a36846109af565b9250610a44602085016109af565b9150604084013590509250925092565b60008060408385031215610a66578182fd5b610a6f836109af565b946020939093013593505050565b6001600160a01b0391909116815260200190565b901515815260200190565b6000602080835283518082850152825b81811015610ac857858101830151858201604001528201610aac565b81811115610ad95783604083870101525b50601f01601f1916929092016040019392505050565b60208082526023908201527f45524332303a207472616e7366657220746f20746865207a65726f206164647260408201526265737360e81b606082015260800190565b60208082526026908201527f4f776e61626c653a206e6577206f776e657220697320746865207a65726f206160408201526564647265737360d01b606082015260800190565b60208082526022908201527f45524332303a20617070726f766520746f20746865207a65726f206164647265604082015261737360f01b606082015260800190565b60208082526026908201527f45524332303a207472616e7366657220616d6f756e7420657863656564732062604082015265616c616e636560d01b606082015260800190565b6020808252601c908201527f65786365656420746f74616c20737570706c79206f6620746f6b656e00000000604082015260600190565b6020808252818101527f4f776e61626c653a2063616c6c6572206973206e6f7420746865206f776e6572604082015260600190565b60208082526025908201527f45524332303a207472616e736665722066726f6d20746865207a65726f206164604082015264647265737360d81b606082015260800190565b60208082526024908201527f45524332303a20617070726f76652066726f6d20746865207a65726f206164646040820152637265737360e01b606082015260800190565b60208082526025908201527f45524332303a2064656372656173656420616c6c6f77616e63652062656c6f77604082015264207a65726f60d81b606082015260800190565b6020808252601f908201527f45524332303a206d696e7420746f20746865207a65726f206164647265737300604082015260600190565b90815260200190565b60ff91909116815260200190565b60008219821115610d9b57610d9b610df2565b500190565b600082821015610db257610db2610df2565b500390565b600281046001821680610dcb57607f821691505b60208210811415610dec57634e487b7160e01b600052602260045260246000fd5b50919050565b634e487b7160e01b600052601160045260246000fdfea2646970667358221220a4dec4668922f455c24c6b93c71d3b41822524d3731f283c57ed9349f403017c64736f6c63430008010033",
  "linkReferences": {},
  "deployedLinkReferences": {}
}