{
  "_format": "hh-sol-artifact-1",
  "contractName": "HyperbolicAuction",
  "sourceName": "contracts/TokenLaunch/HyperbolicAuction.sol",
  "abi": [
    {
      "anonymous": false,
      "inputs": [
        {
          "indexed": false,
          "internalType": "address",
          "name": "addr",
          "type": "address"
        },
        {
          "indexed": false,
          "internalType": "uint256",
          "name": "commitment",
          "type": "uint256"
        }
      ],
      "name": "AddedCommitment",
      "type": "event"
    },
    {
      "anonymous": false,
      "inputs": [],
      "name": "AuctionCancelled",
      "type": "event"
    },
    {
      "anonymous": false,
      "inputs": [
        {
          "indexed": false,
          "internalType": "address",
          "name": "funder",
          "type": "address"
        },
        {
          "indexed": false,
          "internalType": "address",
          "name": "token",
          "type": "address"
        },
        {
          "indexed": false,
          "internalType": "uint256",
          "name": "totalTokens",
          "type": "uint256"
        },
        {
          "indexed": false,
          "internalType": "address",
          "name": "paymentCurrency",
          "type": "address"
        },
        {
          "indexed": false,
          "internalType": "address",
          "name": "admin",
          "type": "address"
        },
        {
          "indexed": false,
          "internalType": "address",
          "name": "wallet",
          "type": "address"
        }
      ],
      "name": "AuctionDeployed",
      "type": "event"
    },
    {
      "anonymous": false,
      "inputs": [],
      "name": "AuctionFinalized",
      "type": "event"
    },
    {
      "anonymous": false,
      "inputs": [
        {
          "indexed": false,
          "internalType": "address",
          "name": "pointList",
          "type": "address"
        },
        {
          "indexed": false,
          "internalType": "bool",
          "name": "enabled",
          "type": "bool"
        }
      ],
      "name": "AuctionPointListUpdated",
      "type": "event"
    },
    {
      "anonymous": false,
      "inputs": [
        {
          "indexed": false,
          "internalType": "uint256",
          "name": "minimumPrice",
          "type": "uint256"
        }
      ],
      "name": "AuctionPriceUpdated",
      "type": "event"
    },
    {
      "anonymous": false,
      "inputs": [
        {
          "indexed": false,
          "internalType": "uint256",
          "name": "startTime",
          "type": "uint256"
        },
        {
          "indexed": false,
          "internalType": "uint256",
          "name": "endTime",
          "type": "uint256"
        }
      ],
      "name": "AuctionTimeUpdated",
      "type": "event"
    },
    {
      "anonymous": false,
      "inputs": [
        {
          "indexed": false,
          "internalType": "address",
          "name": "wallet",
          "type": "address"
        }
      ],
      "name": "AuctionWalletUpdated",
      "type": "event"
    },
    {
      "anonymous": false,
      "inputs": [
        {
          "indexed": true,
          "internalType": "address",
          "name": "previousOwner",
          "type": "address"
        },
        {
          "indexed": true,
          "internalType": "address",
          "name": "newOwner",
          "type": "address"
        }
      ],
      "name": "OwnershipTransferred",
      "type": "event"
    },
    {
      "anonymous": false,
      "inputs": [
        {
          "indexed": false,
          "internalType": "address",
          "name": "token",
          "type": "address"
        },
        {
          "indexed": false,
          "internalType": "address",
          "name": "to",
          "type": "address"
        },
        {
          "indexed": false,
          "internalType": "uint256",
          "name": "amount",
          "type": "uint256"
        }
      ],
      "name": "TokensWithdrawn",
      "type": "event"
    },
    {
      "inputs": [],
      "name": "auctionEnded",
      "outputs": [
        {
          "internalType": "bool",
          "name": "",
          "type": "bool"
        }
      ],
      "stateMutability": "view",
      "type": "function"
    },
    {
      "inputs": [],
      "name": "auctionSuccessful",
      "outputs": [
        {
          "internalType": "bool",
          "name": "",
          "type": "bool"
        }
      ],
      "stateMutability": "view",
      "type": "function"
    },
    {
      "inputs": [],
      "name": "auctionToken",
      "outputs": [
        {
          "internalType": "address",
          "name": "",
          "type": "address"
        }
      ],
      "stateMutability": "view",
      "type": "function"
    },
    {
      "inputs": [
        {
          "internalType": "uint256",
          "name": "_commitment",
          "type": "uint256"
        }
      ],
      "name": "calculateCommitment",
      "outputs": [
        {
          "internalType": "uint256",
          "name": "",
          "type": "uint256"
        }
      ],
      "stateMutability": "view",
      "type": "function"
    },
    {
      "inputs": [],
      "name": "cancelAuction",
      "outputs": [],
      "stateMutability": "nonpayable",
      "type": "function"
    },
    {
      "inputs": [
        {
          "internalType": "address",
          "name": "",
          "type": "address"
        }
      ],
      "name": "claimed",
      "outputs": [
        {
          "internalType": "uint256",
          "name": "",
          "type": "uint256"
        }
      ],
      "stateMutability": "view",
      "type": "function"
    },
    {
      "inputs": [],
      "name": "clearingPrice",
      "outputs": [
        {
          "internalType": "uint256",
          "name": "",
          "type": "uint256"
        }
      ],
      "stateMutability": "view",
      "type": "function"
    },
    {
      "inputs": [
        {
          "internalType": "address payable",
          "name": "_beneficiary",
          "type": "address"
        },
        {
          "internalType": "bool",
          "name": "readAndAgreedToMarketParticipationAgreement",
          "type": "bool"
        }
      ],
      "name": "commitEth",
      "outputs": [],
      "stateMutability": "payable",
      "type": "function"
    },
    {
      "inputs": [
        {
          "internalType": "uint256",
          "name": "_amount",
          "type": "uint256"
        },
        {
          "internalType": "bool",
          "name": "readAndAgreedToMarketParticipationAgreement",
          "type": "bool"
        }
      ],
      "name": "commitTokens",
      "outputs": [],
      "stateMutability": "nonpayable",
      "type": "function"
    },
    {
      "inputs": [
        {
          "internalType": "address",
          "name": "_from",
          "type": "address"
        },
        {
          "internalType": "uint256",
          "name": "_amount",
          "type": "uint256"
        },
        {
          "internalType": "bool",
          "name": "readAndAgreedToMarketParticipationAgreement",
          "type": "bool"
        }
      ],
      "name": "commitTokensFrom",
      "outputs": [],
      "stateMutability": "nonpayable",
      "type": "function"
    },
    {
      "inputs": [
        {
          "internalType": "address",
          "name": "",
          "type": "address"
        }
      ],
      "name": "commitments",
      "outputs": [
        {
          "internalType": "uint256",
          "name": "",
          "type": "uint256"
        }
      ],
      "stateMutability": "view",
      "type": "function"
    },
    {
      "inputs": [],
      "name": "finalize",
      "outputs": [],
      "stateMutability": "nonpayable",
      "type": "function"
    },
    {
      "inputs": [],
      "name": "finalizeTimeExpired",
      "outputs": [
        {
          "internalType": "bool",
          "name": "",
          "type": "bool"
        }
      ],
      "stateMutability": "view",
      "type": "function"
    },
    {
      "inputs": [],
      "name": "finalized",
      "outputs": [
        {
          "internalType": "bool",
          "name": "",
          "type": "bool"
        }
      ],
      "stateMutability": "view",
      "type": "function"
    },
    {
      "inputs": [
        {
          "internalType": "address",
          "name": "_funder",
          "type": "address"
        },
        {
          "internalType": "address",
          "name": "_token",
          "type": "address"
        },
        {
          "internalType": "uint256",
          "name": "_totalTokens",
          "type": "uint256"
        },
        {
          "internalType": "uint256",
          "name": "_startTime",
          "type": "uint256"
        },
        {
          "internalType": "uint256",
          "name": "_endTime",
          "type": "uint256"
        },
        {
          "internalType": "address",
          "name": "_paymentCurrency",
          "type": "address"
        },
        {
          "internalType": "uint256",
          "name": "_factor",
          "type": "uint256"
        },
        {
          "internalType": "uint256",
          "name": "_minimumPrice",
          "type": "uint256"
        },
        {
          "internalType": "address payable",
          "name": "_wallet",
          "type": "address"
        }
      ],
      "name": "initAuction",
      "outputs": [],
      "stateMutability": "nonpayable",
      "type": "function"
    },
    {
      "inputs": [],
      "name": "marketInfo",
      "outputs": [
        {
          "internalType": "uint256",
          "name": "startTime",
          "type": "uint256"
        },
        {
          "internalType": "uint256",
          "name": "endTime",
          "type": "uint256"
        },
        {
          "internalType": "uint256",
          "name": "totalTokens",
          "type": "uint256"
        }
      ],
      "stateMutability": "view",
      "type": "function"
    },
    {
      "inputs": [],
      "name": "marketParticipationAgreement",
      "outputs": [
        {
          "internalType": "string",
          "name": "",
          "type": "string"
        }
      ],
      "stateMutability": "pure",
      "type": "function"
    },
    {
      "inputs": [],
      "name": "marketPrice",
      "outputs": [
        {
          "internalType": "uint256",
          "name": "minimumPrice",
          "type": "uint256"
        },
        {
          "internalType": "uint256",
          "name": "alpha",
          "type": "uint256"
        }
      ],
      "stateMutability": "view",
      "type": "function"
    },
    {
      "inputs": [],
      "name": "marketStatus",
      "outputs": [
        {
          "internalType": "uint256",
          "name": "commitmentsTotal",
          "type": "uint256"
        },
        {
          "internalType": "bool",
          "name": "finalized",
          "type": "bool"
        },
        {
          "internalType": "bool",
          "name": "usePointList",
          "type": "bool"
        }
      ],
      "stateMutability": "view",
      "type": "function"
    },
    {
      "inputs": [],
      "name": "owner",
      "outputs": [
        {
          "internalType": "address",
          "name": "",
          "type": "address"
        }
      ],
      "stateMutability": "view",
      "type": "function"
    },
    {
      "inputs": [],
      "name": "paymentCurrency",
      "outputs": [
        {
          "internalType": "address",
          "name": "",
          "type": "address"
        }
      ],
      "stateMutability": "view",
      "type": "function"
    },
    {
      "inputs": [],
      "name": "pointList",
      "outputs": [
        {
          "internalType": "address",
          "name": "",
          "type": "address"
        }
      ],
      "stateMutability": "view",
      "type": "function"
    },
    {
      "inputs": [],
      "name": "priceFunction",
      "outputs": [
        {
          "internalType": "uint256",
          "name": "",
          "type": "uint256"
        }
      ],
      "stateMutability": "view",
      "type": "function"
    },
    {
      "inputs": [],
      "name": "renounceOwnership",
      "outputs": [],
      "stateMutability": "nonpayable",
      "type": "function"
    },
    {
      "inputs": [
        {
          "internalType": "uint256",
          "name": "_minimumPrice",
          "type": "uint256"
        }
      ],
      "name": "setAuctionPrice",
      "outputs": [],
      "stateMutability": "nonpayable",
      "type": "function"
    },
    {
      "inputs": [
        {
          "internalType": "uint256",
          "name": "_startTime",
          "type": "uint256"
        },
        {
          "internalType": "uint256",
          "name": "_endTime",
          "type": "uint256"
        }
      ],
      "name": "setAuctionTime",
      "outputs": [],
      "stateMutability": "nonpayable",
      "type": "function"
    },
    {
      "inputs": [
        {
          "internalType": "address payable",
          "name": "_wallet",
          "type": "address"
        }
      ],
      "name": "setAuctionWallet",
      "outputs": [],
      "stateMutability": "nonpayable",
      "type": "function"
    },
    {
      "inputs": [],
      "name": "tokenPrice",
      "outputs": [
        {
          "internalType": "uint256",
          "name": "",
          "type": "uint256"
        }
      ],
      "stateMutability": "view",
      "type": "function"
    },
    {
      "inputs": [
        {
          "internalType": "address",
          "name": "_user",
          "type": "address"
        }
      ],
      "name": "tokensClaimable",
      "outputs": [
        {
          "internalType": "uint256",
          "name": "claimerCommitment",
          "type": "uint256"
        }
      ],
      "stateMutability": "view",
      "type": "function"
    },
    {
      "inputs": [],
      "name": "totalTokensCommitted",
      "outputs": [
        {
          "internalType": "uint256",
          "name": "",
          "type": "uint256"
        }
      ],
      "stateMutability": "view",
      "type": "function"
    },
    {
      "inputs": [
        {
          "internalType": "address",
          "name": "newOwner",
          "type": "address"
        }
      ],
      "name": "transferOwnership",
      "outputs": [],
      "stateMutability": "nonpayable",
      "type": "function"
    },
    {
      "inputs": [],
      "name": "wallet",
      "outputs": [
        {
          "internalType": "address payable",
          "name": "",
          "type": "address"
        }
      ],
      "stateMutability": "view",
      "type": "function"
    },
    {
      "inputs": [
        {
          "internalType": "address payable",
          "name": "beneficiary",
          "type": "address"
        }
      ],
      "name": "withdrawTokens",
      "outputs": [],
      "stateMutability": "nonpayable",
      "type": "function"
    },
    {
      "stateMutability": "payable",
      "type": "receive"
    }
  ],
  "bytecode": "0x608060405234801561001057600080fd5b50600160005561002661002161002b565b61002f565b610081565b3390565b600180546001600160a01b038381166001600160a01b0319831681179093556040519116919082907f8be0079c531659141344cd1fd0a4f28419497f9722a3daafe3b4186f6b6457e090600090a35050565b61253780620000916000396000f3fe6080604052600436106101f25760003560e01c806373973fcb1161010d5780639a87222c116100a0578063dc97e0821161006f578063dc97e0821461050d578063e0e081d71461052d578063e8fcf72314610551578063f04899d314610571578063f2fde38b1461058657610201565b80639a87222c146104a3578063a9d87ee6146104c3578063b3f05b97146104d8578063c884ef83146104ed57610201565b80638da5cb5b116100dc5780638da5cb5b1461044f5780638fa8b79014610464578063919e93b51461047957806399fdb3201461048e57610201565b806373973fcb146103e357806374cf9fc5146104035780637ff9b59614610425578063864333741461043a57610201565b806345a15388116101855780634dc80e15116101545780634dc80e1514610379578063521eb273146103995780636ae260c1146103ae578063715018a6146103ce57610201565b806345a153881461030157806349df728c146103245780634bb278f3146103445780634ce5505f1461035957610201565b806332a0f2d7116101c157806332a0f2d71461028857806336d0054b146102aa5780633b33fe73146102bf5780633d15cc6d146102df57610201565b8063031bee00146102065780631702645514610233578063212f8a8114610255578063297629601461027557610201565b36610201576101ff6105a6565b005b600080fd5b34801561021257600080fd5b5061021b6105c7565b60405161022a939291906122f4565b60405180910390f35b34801561023f57600080fd5b506102486105d3565b60405161022a9190611a09565b34801561026157600080fd5b506101ff6102703660046118c5565b6105ef565b6101ff6102833660046117ff565b61068c565b34801561029457600080fd5b5061029d610773565b60405161022a91906122c5565b3480156102b657600080fd5b506102486107a7565b3480156102cb57600080fd5b506101ff6102da366004611922565b6107c0565b3480156102eb57600080fd5b506102f46108af565b60405161022a91906119b8565b34801561030d57600080fd5b506103166108be565b60405161022a9291906122e6565b34801561033057600080fd5b506101ff61033f3660046117e3565b6108c7565b34801561035057600080fd5b506101ff6109fc565b34801561036557600080fd5b506101ff610374366004611837565b610ba3565b34801561038557600080fd5b5061029d6103943660046117e3565b610e52565b3480156103a557600080fd5b506102f4610f69565b3480156103ba57600080fd5b506101ff6103c9366004611976565b610f78565b3480156103da57600080fd5b506101ff6110d0565b3480156103ef57600080fd5b5061029d6103fe366004611922565b61111b565b34801561040f57600080fd5b50610418611173565b60405161022a9190611a14565b34801561043157600080fd5b5061029d611196565b34801561044657600080fd5b506102486111b5565b34801561045b57600080fd5b506102f46111ce565b34801561047057600080fd5b506101ff6111dd565b34801561048557600080fd5b5061029d6112ed565b34801561049a57600080fd5b506102f461130f565b3480156104af57600080fd5b506101ff6104be3660046117e3565b61131e565b3480156104cf57600080fd5b5061029d6113d9565b3480156104e457600080fd5b50610248611408565b3480156104f957600080fd5b5061029d6105083660046117e3565b611411565b34801561051957600080fd5b506101ff610528366004611952565b611423565b34801561053957600080fd5b50610542611432565b60405161022a939291906122ce565b34801561055d57600080fd5b5061029d61056c3660046117e3565b611447565b34801561057d57600080fd5b506102f4611459565b34801561059257600080fd5b506101ff6105a13660046117e3565b611468565b60405162461bcd60e51b81526004016105be90611c74565b60405180910390fd5b60025460035460045483565b60035460009042906105e89062093a8061230a565b1090505b90565b600260005414156106125760405162461bcd60e51b81526004016105be9061228e565b6002600055600a546001600160a01b031661063f5760405162461bcd60e51b81526004016105be90611efc565b8061064c5761064c6105a6565b60006106578361111b565b9050801561068157600a54610677906001600160a01b03163330846114d9565b6106818482611652565b505060016000555050565b600a546001600160a01b0316156106b55760405162461bcd60e51b81526004016105be90611df5565b806106c2576106c26105a6565b600034116106e25760405162461bcd60e51b81526004016105be90611b14565b60006106ed3461111b565b905060006106fb3483611729565b9050811561070d5761070d8483611652565b801561074b576040516001600160a01b0385169082156108fc029083906000818181858888f19350505050158015610749573d6000803e3d6000fd5b505b60075447101561076d5760405162461bcd60e51b81526004016105be90611cec565b50505050565b600061077d6113d9565b610785611196565b111561079a57610793611196565b90506105ec565b6107a26113d9565b905090565b60006107b1610773565b6107b9611196565b1015905090565b6107c861173c565b6001600160a01b03166107d96111ce565b6001600160a01b0316146107ff5760405162461bcd60e51b81526004016105be906120c0565b6000811161081f5760405162461bcd60e51b81526004016105be906121db565b6007541561083f5760405162461bcd60e51b81526004016105be90612238565b600581905560025460035460009161085691612361565b60055490915060009061086a908390611740565b60068190556040519091507f1fd3f6b4312b53d1521fb9dab5af66131ff5b6141870420ded20e5ffb42f6cf2906108a29085906122c5565b60405180910390a1505050565b600a546001600160a01b031681565b60055460065482565b600260005414156108ea5760405162461bcd60e51b81526004016105be9061228e565b60026000556108f76107a7565b156109a15760085460ff1661091e5760405162461bcd60e51b81526004016105be90611ba8565b600061092982610e52565b90506000811161094b5760405162461bcd60e51b81526004016105be90611f4e565b6001600160a01b0382166000908152600e602052604090205461096e908261174c565b6001600160a01b038084166000908152600e602052604090209190915560095461099b91163084846114d9565b506109f4565b60035442116109c25760405162461bcd60e51b81526004016105be90611da6565b6001600160a01b038082166000908152600d602052604081208054919055600a5490916109f291163084846114d9565b505b506001600055565b60026000541415610a1f5760405162461bcd60e51b81526004016105be9061228e565b6002600055610a2c61173c565b6001600160a01b0316610a3d6111ce565b6001600160a01b031614610a635760405162461bcd60e51b81526004016105be906120c0565b600b546001600160a01b0316331480610a7f5750610a7f6105d3565b610a9b5760405162461bcd60e51b81526004016105be90611c2a565b600454600790600290610ac05760405162461bcd60e51b81526004016105be90611f93565b600182015460ff1615610ae55760405162461bcd60e51b81526004016105be90612028565b610aed6107a7565b15610b1957600a54600b548354610b14926001600160a01b039081169230929116906114d9565b610b61565b80600101544211610b3c5760405162461bcd60e51b81526004016105be90611da6565b600954600b546002830154610b61926001600160a01b039081169230929116906114d9565b6001828101805460ff191690911790556040517f32bebcfd2d04dbae321298091d96d2cb1d07279f59718cd83bd98245b8b82b5a90600090a150506001600055565b6402540be4008510610bc75760405162461bcd60e51b81526004016105be90611fbc565b42861015610be75760405162461bcd60e51b81526004016105be90611e4b565b60008711610c075760405162461bcd60e51b81526004016105be90611ab7565b858511610c265760405162461bcd60e51b81526004016105be90611d49565b60008211610c465760405162461bcd60e51b81526004016105be906121db565b6001600160a01b038116610c6c5760405162461bcd60e51b81526004016105be90611bdd565b6001600160a01b038816610c925760405162461bcd60e51b81526004016105be906120f5565b876001600160a01b031663313ce5676040518163ffffffff1660e01b815260040160206040518083038186803b158015610ccb57600080fd5b505afa158015610cdf573d6000803e3d6000fd5b505050506040513d601f19601f82011682018060405250810190610d039190611997565b60ff16601214610d255760405162461bcd60e51b81526004016105be90612141565b6001600160a01b03841615610dc7576000846001600160a01b031663313ce5676040518163ffffffff1660e01b815260040160206040518083038186803b158015610d6f57600080fd5b505afa158015610d83573d6000803e3d6000fd5b505050506040513d601f19601f82011682018060405250810190610da79190611997565b60ff1611610dc75760405162461bcd60e51b81526004016105be90611a67565b6002869055600385905560048790556005829055600980546001600160a01b03808b166001600160a01b031992831617909255600a8054878416908316179055600b8054928416929091169190911790556000610e248787612361565b90506000610e328285611740565b60068190559050610e458a8c308c6114d9565b5050505050505050505050565b6001600160a01b0381166000908152600d6020526040812054610e7757506000610f64565b6009546040516370a0823160e01b81526000916001600160a01b0316906370a0823190610ea89030906004016119b8565b60206040518083038186803b158015610ec057600080fd5b505afa158015610ed4573d6000803e3d6000fd5b505050506040513d601f19601f82011682018060405250810190610ef8919061193a565b6007546004546001600160a01b0386166000908152600d6020526040902054929350610f2d92610f2791611740565b90611758565b6001600160a01b0384166000908152600e6020526040902054909250610f54908390611729565b915080821115610f62578091505b505b919050565b600b546001600160a01b031681565b610f8061173c565b6001600160a01b0316610f916111ce565b6001600160a01b031614610fb75760405162461bcd60e51b81526004016105be906120c0565b6402540be4008210610fdb5760405162461bcd60e51b81526004016105be90611fbc565b6402540be4008110610fff5760405162461bcd60e51b81526004016105be90611fbc565b4282101561101f5760405162461bcd60e51b81526004016105be90611e4b565b81811161103e5760405162461bcd60e51b81526004016105be90611e9f565b6007541561105e5760405162461bcd60e51b81526004016105be90612238565b6002829055600381905560006110748383612361565b600554909150600090611088908390611740565b60068190556040519091507f5725d1e4352d6944889e54837ffaefde55cdc0b55796b831365d61cd4c87fdb8906110c290869086906122e6565b60405180910390a150505050565b6110d861173c565b6001600160a01b03166110e96111ce565b6001600160a01b03161461110f5760405162461bcd60e51b81526004016105be906120c0565b6111196000611764565b565b60008061113e670de0b6b3a7640000610f27611135610773565b60045490611740565b6007549091508190611150908561174c565b111561116c57600754611164908290611729565b915050610f64565b5090919050565b606060405180610180016040528061015081526020016123b26101509139905090565b6004546007546000916107a291610f2790670de0b6b3a7640000611740565b60006111bf6107a7565b806107a2575050600354421190565b6001546001600160a01b031690565b600260005414156112005760405162461bcd60e51b81526004016105be9061228e565b600260005561120d61173c565b6001600160a01b031661121e6111ce565b6001600160a01b0316146112445760405162461bcd60e51b81526004016105be906120c0565b60085460079060ff161561126a5760405162461bcd60e51b81526004016105be90612028565b8054156112895760405162461bcd60e51b81526004016105be90612074565b600954600b546004546112ac926001600160a01b039081169230929116906114d9565b6001818101805460ff191690911790556040517fa5fb31e47bd1eca58bf14a3312d5e6aeafdc4ee787c8ed348c15c2b092324d9390600090a1506001600055565b60006107a26112fa610773565b600754610f2790670de0b6b3a7640000611740565b6009546001600160a01b031681565b61132661173c565b6001600160a01b03166113376111ce565b6001600160a01b03161461135d5760405162461bcd60e51b81526004016105be906120c0565b6001600160a01b0381166113835760405162461bcd60e51b81526004016105be90611bdd565b600b80546001600160a01b0319166001600160a01b0383161790556040517f34ae2bad9265f0212d4cf341708b8250949164bb54f9d0e4f442024f83bb2f90906113ce9083906119b8565b60405180910390a150565b60025460009042116113ee57506000196105ec565b600354421061140057506005546105ec565b6107a26117b6565b60085460ff1690565b600e6020526000908152604090205481565b61142e3383836105ef565b5050565b60075460085460ff8082169161010090041683565b600d6020526000908152604090205481565b600c546001600160a01b031681565b61147061173c565b6001600160a01b03166114816111ce565b6001600160a01b0316146114a75760405162461bcd60e51b81526004016105be906120c0565b6001600160a01b0381166114cd5760405162461bcd60e51b81526004016105be90611b62565b6114d681611764565b50565b6001600160a01b03841661154857816001600160a01b0316816040516114fe906105ec565b60006040518083038185875af1925050503d806000811461153b576040519150601f19603f3d011682016040523d82523d6000602084013e611540565b606091505b50505061076d565b60405163095ea7b360e01b81526001600160a01b0385169063095ea7b39061157690859085906004016119f0565b602060405180830381600087803b15801561159057600080fd5b505af11580156115a4573d6000803e3d6000fd5b505050506040513d601f19601f820116820180604052508101906115c89190611906565b506040516323b872dd60e01b81526001600160a01b038516906323b872dd906115f9908690869086906004016119cc565b602060405180830381600087803b15801561161357600080fd5b505af1158015611627573d6000803e3d6000fd5b505050506040513d601f19601f8201168201806040525081019061164b9190611906565b5050505050565b600254421080159061166657506003544211155b6116825760405162461bcd60e51b81526004016105be90612193565b60085460079060ff16156116a85760405162461bcd60e51b81526004016105be90612028565b6001600160a01b0383166000908152600d60205260408120546116cb908461174c565b6001600160a01b0385166000908152600d6020526040902081905582549091506116f5908461174c565b82556040517f077511a636ba1f10551cc7b89c13ff66a6ac9344e8a917527817a9690b15af7a906110c290869086906119f0565b60006117358284612361565b9392505050565b3390565b60006117358284612342565b6000611735828461230a565b60006117358284612322565b600180546001600160a01b038381166001600160a01b0319831681179093556040519116919082907f8be0079c531659141344cd1fd0a4f28419497f9722a3daafe3b4186f6b6457e090600090a35050565b60025460009081906117c9904290611729565b6006549091506000906117dc9083611758565b9250505090565b6000602082840312156117f4578081fd5b81356117358161238e565b60008060408385031215611811578081fd5b823561181c8161238e565b9150602083013561182c816123a3565b809150509250929050565b60008060008060008060008060006101208a8c031215611855578485fd5b89356118608161238e565b985060208a01356118708161238e565b975060408a0135965060608a0135955060808a0135945060a08a01356118958161238e565b935060c08a0135925060e08a013591506101008a01356118b48161238e565b809150509295985092959850929598565b6000806000606084860312156118d9578283fd5b83356118e48161238e565b92506020840135915060408401356118fb816123a3565b809150509250925092565b600060208284031215611917578081fd5b8151611735816123a3565b600060208284031215611933578081fd5b5035919050565b60006020828403121561194b578081fd5b5051919050565b60008060408385031215611964578182fd5b82359150602083013561182c816123a3565b60008060408385031215611988578182fd5b50508035926020909101359150565b6000602082840312156119a8578081fd5b815160ff81168114611735578182fd5b6001600160a01b0391909116815260200190565b6001600160a01b039384168152919092166020820152604081019190915260600190565b6001600160a01b03929092168252602082015260400190565b901515815260200190565b6000602080835283518082850152825b81811015611a4057858101830151858201604001528201611a24565b81811115611a515783604083870101525b50601f01601f1916929092016040019392505050565b60208082526030908201527f4879706572626f6c696341756374696f6e3a205061796d656e7420637572726560408201526f06e6379206973206e6f742045524332360841b606082015260800190565b60208082526039908201527f4879706572626f6c696341756374696f6e3a20746f74616c20746f6b656e732060408201527f6d7573742062652067726561746572207468616e207a65726f00000000000000606082015260800190565b6020808252602e908201527f4879706572626f6c696341756374696f6e3a2056616c7565206d75737420626560408201526d020686967686572207468616e20360941b606082015260800190565b60208082526026908201527f4f776e61626c653a206e6577206f776e657220697320746865207a65726f206160408201526564647265737360d01b606082015260800190565b6020808252818101527f4879706572626f6c696341756374696f6e3a206e6f742066696e616c697a6564604082015260600190565b6020808252602d908201527f4879706572626f6c696341756374696f6e3a2077616c6c65742069732074686560408201526c207a65726f206164647265737360981b606082015260800190565b6020808252602a908201527f4879706572626f6c696341756374696f6e3a2073656e646572206d7573742062604082015269329030b71030b236b4b760b11b606082015260800190565b60208082526052908201527f4e6f2061677265656d656e742070726f76696465642c20706c6561736520726560408201527f766965772074686520736d61727420636f6e7472616374206265666f726520696060820152711b9d195c9858dd1a5b99c81dda5d1a081a5d60721b608082015260a00190565b60208082526038908201527f4879706572626f6c696341756374696f6e3a2054686520636f6d6d697474656460408201527f204554482065786365656473207468652062616c616e63650000000000000000606082015260800190565b60208082526039908201527f4879706572626f6c696341756374696f6e3a20656e642074696d65206d75737460408201527f206265206f6c646572207468616e2073746172742074696d6500000000000000606082015260800190565b6020808252602f908201527f4879706572626f6c696341756374696f6e3a2061756374696f6e20686173206e60408201526e1bdd08199a5b9a5cda1959081e595d608a1b606082015260800190565b60208082526036908201527f4879706572626f6c696341756374696f6e3a207061796d656e742063757272656040820152756e6379206973206e6f7420455448206164647265737360501b606082015260800190565b60208082526034908201527f4879706572626f6c696341756374696f6e3a2073746172742074696d65206973604082015273206265666f72652063757272656e742074696d6560601b606082015260800190565b6020808252603a908201527f4879706572626f6c696341756374696f6e3a20656e642074696d65206d75737460408201527f206265206f6c646572207468616e207374617274207072696365000000000000606082015260800190565b60208082526032908201527f4879706572626f6c696341756374696f6e3a207061796d656e742063757272656040820152713731bc9034b9903737ba1030903a37b5b2b760711b606082015260800190565b60208082526025908201527f4879706572626f6c696341756374696f6e3a206e6f20746f6b656e7320746f20604082015264636c61696d60d81b606082015260800190565b6020808252600f908201526e139bdd081a5b9a5d1a585b1a5e9959608a1b604082015260600190565b60208082526046908201527f4879706572626f6c696341756374696f6e3a20656e74657220616e20756e697860408201527f2074696d657374616d7020696e207365636f6e64732c206e6f74206d696c697360608201526565636f6e647360d01b608082015260a00190565b6020808252602c908201527f4879706572626f6c696341756374696f6e3a2061756374696f6e20616c72656160408201526b191e48199a5b985b1a5e995960a21b606082015260800190565b6020808252602c908201527f4879706572626f6c696341756374696f6e3a2061756374696f6e20616c72656160408201526b191e4818dbdb5b5a5d1d195960a21b606082015260800190565b6020808252818101527f4f776e61626c653a2063616c6c6572206973206e6f7420746865206f776e6572604082015260600190565b6020808252602c908201527f4879706572626f6c696341756374696f6e3a20746f6b656e206973207468652060408201526b7a65726f206164647265737360a01b606082015260800190565b60208082526032908201527f4879706572626f6c696341756374696f6e3a20546f6b656e20646f6573206e6f60408201527174206861766520313820646563696d616c7360701b606082015260800190565b60208082526028908201527f4879706572626f6c696341756374696f6e3a206f7574736964652061756374696040820152676f6e20686f75727360c01b606082015260800190565b60208082526037908201527f4879706572626f6c696341756374696f6e3a206d696e696d756d20707269636560408201527f206d7573742062652067726561746572207468616e2030000000000000000000606082015260800190565b60208082526036908201527f4879706572626f6c696341756374696f6e3a2061756374696f6e2063616e6e6f6040820152751d081a185d9948185b1c9958591e481cdd185c9d195960521b606082015260800190565b6020808252601f908201527f5265656e7472616e637947756172643a207265656e7472616e742063616c6c00604082015260600190565b90815260200190565b92835290151560208301521515604082015260600190565b918252602082015260400190565b9283526020830191909152604082015260600190565b6000821982111561231d5761231d612378565b500190565b60008261233d57634e487b7160e01b81526012600452602481fd5b500490565b600081600019048311821515161561235c5761235c612378565b500290565b60008282101561237357612373612378565b500390565b634e487b7160e01b600052601160045260246000fd5b6001600160a01b03811681146114d657600080fd5b80151581146114d657600080fdfe4920756e6465727374616e6420746861742049276d20696e746572616374696e672077697468206120736d61727420636f6e74726163742e204920756e6465727374616e64207468617420746f6b656e7320636f6d6d6974656420617265207375626a65637420746f2074686520746f6b656e2069737375657220616e64206c6f63616c206c617773207768657265206170706c696361626c652e204920726576696577656420636f6465206f662074686520736d61727420636f6e747261637420616e6420756e6465727374616e642069742066756c6c792e204920616772656520746f206e6f7420686f6c6420646576656c6f70657273206f72206f746865722070656f706c65206173736f6369617465642077697468207468652070726f6a656374206c6961626c6520666f7220616e79206c6f73736573206f72206d6973756e6465727374616e64696e6773a2646970667358221220f47db35a7854415e6a3ac441cd3dd765dffc6cb42c19579e19012de3b58ee41164736f6c63430008010033",
  "linkReferences": {},
  "deployedLinkReferences": {}
}