{
  "_format": "hh-sol-artifact-1",
  "contractName": "Crowdsale",
  "sourceName": "contracts/TokenLaunch/Crowdsale.sol",
  "abi": [
    {
      "anonymous": false,
      "inputs": [
        {
          "indexed": false,
          "internalType": "address",
          "name": "addr",
          "type": "address"
        },
        {
          "indexed": false,
          "internalType": "uint256",
          "name": "commitment",
          "type": "uint256"
        }
      ],
      "name": "AddedCommitment",
      "type": "event"
    },
    {
      "anonymous": false,
      "inputs": [],
      "name": "AuctionCancelled",
      "type": "event"
    },
    {
      "anonymous": false,
      "inputs": [
        {
          "indexed": false,
          "internalType": "address",
          "name": "funder",
          "type": "address"
        },
        {
          "indexed": false,
          "internalType": "address",
          "name": "token",
          "type": "address"
        },
        {
          "indexed": false,
          "internalType": "address",
          "name": "paymentCurrency",
          "type": "address"
        },
        {
          "indexed": false,
          "internalType": "uint256",
          "name": "totalTokens",
          "type": "uint256"
        },
        {
          "indexed": false,
          "internalType": "address",
          "name": "admin",
          "type": "address"
        },
        {
          "indexed": false,
          "internalType": "address",
          "name": "wallet",
          "type": "address"
        }
      ],
      "name": "AuctionDeployed",
      "type": "event"
    },
    {
      "anonymous": false,
      "inputs": [],
      "name": "AuctionFinalized",
      "type": "event"
    },
    {
      "anonymous": false,
      "inputs": [
        {
          "indexed": false,
          "internalType": "address",
          "name": "pointList",
          "type": "address"
        },
        {
          "indexed": false,
          "internalType": "bool",
          "name": "enabled",
          "type": "bool"
        }
      ],
      "name": "AuctionPointListUpdated",
      "type": "event"
    },
    {
      "anonymous": false,
      "inputs": [
        {
          "indexed": false,
          "internalType": "uint256",
          "name": "rate",
          "type": "uint256"
        },
        {
          "indexed": false,
          "internalType": "uint256",
          "name": "goal",
          "type": "uint256"
        }
      ],
      "name": "AuctionPriceUpdated",
      "type": "event"
    },
    {
      "anonymous": false,
      "inputs": [
        {
          "indexed": false,
          "internalType": "uint256",
          "name": "startTime",
          "type": "uint256"
        },
        {
          "indexed": false,
          "internalType": "uint256",
          "name": "endTime",
          "type": "uint256"
        }
      ],
      "name": "AuctionTimeUpdated",
      "type": "event"
    },
    {
      "anonymous": false,
      "inputs": [
        {
          "indexed": false,
          "internalType": "address",
          "name": "wallet",
          "type": "address"
        }
      ],
      "name": "AuctionWalletUpdated",
      "type": "event"
    },
    {
      "anonymous": false,
      "inputs": [
        {
          "indexed": true,
          "internalType": "address",
          "name": "previousOwner",
          "type": "address"
        },
        {
          "indexed": true,
          "internalType": "address",
          "name": "newOwner",
          "type": "address"
        }
      ],
      "name": "OwnershipTransferred",
      "type": "event"
    },
    {
      "inputs": [],
      "name": "auctionEnded",
      "outputs": [
        {
          "internalType": "bool",
          "name": "",
          "type": "bool"
        }
      ],
      "stateMutability": "view",
      "type": "function"
    },
    {
      "inputs": [],
      "name": "auctionSuccessful",
      "outputs": [
        {
          "internalType": "bool",
          "name": "",
          "type": "bool"
        }
      ],
      "stateMutability": "view",
      "type": "function"
    },
    {
      "inputs": [],
      "name": "auctionToken",
      "outputs": [
        {
          "internalType": "address",
          "name": "",
          "type": "address"
        }
      ],
      "stateMutability": "view",
      "type": "function"
    },
    {
      "inputs": [
        {
          "internalType": "uint256",
          "name": "_commitment",
          "type": "uint256"
        }
      ],
      "name": "calculateCommitment",
      "outputs": [
        {
          "internalType": "uint256",
          "name": "committed",
          "type": "uint256"
        }
      ],
      "stateMutability": "view",
      "type": "function"
    },
    {
      "inputs": [],
      "name": "cancelAuction",
      "outputs": [],
      "stateMutability": "nonpayable",
      "type": "function"
    },
    {
      "inputs": [
        {
          "internalType": "address",
          "name": "",
          "type": "address"
        }
      ],
      "name": "claimed",
      "outputs": [
        {
          "internalType": "uint256",
          "name": "",
          "type": "uint256"
        }
      ],
      "stateMutability": "view",
      "type": "function"
    },
    {
      "inputs": [
        {
          "internalType": "address payable",
          "name": "_beneficiary",
          "type": "address"
        },
        {
          "internalType": "bool",
          "name": "readAndAgreedToMarketParticipationAgreement",
          "type": "bool"
        }
      ],
      "name": "commitEth",
      "outputs": [],
      "stateMutability": "payable",
      "type": "function"
    },
    {
      "inputs": [
        {
          "internalType": "uint256",
          "name": "_amount",
          "type": "uint256"
        },
        {
          "internalType": "bool",
          "name": "readAndAgreedToMarketParticipationAgreement",
          "type": "bool"
        }
      ],
      "name": "commitTokens",
      "outputs": [],
      "stateMutability": "nonpayable",
      "type": "function"
    },
    {
      "inputs": [
        {
          "internalType": "address",
          "name": "_from",
          "type": "address"
        },
        {
          "internalType": "uint256",
          "name": "_amount",
          "type": "uint256"
        },
        {
          "internalType": "bool",
          "name": "readAndAgreedToMarketParticipationAgreement",
          "type": "bool"
        }
      ],
      "name": "commitTokensFrom",
      "outputs": [],
      "stateMutability": "nonpayable",
      "type": "function"
    },
    {
      "inputs": [
        {
          "internalType": "address",
          "name": "",
          "type": "address"
        }
      ],
      "name": "commitments",
      "outputs": [
        {
          "internalType": "uint256",
          "name": "",
          "type": "uint256"
        }
      ],
      "stateMutability": "view",
      "type": "function"
    },
    {
      "inputs": [],
      "name": "finalize",
      "outputs": [],
      "stateMutability": "nonpayable",
      "type": "function"
    },
    {
      "inputs": [],
      "name": "finalizeTimeExpired",
      "outputs": [
        {
          "internalType": "bool",
          "name": "",
          "type": "bool"
        }
      ],
      "stateMutability": "view",
      "type": "function"
    },
    {
      "inputs": [],
      "name": "finalized",
      "outputs": [
        {
          "internalType": "bool",
          "name": "",
          "type": "bool"
        }
      ],
      "stateMutability": "view",
      "type": "function"
    },
    {
      "inputs": [
        {
          "internalType": "uint256",
          "name": "_amount",
          "type": "uint256"
        }
      ],
      "name": "getTokenAmount",
      "outputs": [
        {
          "internalType": "uint256",
          "name": "",
          "type": "uint256"
        }
      ],
      "stateMutability": "view",
      "type": "function"
    },
    {
      "inputs": [
        {
          "internalType": "address",
          "name": "_funder",
          "type": "address"
        },
        {
          "internalType": "address",
          "name": "_token",
          "type": "address"
        },
        {
          "internalType": "address",
          "name": "_paymentCurrency",
          "type": "address"
        },
        {
          "internalType": "uint256",
          "name": "_totalTokens",
          "type": "uint256"
        },
        {
          "internalType": "uint256",
          "name": "_startTime",
          "type": "uint256"
        },
        {
          "internalType": "uint256",
          "name": "_endTime",
          "type": "uint256"
        },
        {
          "internalType": "uint256",
          "name": "_rate",
          "type": "uint256"
        },
        {
          "internalType": "uint256",
          "name": "_goal",
          "type": "uint256"
        },
        {
          "internalType": "address",
          "name": "_admin",
          "type": "address"
        },
        {
          "internalType": "address payable",
          "name": "_wallet",
          "type": "address"
        }
      ],
      "name": "initCrowdsale",
      "outputs": [],
      "stateMutability": "nonpayable",
      "type": "function"
    },
    {
      "inputs": [],
      "name": "isOpen",
      "outputs": [
        {
          "internalType": "bool",
          "name": "",
          "type": "bool"
        }
      ],
      "stateMutability": "view",
      "type": "function"
    },
    {
      "inputs": [],
      "name": "marketInfo",
      "outputs": [
        {
          "internalType": "uint256",
          "name": "startTime",
          "type": "uint256"
        },
        {
          "internalType": "uint256",
          "name": "endTime",
          "type": "uint256"
        },
        {
          "internalType": "uint256",
          "name": "totalTokens",
          "type": "uint256"
        }
      ],
      "stateMutability": "view",
      "type": "function"
    },
    {
      "inputs": [],
      "name": "marketParticipationAgreement",
      "outputs": [
        {
          "internalType": "string",
          "name": "",
          "type": "string"
        }
      ],
      "stateMutability": "pure",
      "type": "function"
    },
    {
      "inputs": [],
      "name": "marketPrice",
      "outputs": [
        {
          "internalType": "uint256",
          "name": "rate",
          "type": "uint256"
        },
        {
          "internalType": "uint256",
          "name": "goal",
          "type": "uint256"
        }
      ],
      "stateMutability": "view",
      "type": "function"
    },
    {
      "inputs": [],
      "name": "marketStatus",
      "outputs": [
        {
          "internalType": "uint256",
          "name": "commitmentsTotal",
          "type": "uint256"
        },
        {
          "internalType": "bool",
          "name": "finalized",
          "type": "bool"
        },
        {
          "internalType": "bool",
          "name": "usePointList",
          "type": "bool"
        }
      ],
      "stateMutability": "view",
      "type": "function"
    },
    {
      "inputs": [],
      "name": "owner",
      "outputs": [
        {
          "internalType": "address",
          "name": "",
          "type": "address"
        }
      ],
      "stateMutability": "view",
      "type": "function"
    },
    {
      "inputs": [],
      "name": "paymentCurrency",
      "outputs": [
        {
          "internalType": "address",
          "name": "",
          "type": "address"
        }
      ],
      "stateMutability": "view",
      "type": "function"
    },
    {
      "inputs": [],
      "name": "pointList",
      "outputs": [
        {
          "internalType": "address",
          "name": "",
          "type": "address"
        }
      ],
      "stateMutability": "view",
      "type": "function"
    },
    {
      "inputs": [],
      "name": "renounceOwnership",
      "outputs": [],
      "stateMutability": "nonpayable",
      "type": "function"
    },
    {
      "inputs": [
        {
          "internalType": "uint256",
          "name": "_rate",
          "type": "uint256"
        },
        {
          "internalType": "uint256",
          "name": "_goal",
          "type": "uint256"
        }
      ],
      "name": "setAuctionPrice",
      "outputs": [],
      "stateMutability": "nonpayable",
      "type": "function"
    },
    {
      "inputs": [
        {
          "internalType": "uint256",
          "name": "_startTime",
          "type": "uint256"
        },
        {
          "internalType": "uint256",
          "name": "_endTime",
          "type": "uint256"
        }
      ],
      "name": "setAuctionTime",
      "outputs": [],
      "stateMutability": "nonpayable",
      "type": "function"
    },
    {
      "inputs": [
        {
          "internalType": "address payable",
          "name": "_wallet",
          "type": "address"
        }
      ],
      "name": "setAuctionWallet",
      "outputs": [],
      "stateMutability": "nonpayable",
      "type": "function"
    },
    {
      "inputs": [],
      "name": "tokenPrice",
      "outputs": [
        {
          "internalType": "uint256",
          "name": "",
          "type": "uint256"
        }
      ],
      "stateMutability": "view",
      "type": "function"
    },
    {
      "inputs": [
        {
          "internalType": "address",
          "name": "_user",
          "type": "address"
        }
      ],
      "name": "tokensClaimable",
      "outputs": [
        {
          "internalType": "uint256",
          "name": "claimerCommitment",
          "type": "uint256"
        }
      ],
      "stateMutability": "view",
      "type": "function"
    },
    {
      "inputs": [
        {
          "internalType": "address",
          "name": "newOwner",
          "type": "address"
        }
      ],
      "name": "transferOwnership",
      "outputs": [],
      "stateMutability": "nonpayable",
      "type": "function"
    },
    {
      "inputs": [],
      "name": "wallet",
      "outputs": [
        {
          "internalType": "address payable",
          "name": "",
          "type": "address"
        }
      ],
      "stateMutability": "view",
      "type": "function"
    },
    {
      "inputs": [
        {
          "internalType": "address payable",
          "name": "beneficiary",
          "type": "address"
        }
      ],
      "name": "withdrawTokens",
      "outputs": [],
      "stateMutability": "nonpayable",
      "type": "function"
    },
    {
      "stateMutability": "payable",
      "type": "receive"
    }
  ],
  "bytecode": "0x60806040523480156200001157600080fd5b5060016000556200002b6200002562000031565b62000035565b62000087565b3390565b600180546001600160a01b038381166001600160a01b0319831681179093556040519116919082907f8be0079c531659141344cd1fd0a4f28419497f9722a3daafe3b4186f6b6457e090600090a35050565b6126ac80620000976000396000f3fe6080604052600436106101e75760003560e01c806374cf9fc511610102578063b3f05b9711610095578063e0e081d711610064578063e0e081d714610518578063e8fcf7231461053c578063f04899d31461055c578063f2fde38b14610571576101f6565b8063b3f05b97146104a3578063c2507ac1146104b8578063c884ef83146104d8578063dc97e082146104f8576101f6565b80638fa8b790116100d15780638fa8b7901461043957806392f21a461461044e57806399fdb3201461046e5780639a87222c14610483576101f6565b806374cf9fc5146103d85780637ff9b596146103fa578063864333741461040f5780638da5cb5b14610424576101f6565b806347535d7b1161017a578063521eb27311610149578063521eb2731461036e5780636ae260c114610383578063715018a6146103a357806373973fcb146103b8576101f6565b806347535d7b146102f757806349df728c1461030c5780634bb278f31461032c5780634dc80e1514610341576101f6565b806329762960116101b6578063297629601461028a57806336d0054b1461029d5780633d15cc6d146102b257806345a15388146102d4576101f6565b8063031bee00146101fb5780631702645514610228578063212f8a811461024a57806324e4025b1461026a576101f6565b366101f6576101f4610591565b005b600080fd5b34801561020757600080fd5b506102106105b2565b60405161021f93929190612354565b60405180910390f35b34801561023457600080fd5b5061023d6105be565b60405161021f9190611ab5565b34801561025657600080fd5b506101f4610265366004611934565b6105d9565b34801561027657600080fd5b506101f46102853660046119e5565b610676565b6101f461029836600461185a565b610786565b3480156102a957600080fd5b5061023d61086f565b3480156102be57600080fd5b506102c761087a565b60405161021f9190611a2a565b3480156102e057600080fd5b506102e9610889565b60405161021f929190612346565b34801561030357600080fd5b5061023d610892565b34801561031857600080fd5b506101f461032736600461183e565b6108ae565b34801561033857600080fd5b506101f46109eb565b34801561034d57600080fd5b5061036161035c36600461183e565b610ba5565b60405161021f9190612325565b34801561037a57600080fd5b506102c7610c8a565b34801561038f57600080fd5b506101f461039e3660046119e5565b610c99565b3480156103af57600080fd5b506101f4610dbb565b3480156103c457600080fd5b506103616103d3366004611991565b610e06565b3480156103e457600080fd5b506103ed610e64565b60405161021f9190611ac0565b34801561040657600080fd5b50610361610e87565b34801561041b57600080fd5b5061023d610e8d565b34801561043057600080fd5b506102c7610ebc565b34801561044557600080fd5b506101f4610ecb565b34801561045a57600080fd5b506101f4610469366004611892565b610fdb565b34801561047a57600080fd5b506102c7611341565b34801561048f57600080fd5b506101f461049e36600461183e565b611350565b3480156104af57600080fd5b5061023d61140b565b3480156104c457600080fd5b506103616104d3366004611991565b611414565b3480156104e457600080fd5b506103616104f336600461183e565b611425565b34801561050457600080fd5b506101f46105133660046119c1565b611437565b34801561052457600080fd5b5061052d611446565b60405161021f9392919061232e565b34801561054857600080fd5b5061036161055736600461183e565b61145b565b34801561056857600080fd5b506102c761146d565b34801561057d57600080fd5b506101f461058c36600461183e565b61147c565b60405162461bcd60e51b81526004016105a990611ba5565b60405180910390fd5b60045460055460065483565b60055460009042906105d39062093a8061236a565b10905090565b600260005414156105fc5760405162461bcd60e51b81526004016105a990612234565b6002600055600b546001600160a01b03166106295760405162461bcd60e51b81526004016105a9906122db565b8061063657610636610591565b600061064183610e06565b9050801561066b57600b54610661906001600160a01b03163033846114ed565b61066b8482611667565b505060016000555050565b61067e611770565b6001600160a01b031661068f610ebc565b6001600160a01b0316146106b55760405162461bcd60e51b81526004016105a990611e2f565b600081116106d55760405162461bcd60e51b81526004016105a9906122ad565b600082116106f55760405162461bcd60e51b81526004016105a990611d67565b600754156107155760405162461bcd60e51b81526004016105a990611cb9565b6002829055600381905560065461072b82611774565b11156107495760405162461bcd60e51b81526004016105a9906120da565b7f622a57040c34e45abc5fadeb22e4c3c687cf48a096c86694cd21a7be9e7851ee828260405161077a929190612346565b60405180910390a15050565b600260005414156107a95760405162461bcd60e51b81526004016105a990612234565b6002600055600b546001600160a01b0316156107d75760405162461bcd60e51b81526004016105a990611faa565b806107e4576107e4610591565b60006107ef34610e06565b905060006107fd348361179a565b9050811561080f5761080f8483611667565b801561084d576040516001600160a01b0385169082156108fc029083906000818181858888f1935050505015801561084b573d6000803e3d6000fd5b505b60075447101561066b5760405162461bcd60e51b81526004016105a990611c69565b600354600754101590565b600b546001600160a01b031681565b60025460035482565b60045460009042108015906108a957506005544211155b905090565b600260005414156108d15760405162461bcd60e51b81526004016105a990612234565b60026000556108de61086f565b156109905760085460ff166109055760405162461bcd60e51b81526004016105a9906120a3565b600061091082610ba5565b9050600081116109325760405162461bcd60e51b81526004016105a9906121fd565b6001600160a01b0382166000908152600e602052604090205461095590826117ad565b6001600160a01b038084166000908152600e602052604090209190915560095461098a9116308461098581610ba5565b6114ed565b506109e3565b60055442116109b15760405162461bcd60e51b81526004016105a99061205c565b6001600160a01b038082166000908152600d602052604081208054919055600b5490916109e191163084846114ed565b505b506001600055565b60026000541415610a0e5760405162461bcd60e51b81526004016105a990612234565b6002600055600a546001600160a01b0316331480610a2f5750610a2f6105be565b610a4b5760405162461bcd60e51b81526004016105a99061226b565b60085460079060ff1615610a715760405162461bcd60e51b81526004016105a990611d07565b600654600490610a935760405162461bcd60e51b81526004016105a990611d3e565b610a9b610e8d565b610ab75760405162461bcd60e51b81526004016105a990611ff0565b610abf61086f565b15610b3e57600b54600a548354610ae6926001600160a01b039081169230929116906114ed565b6000610af58360000154611774565b90506000610b1082846002015461179a90919063ffffffff16565b90508015610b3757600954600a54610b37916001600160a01b0390811691309116846114ed565b5050610b63565b600954600a546002830154610b63926001600160a01b039081169230929116906114ed565b6001828101805460ff191690911790556040517f32bebcfd2d04dbae321298091d96d2cb1d07279f59718cd83bd98245b8b82b5a90600090a150506001600055565b6009546040516370a0823160e01b815260009182916001600160a01b03909116906370a0823190610bda903090600401611a2a565b60206040518083038186803b158015610bf257600080fd5b505afa158015610c06573d6000803e3d6000fd5b505050506040513d601f19601f82011682018060405250810190610c2a91906119a9565b6001600160a01b0384166000908152600d6020526040902054909150610c4f90611774565b6001600160a01b0384166000908152600e6020526040902054909250610c7690839061179a565b915080821115610c84578091505b50919050565b600a546001600160a01b031681565b610ca1611770565b6001600160a01b0316610cb2610ebc565b6001600160a01b031614610cd85760405162461bcd60e51b81526004016105a990611e2f565b6402540be4008210610cfc5760405162461bcd60e51b81526004016105a9906121a0565b6402540be4008110610d205760405162461bcd60e51b81526004016105a9906121a0565b42821015610d405760405162461bcd60e51b81526004016105a990611b13565b818111610d5f5760405162461bcd60e51b81526004016105a990611ddd565b60075415610d7f5760405162461bcd60e51b81526004016105a990611cb9565b600482905560058190556040517f5725d1e4352d6944889e54837ffaefde55cdc0b55796b831365d61cd4c87fdb89061077a9084908490612346565b610dc3611770565b6001600160a01b0316610dd4610ebc565b6001600160a01b031614610dfa5760405162461bcd60e51b81526004016105a990611e2f565b610e0460006117b9565b565b600080610e1283611774565b90506000610e24600760000154611774565b600654909150610e3482846117ad565b1115610e5957600654610e5090610e4b908361179a565b61180b565b92505050610e5f565b83925050505b919050565b606060405180610180016040528061015181526020016125266101519139905090565b60025490565b6005546000904211806108a95750600654600754610eb590610eb090600161236a565b611774565b1015905090565b6001546001600160a01b031690565b60026000541415610eee5760405162461bcd60e51b81526004016105a990612234565b6002600055610efb611770565b6001600160a01b0316610f0c610ebc565b6001600160a01b031614610f325760405162461bcd60e51b81526004016105a990611e2f565b60085460079060ff1615610f585760405162461bcd60e51b81526004016105a990611d07565b805415610f775760405162461bcd60e51b81526004016105a990611eae565b600954600a54600654610f9a926001600160a01b039081169230929116906114ed565b6001818101805460ff191690911790556040517fa5fb31e47bd1eca58bf14a3312d5e6aeafdc4ee787c8ed348c15c2b092324d9390600090a1506001600055565b6402540be4008510610fff5760405162461bcd60e51b81526004016105a9906121a0565b4286101561101f5760405162461bcd60e51b81526004016105a990611b13565b85851161103e5760405162461bcd60e51b81526004016105a990611c1d565b6000841161105e5760405162461bcd60e51b81526004016105a990611d67565b6001600160a01b0381166110845760405162461bcd60e51b81526004016105a99061215b565b6001600160a01b0382166110aa5760405162461bcd60e51b81526004016105a990611f1c565b600087116110ca5760405162461bcd60e51b81526004016105a990612124565b600083116110ea5760405162461bcd60e51b81526004016105a9906122ad565b6012896001600160a01b031663313ce5676040518163ffffffff1660e01b815260040160206040518083038186803b15801561112557600080fd5b505afa158015611139573d6000803e3d6000fd5b505050506040513d601f19601f8201168201806040525081019061115d9190611a06565b60ff161461117d5760405162461bcd60e51b81526004016105a990611e64565b6001600160a01b0388161561121f576000886001600160a01b031663313ce5676040518163ffffffff1660e01b815260040160206040518083038186803b1580156111c757600080fd5b505afa1580156111db573d6000803e3d6000fd5b505050506040513d601f19601f820116820180604052508101906111ff9190611a06565b60ff161161121f5760405162461bcd60e51b81526004016105a990611d95565b60028490556003839055600486905560058590556006879055600980546001600160a01b03808c166001600160a01b03199283161792839055600b80548c8316908416179055600a805485831693169290921790915561128291168b308a6114ed565b7fb7f7543bafad6f9c480fdd8aa26ed698d8364818c018dcbdb7cd8b41e12036ec8a8a8a8a86866040516112bb96959493929190611a3e565b60405180910390a17f5725d1e4352d6944889e54837ffaefde55cdc0b55796b831365d61cd4c87fdb886866040516112f4929190612346565b60405180910390a17f622a57040c34e45abc5fadeb22e4c3c687cf48a096c86694cd21a7be9e7851ee848460405161132d929190612346565b60405180910390a150505050505050505050565b6009546001600160a01b031681565b611358611770565b6001600160a01b0316611369610ebc565b6001600160a01b03161461138f5760405162461bcd60e51b81526004016105a990611e2f565b6001600160a01b0381166113b55760405162461bcd60e51b81526004016105a99061215b565b600a80546001600160a01b0319166001600160a01b0383161790556040517f34ae2bad9265f0212d4cf341708b8250949164bb54f9d0e4f442024f83bb2f9090611400908390611a2a565b60405180910390a150565b60085460ff1690565b600061141f82611774565b92915050565b600e6020526000908152604090205481565b6114423383836105d9565b5050565b60075460085460ff8082169161010090041683565b600d6020526000908152604090205481565b600c546001600160a01b031681565b611484611770565b6001600160a01b0316611495610ebc565b6001600160a01b0316146114bb5760405162461bcd60e51b81526004016105a990611e2f565b6001600160a01b0381166114e15760405162461bcd60e51b81526004016105a990611b5f565b6114ea816117b9565b50565b6001600160a01b03841661155c57816001600160a01b03168160405161151290611a27565b60006040518083038185875af1925050503d806000811461154f576040519150601f19603f3d011682016040523d82523d6000602084013e611554565b606091505b505050611661565b60405163095ea7b360e01b81526001600160a01b0385169063095ea7b39061158a9085908590600401611a9c565b602060405180830381600087803b1580156115a457600080fd5b505af11580156115b8573d6000803e3d6000fd5b505050506040513d601f19601f820116820180604052508101906115dc9190611975565b506040516323b872dd60e01b81526001600160a01b038516906323b872dd9061160d90869086908690600401611a78565b602060405180830381600087803b15801561162757600080fd5b505af115801561163b573d6000803e3d6000fd5b505050506040513d601f19601f8201168201806040525081019061165f9190611975565b505b50505050565b600454421080159061167b57506005544211155b6116975760405162461bcd60e51b81526004016105a990612027565b6001600160a01b0382166116bd5760405162461bcd60e51b81526004016105a990611f60565b60085460ff16156116e05760405162461bcd60e51b81526004016105a990611ee5565b6001600160a01b0382166000908152600d602052604081205461170390836117ad565b6001600160a01b0384166000908152600d6020526040902081905560075490915061172e90836117ad565b6007556040517f077511a636ba1f10551cc7b89c13ff66a6ac9344e8a917527817a9690b15af7a906117639085908590611a9c565b60405180910390a1505050565b3390565b60025460009061141f9061179461178d6012600a6123e8565b8590611826565b90611832565b60006117a682846124d5565b9392505050565b60006117a6828461236a565b600180546001600160a01b038381166001600160a01b0319831681179093556040519116919082907f8be0079c531659141344cd1fd0a4f28419497f9722a3daafe3b4186f6b6457e090600090a35050565b600061141f61181c6012600a6123e8565b6002546117949085905b60006117a682846124b6565b60006117a68284612382565b60006020828403121561184f578081fd5b81356117a681612502565b6000806040838503121561186c578081fd5b823561187781612502565b9150602083013561188781612517565b809150509250929050565b6000806000806000806000806000806101408b8d0312156118b1578586fd5b8a356118bc81612502565b995060208b01356118cc81612502565b985060408b01356118dc81612502565b975060608b0135965060808b0135955060a08b0135945060c08b0135935060e08b013592506101008b013561191081612502565b91506101208b013561192181612502565b809150509295989b9194979a5092959850565b600080600060608486031215611948578283fd5b833561195381612502565b925060208401359150604084013561196a81612517565b809150509250925092565b600060208284031215611986578081fd5b81516117a681612517565b6000602082840312156119a2578081fd5b5035919050565b6000602082840312156119ba578081fd5b5051919050565b600080604083850312156119d3578182fd5b82359150602083013561188781612517565b600080604083850312156119f7578182fd5b50508035926020909101359150565b600060208284031215611a17578081fd5b815160ff811681146117a6578182fd5b90565b6001600160a01b0391909116815260200190565b6001600160a01b0396871681529486166020860152928516604085015260608401919091528316608083015290911660a082015260c00190565b6001600160a01b039384168152919092166020820152604081019190915260600190565b6001600160a01b03929092168252602082015260400190565b901515815260200190565b6000602080835283518082850152825b81811015611aec57858101830151858201604001528201611ad0565b81811115611afd5783604083870101525b50601f01601f1916929092016040019392505050565b6020808252602c908201527f43726f776473616c653a2073746172742074696d65206973206265666f72652060408201526b63757272656e742074696d6560a01b606082015260800190565b60208082526026908201527f4f776e61626c653a206e6577206f776e657220697320746865207a65726f206160408201526564647265737360d01b606082015260800190565b60208082526052908201527f4e6f2061677265656d656e742070726f76696465642c20706c6561736520726560408201527f766965772074686520736d61727420636f6e7472616374206265666f726520696060820152711b9d195c9858dd1a5b99c81dda5d1a081a5d60721b608082015260a00190565b6020808252602c908201527f43726f776473616c653a2073746172742074696d65206973206e6f742062656660408201526b6f726520656e642074696d6560a01b606082015260800190565b60208082526030908201527f43726f776453616c653a2054686520636f6d6d6974746564204554482065786360408201526f65656473207468652062616c616e636560801b606082015260800190565b6020808252602e908201527f43726f776473616c653a2061756374696f6e2063616e6e6f742068617665206160408201526d1b1c9958591e481cdd185c9d195960921b606082015260800190565b6020808252601c908201527f43726f776473616c653a20616c72656164792066696e616c697a656400000000604082015260600190565b6020808252600f908201526e139bdd081a5b9a5d1a585b1a5e9959608a1b604082015260600190565b602080825260149082015273043726f776473616c653a207261746520697320360641b604082015260600190565b60208082526028908201527f43726f776473616c653a205061796d656e742063757272656e6379206973206e60408201526706f742045524332360c41b606082015260800190565b60208082526032908201527f43726f776473616c653a20656e642074696d65206d757374206265206f6c646560408201527172207468616e20737461727420707269636560701b606082015260800190565b6020808252818101527f4f776e61626c653a2063616c6c6572206973206e6f7420746865206f776e6572604082015260600190565b6020808252602a908201527f43726f776473616c653a20546f6b656e20646f6573206e6f74206861766520316040820152693820646563696d616c7360b01b606082015260800190565b6020808252601f908201527f43726f776473616c653a2046756e647320616c72656164792072616973656400604082015260600190565b6020808252601f908201527f43726f776453616c653a2041756374696f6e2069732066696e616c697a656400604082015260600190565b60208082526024908201527f43726f776473616c653a2061646d696e20697320746865207a65726f206164646040820152637265737360e01b606082015260800190565b6020808252602a908201527f43726f776473616c653a2062656e656669636961727920697320746865207a65604082015269726f206164647265737360b01b606082015260800190565b60208082526026908201527f43726f776473616c653a205061796d656e742063757272656e6379206973206e6040820152650dee8408aa8960d31b606082015260800190565b6020808252601f908201527f43726f776473616c653a20486173206e6f742066696e69736865642079657400604082015260600190565b6020808252818101527f43726f776473616c653a206f7574736964652061756374696f6e20686f757273604082015260600190565b60208082526027908201527f43726f776473616c653a2061756374696f6e20686173206e6f742066696e69736040820152661a1959081e595d60ca1b606082015260800190565b60208082526018908201527f43726f776473616c653a206e6f742066696e616c697a65640000000000000000604082015260600190565b6020808252602a908201527f43726f776473616c653a206d696e696d756d20746172676574206578636565646040820152690732068617264206361760b41b606082015260800190565b6020808252601c908201527f43726f776473616c653a20746f74616c20746f6b656e73206973203000000000604082015260600190565b60208082526025908201527f43726f776473616c653a2077616c6c657420697320746865207a65726f206164604082015264647265737360d81b606082015260800190565b6020808252603e908201527f43726f776473616c653a20656e74657220616e20756e69782074696d6573746160408201527f6d7020696e207365636f6e64732c206e6f74206d696c697365636f6e64730000606082015260800190565b6020808252601d908201527f43726f776473616c653a206e6f20746f6b656e7320746f20636c61696d000000604082015260600190565b6020808252601f908201527f5265656e7472616e637947756172643a207265656e7472616e742063616c6c00604082015260600190565b60208082526022908201527f43726f776473616c653a2073656e646572206d75737420626520616e2061646d60408201526134b760f11b606082015260800190565b602080825260149082015273043726f776473616c653a20676f616c20697320360641b604082015260600190565b6020808252602a908201527f43726f776473616c653a205061796d656e742063757272656e6379206973206e60408201526937ba1030903a37b5b2b760b11b606082015260800190565b90815260200190565b92835290151560208301521515604082015260600190565b918252602082015260400190565b9283526020830191909152604082015260600190565b6000821982111561237d5761237d6124ec565b500190565b60008261239d57634e487b7160e01b81526012600452602481fd5b500490565b80825b60018086116123b457506123df565b8187048211156123c6576123c66124ec565b808616156123d357918102915b9490941c9380026123a5565b94509492505050565b60006117a66000198484600082612401575060016117a6565b8161240e575060006117a6565b8160018114612424576002811461242e5761245b565b60019150506117a6565b60ff84111561243f5761243f6124ec565b6001841b915084821115612455576124556124ec565b506117a6565b5060208310610133831016604e8410600b841016171561248e575081810a83811115612489576124896124ec565b6117a6565b61249b84848460016123a2565b8086048211156124ad576124ad6124ec565b02949350505050565b60008160001904831182151516156124d0576124d06124ec565b500290565b6000828210156124e7576124e76124ec565b500390565b634e487b7160e01b600052601160045260246000fd5b6001600160a01b03811681146114ea57600080fd5b80151581146114ea57600080fdfe4920756e6465727374616e642074686174204920616d20696e746572616374696e672077697468206120736d61727420636f6e74726163742e204920756e6465727374616e64207468617420746f6b656e7320636f6d6d6974656420617265207375626a65637420746f2074686520746f6b656e2069737375657220616e64206c6f63616c206c617773207768657265206170706c696361626c652e204920726576696577656420636f6465206f662074686520736d61727420636f6e747261637420616e6420756e6465727374616e642069742066756c6c792e204920616772656520746f206e6f7420686f6c6420646576656c6f70657273206f72206f746865722070656f706c65206173736f6369617465642077697468207468652070726f6a656374206c6961626c6520666f7220616e79206c6f73736573206f72206d6973756e6465727374616e64696e6773a2646970667358221220153984c8e7643914cca3cc98261e4030004ebf959275c3ff0cad8517eb4f8e9f64736f6c63430008010033",
  "linkReferences": {},
  "deployedLinkReferences": {}
}