{
  "_format": "hh-sol-artifact-1",
  "contractName": "NFT",
  "sourceName": "contracts/NFT721/NFT.sol",
  "abi": [
    {
      "inputs": [],
      "stateMutability": "nonpayable",
      "type": "constructor"
    },
    {
      "anonymous": false,
      "inputs": [
        {
          "indexed": true,
          "internalType": "address",
          "name": "owner",
          "type": "address"
        },
        {
          "indexed": true,
          "internalType": "address",
          "name": "approved",
          "type": "address"
        },
        {
          "indexed": true,
          "internalType": "uint256",
          "name": "tokenId",
          "type": "uint256"
        }
      ],
      "name": "Approval",
      "type": "event"
    },
    {
      "anonymous": false,
      "inputs": [
        {
          "indexed": true,
          "internalType": "address",
          "name": "owner",
          "type": "address"
        },
        {
          "indexed": true,
          "internalType": "address",
          "name": "operator",
          "type": "address"
        },
        {
          "indexed": false,
          "internalType": "bool",
          "name": "approved",
          "type": "bool"
        }
      ],
      "name": "ApprovalForAll",
      "type": "event"
    },
    {
      "anonymous": false,
      "inputs": [
        {
          "indexed": true,
          "internalType": "address",
          "name": "from",
          "type": "address"
        },
        {
          "indexed": true,
          "internalType": "address",
          "name": "to",
          "type": "address"
        },
        {
          "indexed": true,
          "internalType": "uint256",
          "name": "tokenId",
          "type": "uint256"
        }
      ],
      "name": "Transfer",
      "type": "event"
    },
    {
      "inputs": [
        {
          "internalType": "address",
          "name": "to",
          "type": "address"
        },
        {
          "internalType": "uint256",
          "name": "tokenId",
          "type": "uint256"
        }
      ],
      "name": "approve",
      "outputs": [],
      "stateMutability": "nonpayable",
      "type": "function"
    },
    {
      "inputs": [
        {
          "internalType": "address",
          "name": "owner",
          "type": "address"
        }
      ],
      "name": "balanceOf",
      "outputs": [
        {
          "internalType": "uint256",
          "name": "",
          "type": "uint256"
        }
      ],
      "stateMutability": "view",
      "type": "function"
    },
    {
      "inputs": [
        {
          "internalType": "address",
          "name": "to",
          "type": "address"
        },
        {
          "internalType": "string",
          "name": "tokenURI",
          "type": "string"
        }
      ],
      "name": "create",
      "outputs": [
        {
          "internalType": "uint256",
          "name": "",
          "type": "uint256"
        }
      ],
      "stateMutability": "nonpayable",
      "type": "function"
    },
    {
      "inputs": [
        {
          "internalType": "uint256",
          "name": "tokenId",
          "type": "uint256"
        }
      ],
      "name": "getApproved",
      "outputs": [
        {
          "internalType": "address",
          "name": "",
          "type": "address"
        }
      ],
      "stateMutability": "view",
      "type": "function"
    },
    {
      "inputs": [
        {
          "internalType": "address",
          "name": "owner",
          "type": "address"
        },
        {
          "internalType": "address",
          "name": "operator",
          "type": "address"
        }
      ],
      "name": "isApprovedForAll",
      "outputs": [
        {
          "internalType": "bool",
          "name": "",
          "type": "bool"
        }
      ],
      "stateMutability": "view",
      "type": "function"
    },
    {
      "inputs": [],
      "name": "name",
      "outputs": [
        {
          "internalType": "string",
          "name": "",
          "type": "string"
        }
      ],
      "stateMutability": "view",
      "type": "function"
    },
    {
      "inputs": [
        {
          "internalType": "uint256",
          "name": "tokenId",
          "type": "uint256"
        }
      ],
      "name": "ownerOf",
      "outputs": [
        {
          "internalType": "address",
          "name": "",
          "type": "address"
        }
      ],
      "stateMutability": "view",
      "type": "function"
    },
    {
      "inputs": [
        {
          "internalType": "address",
          "name": "from",
          "type": "address"
        },
        {
          "internalType": "address",
          "name": "to",
          "type": "address"
        },
        {
          "internalType": "uint256",
          "name": "tokenId",
          "type": "uint256"
        }
      ],
      "name": "safeTransferFrom",
      "outputs": [],
      "stateMutability": "nonpayable",
      "type": "function"
    },
    {
      "inputs": [
        {
          "internalType": "address",
          "name": "from",
          "type": "address"
        },
        {
          "internalType": "address",
          "name": "to",
          "type": "address"
        },
        {
          "internalType": "uint256",
          "name": "tokenId",
          "type": "uint256"
        },
        {
          "internalType": "bytes",
          "name": "_data",
          "type": "bytes"
        }
      ],
      "name": "safeTransferFrom",
      "outputs": [],
      "stateMutability": "nonpayable",
      "type": "function"
    },
    {
      "inputs": [
        {
          "internalType": "address",
          "name": "operator",
          "type": "address"
        },
        {
          "internalType": "bool",
          "name": "approved",
          "type": "bool"
        }
      ],
      "name": "setApprovalForAll",
      "outputs": [],
      "stateMutability": "nonpayable",
      "type": "function"
    },
    {
      "inputs": [
        {
          "internalType": "bytes4",
          "name": "interfaceId",
          "type": "bytes4"
        }
      ],
      "name": "supportsInterface",
      "outputs": [
        {
          "internalType": "bool",
          "name": "",
          "type": "bool"
        }
      ],
      "stateMutability": "view",
      "type": "function"
    },
    {
      "inputs": [],
      "name": "symbol",
      "outputs": [
        {
          "internalType": "string",
          "name": "",
          "type": "string"
        }
      ],
      "stateMutability": "view",
      "type": "function"
    },
    {
      "inputs": [
        {
          "internalType": "uint256",
          "name": "tokenId",
          "type": "uint256"
        }
      ],
      "name": "tokenURI",
      "outputs": [
        {
          "internalType": "string",
          "name": "",
          "type": "string"
        }
      ],
      "stateMutability": "view",
      "type": "function"
    },
    {
      "inputs": [
        {
          "internalType": "address",
          "name": "from",
          "type": "address"
        },
        {
          "internalType": "address",
          "name": "to",
          "type": "address"
        },
        {
          "internalType": "uint256",
          "name": "tokenId",
          "type": "uint256"
        }
      ],
      "name": "transferFrom",
      "outputs": [],
      "stateMutability": "nonpayable",
      "type": "function"
    }
  ],
  "bytecode": "0x60806040523480156200001157600080fd5b50604080518082018252600781526615d2531313919560ca1b60208083019182528351808501909452600484526315d2531360e21b9084015281519192916200005d916000916200007c565b508051620000739060019060208401906200007c565b5050506200015f565b8280546200008a9062000122565b90600052602060002090601f016020900481019282620000ae5760008555620000f9565b82601f10620000c957805160ff1916838001178555620000f9565b82800160010185558215620000f9579182015b82811115620000f9578251825591602001919060010190620000dc565b50620001079291506200010b565b5090565b5b808211156200010757600081556001016200010c565b6002810460018216806200013757607f821691505b602082108114156200015957634e487b7160e01b600052602260045260246000fd5b50919050565b6113fe806200016f6000396000f3fe608060405234801561001057600080fd5b50600436106100ea5760003560e01c806370a082311161008c578063a22cb46511610066578063a22cb465146101d6578063b88d4fde146101e9578063c87b56dd146101fc578063e985e9c51461020f576100ea565b806370a082311461019b57806395d89b41146101bb578063a15ab08d146101c3576100ea565b8063095ea7b3116100c8578063095ea7b31461014d57806323b872dd1461016257806342842e0e146101755780636352211e14610188576100ea565b806301ffc9a7146100ef57806306fdde0314610118578063081812fc1461012d575b600080fd5b6101026100fd366004610e6e565b610222565b60405161010f9190610f5a565b60405180910390f35b61012061026a565b60405161010f9190610f65565b61014061013b366004610ea6565b6102fc565b60405161010f9190610f09565b61016061015b366004610e45565b610348565b005b610160610170366004610cf8565b6103e0565b610160610183366004610cf8565b610418565b610140610196366004610ea6565b610433565b6101ae6101a9366004610ca5565b610468565b60405161010f9190611310565b6101206104ac565b6101ae6101d1366004610de6565b6104bb565b6101606101e4366004610dac565b610506565b6101606101f7366004610d33565b61051c565b61012061020a366004610ea6565b61055b565b61010261021d366004610cc6565b6105fd565b60006001600160e01b031982166380ac58cd60e01b148061025357506001600160e01b03198216635b5e139f60e01b145b8061026257506102628261062b565b90505b919050565b60606000805461027990611348565b80601f01602080910402602001604051908101604052809291908181526020018280546102a590611348565b80156102f25780601f106102c7576101008083540402835291602001916102f2565b820191906000526020600020905b8154815290600101906020018083116102d557829003601f168201915b5050505050905090565b600061030782610644565b61032c5760405162461bcd60e51b815260040161032390611232565b60405180910390fd5b506000908152600460205260409020546001600160a01b031690565b600061035382610433565b9050806001600160a01b0316836001600160a01b031614156103875760405162461bcd60e51b81526004016103239061127e565b806001600160a01b0316610399610661565b6001600160a01b031614806103b557506103b58161021d610661565b6103d15760405162461bcd60e51b81526004016103239061110d565b6103db8383610665565b505050565b6103f16103eb610661565b826106d3565b61040d5760405162461bcd60e51b8152600401610323906112bf565b6103db838383610758565b6103db8383836040518060200160405280600081525061051c565b6000818152600260205260408120546001600160a01b0316806102625760405162461bcd60e51b8152600401610323906111b4565b60006001600160a01b0382166104905760405162461bcd60e51b81526004016103239061116a565b506001600160a01b031660009081526003602052604090205490565b60606001805461027990611348565b60006104c7600661088b565b60006104d36006610894565b90506104df8482610898565b600081815260076020908152604090912084516104fe92860190610b7f565b509392505050565b610518610511610661565b838361097f565b5050565b61052d610527610661565b836106d3565b6105495760405162461bcd60e51b8152600401610323906112bf565b61055584848484610a22565b50505050565b600081815260076020526040902080546060919061057890611348565b80601f01602080910402602001604051908101604052809291908181526020018280546105a490611348565b80156105f15780601f106105c6576101008083540402835291602001916105f1565b820191906000526020600020905b8154815290600101906020018083116105d457829003601f168201915b50505050509050919050565b6001600160a01b03918216600090815260056020908152604080832093909416825291909152205460ff1690565b6001600160e01b031981166301ffc9a760e01b14919050565b6000908152600260205260409020546001600160a01b0316151590565b3390565b600081815260046020526040902080546001600160a01b0319166001600160a01b038416908117909155819061069a82610433565b6001600160a01b03167f8c5be1e5ebec7d5bd14f71427d1e84f3dd0314c0f7b2291e5b200ac8c7c3b92560405160405180910390a45050565b60006106de82610644565b6106fa5760405162461bcd60e51b8152600401610323906110c1565b600061070583610433565b9050806001600160a01b0316846001600160a01b031614806107405750836001600160a01b0316610735846102fc565b6001600160a01b0316145b80610750575061075081856105fd565b949350505050565b826001600160a01b031661076b82610433565b6001600160a01b0316146107915760405162461bcd60e51b815260040161032390610fca565b6001600160a01b0382166107b75760405162461bcd60e51b815260040161032390611046565b6107c28383836103db565b6107cd600082610665565b6001600160a01b03831660009081526003602052604081208054600192906107f6908490611331565b90915550506001600160a01b0382166000908152600360205260408120805460019290610824908490611319565b909155505060008181526002602052604080822080546001600160a01b0319166001600160a01b0386811691821790925591518493918716917fddf252ad1be2c89b69c2b068fc378daa952ba7f163c4a11628f55a4df523b3ef91a46103db8383836103db565b80546001019055565b5490565b6001600160a01b0382166108be5760405162461bcd60e51b8152600401610323906111fd565b6108c781610644565b156108e45760405162461bcd60e51b81526004016103239061100f565b6108f0600083836103db565b6001600160a01b0382166000908152600360205260408120805460019290610919908490611319565b909155505060008181526002602052604080822080546001600160a01b0319166001600160a01b03861690811790915590518392907fddf252ad1be2c89b69c2b068fc378daa952ba7f163c4a11628f55a4df523b3ef908290a4610518600083836103db565b816001600160a01b0316836001600160a01b031614156109b15760405162461bcd60e51b81526004016103239061108a565b6001600160a01b0383811660008181526005602090815260408083209487168084529490915290819020805460ff1916851515179055517f17307eab39ab6107e8899845ad3d59bd9653f200f220920489ca2b5937696c3190610a15908590610f5a565b60405180910390a3505050565b610a2d848484610758565b610a3984848484610a55565b6105555760405162461bcd60e51b815260040161032390610f78565b6000610a69846001600160a01b0316610b70565b15610b6557836001600160a01b031663150b7a02610a85610661565b8786866040518563ffffffff1660e01b8152600401610aa79493929190610f1d565b602060405180830381600087803b158015610ac157600080fd5b505af1925050508015610af1575060408051601f3d908101601f19168201909252610aee91810190610e8a565b60015b610b4b573d808015610b1f576040519150601f19603f3d011682016040523d82523d6000602084013e610b24565b606091505b508051610b435760405162461bcd60e51b815260040161032390610f78565b805181602001fd5b6001600160e01b031916630a85bd0160e11b149050610750565b506001949350505050565b6001600160a01b03163b151590565b828054610b8b90611348565b90600052602060002090601f016020900481019282610bad5760008555610bf3565b82601f10610bc657805160ff1916838001178555610bf3565b82800160010185558215610bf3579182015b82811115610bf3578251825591602001919060010190610bd8565b50610bff929150610c03565b5090565b5b80821115610bff5760008155600101610c04565b600067ffffffffffffffff80841115610c3357610c33611399565b604051601f8501601f19908116603f01168101908282118183101715610c5b57610c5b611399565b81604052809350858152868686011115610c7457600080fd5b858560208301376000602087830101525050509392505050565b80356001600160a01b038116811461026557600080fd5b600060208284031215610cb6578081fd5b610cbf82610c8e565b9392505050565b60008060408385031215610cd8578081fd5b610ce183610c8e565b9150610cef60208401610c8e565b90509250929050565b600080600060608486031215610d0c578081fd5b610d1584610c8e565b9250610d2360208501610c8e565b9150604084013590509250925092565b60008060008060808587031215610d48578081fd5b610d5185610c8e565b9350610d5f60208601610c8e565b925060408501359150606085013567ffffffffffffffff811115610d81578182fd5b8501601f81018713610d91578182fd5b610da087823560208401610c18565b91505092959194509250565b60008060408385031215610dbe578182fd5b610dc783610c8e565b915060208301358015158114610ddb578182fd5b809150509250929050565b60008060408385031215610df8578182fd5b610e0183610c8e565b9150602083013567ffffffffffffffff811115610e1c578182fd5b8301601f81018513610e2c578182fd5b610e3b85823560208401610c18565b9150509250929050565b60008060408385031215610e57578182fd5b610e6083610c8e565b946020939093013593505050565b600060208284031215610e7f578081fd5b8135610cbf816113af565b600060208284031215610e9b578081fd5b8151610cbf816113af565b600060208284031215610eb7578081fd5b5035919050565b60008151808452815b81811015610ee357602081850181015186830182015201610ec7565b81811115610ef45782602083870101525b50601f01601f19169290920160200192915050565b6001600160a01b0391909116815260200190565b6001600160a01b0385811682528416602082015260408101839052608060608201819052600090610f5090830184610ebe565b9695505050505050565b901515815260200190565b600060208252610cbf6020830184610ebe565b60208082526032908201527f4552433732313a207472616e7366657220746f206e6f6e20455243373231526560408201527131b2b4bb32b91034b6b83632b6b2b73a32b960711b606082015260800190565b60208082526025908201527f4552433732313a207472616e736665722066726f6d20696e636f72726563742060408201526437bbb732b960d91b606082015260800190565b6020808252601c908201527f4552433732313a20746f6b656e20616c7265616479206d696e74656400000000604082015260600190565b60208082526024908201527f4552433732313a207472616e7366657220746f20746865207a65726f206164646040820152637265737360e01b606082015260800190565b60208082526019908201527f4552433732313a20617070726f766520746f2063616c6c657200000000000000604082015260600190565b6020808252602c908201527f4552433732313a206f70657261746f7220717565727920666f72206e6f6e657860408201526b34b9ba32b73a103a37b5b2b760a11b606082015260800190565b60208082526038908201527f4552433732313a20617070726f76652063616c6c6572206973206e6f74206f7760408201527f6e6572206e6f7220617070726f76656420666f7220616c6c0000000000000000606082015260800190565b6020808252602a908201527f4552433732313a2062616c616e636520717565727920666f7220746865207a65604082015269726f206164647265737360b01b606082015260800190565b60208082526029908201527f4552433732313a206f776e657220717565727920666f72206e6f6e657869737460408201526832b73a103a37b5b2b760b91b606082015260800190565b6020808252818101527f4552433732313a206d696e7420746f20746865207a65726f2061646472657373604082015260600190565b6020808252602c908201527f4552433732313a20617070726f76656420717565727920666f72206e6f6e657860408201526b34b9ba32b73a103a37b5b2b760a11b606082015260800190565b60208082526021908201527f4552433732313a20617070726f76616c20746f2063757272656e74206f776e656040820152603960f91b606082015260800190565b60208082526031908201527f4552433732313a207472616e736665722063616c6c6572206973206e6f74206f6040820152701ddb995c881b9bdc88185c1c1c9bdd9959607a1b606082015260800190565b90815260200190565b6000821982111561132c5761132c611383565b500190565b60008282101561134357611343611383565b500390565b60028104600182168061135c57607f821691505b6020821081141561137d57634e487b7160e01b600052602260045260246000fd5b50919050565b634e487b7160e01b600052601160045260246000fd5b634e487b7160e01b600052604160045260246000fd5b6001600160e01b0319811681146113c557600080fd5b5056fea264697066735822122045ce87d1f274369b1bd67bb03cafaefcdf0efbd64ddc3493e5c0ac56b912015a64736f6c63430008010033",
  "linkReferences": {},
  "deployedLinkReferences": {}
}