{
  "_format": "hh-sol-artifact-1",
  "contractName": "AdidasOriginals",
  "sourceName": "contracts/Adidas/AdidasOriginals.sol",
  "abi": [
    {
      "inputs": [
        {
          "internalType": "string",
          "name": "_name",
          "type": "string"
        },
        {
          "internalType": "string",
          "name": "_symbol",
          "type": "string"
        },
        {
          "internalType": "string",
          "name": "_uri",
          "type": "string"
        },
        {
          "internalType": "bytes32",
          "name": "_merkleRoot",
          "type": "bytes32"
        },
        {
          "internalType": "address[]",
          "name": "payees",
          "type": "address[]"
        },
        {
          "internalType": "uint256[]",
          "name": "shares_",
          "type": "uint256[]"
        }
      ],
      "stateMutability": "nonpayable",
      "type": "constructor"
    },
    {
      "anonymous": false,
      "inputs": [
        {
          "indexed": true,
          "internalType": "address",
          "name": "account",
          "type": "address"
        },
        {
          "indexed": true,
          "internalType": "address",
          "name": "operator",
          "type": "address"
        },
        {
          "indexed": false,
          "internalType": "bool",
          "name": "approved",
          "type": "bool"
        }
      ],
      "name": "ApprovalForAll",
      "type": "event"
    },
    {
      "anonymous": false,
      "inputs": [
        {
          "indexed": true,
          "internalType": "address",
          "name": "previousOwner",
          "type": "address"
        },
        {
          "indexed": true,
          "internalType": "address",
          "name": "newOwner",
          "type": "address"
        }
      ],
      "name": "OwnershipTransferred",
      "type": "event"
    },
    {
      "anonymous": false,
      "inputs": [
        {
          "indexed": false,
          "internalType": "address",
          "name": "account",
          "type": "address"
        }
      ],
      "name": "Paused",
      "type": "event"
    },
    {
      "anonymous": false,
      "inputs": [
        {
          "indexed": false,
          "internalType": "address",
          "name": "account",
          "type": "address"
        },
        {
          "indexed": false,
          "internalType": "uint256",
          "name": "shares",
          "type": "uint256"
        }
      ],
      "name": "PayeeAdded",
      "type": "event"
    },
    {
      "anonymous": false,
      "inputs": [
        {
          "indexed": false,
          "internalType": "address",
          "name": "to",
          "type": "address"
        },
        {
          "indexed": false,
          "internalType": "uint256",
          "name": "amount",
          "type": "uint256"
        }
      ],
      "name": "PaymentReleased",
      "type": "event"
    },
    {
      "anonymous": false,
      "inputs": [
        {
          "indexed": true,
          "internalType": "uint256",
          "name": "index",
          "type": "uint256"
        },
        {
          "indexed": true,
          "internalType": "address",
          "name": "account",
          "type": "address"
        },
        {
          "indexed": false,
          "internalType": "uint256",
          "name": "amount",
          "type": "uint256"
        }
      ],
      "name": "Purchased",
      "type": "event"
    },
    {
      "anonymous": false,
      "inputs": [
        {
          "indexed": true,
          "internalType": "uint256",
          "name": "indexToRedeem",
          "type": "uint256"
        },
        {
          "indexed": true,
          "internalType": "uint256",
          "name": "indexToMint",
          "type": "uint256"
        },
        {
          "indexed": true,
          "internalType": "address",
          "name": "account",
          "type": "address"
        },
        {
          "indexed": false,
          "internalType": "uint256",
          "name": "amount",
          "type": "uint256"
        }
      ],
      "name": "RedeemedForCard",
      "type": "event"
    },
    {
      "anonymous": false,
      "inputs": [
        {
          "indexed": true,
          "internalType": "address",
          "name": "operator",
          "type": "address"
        },
        {
          "indexed": true,
          "internalType": "address",
          "name": "from",
          "type": "address"
        },
        {
          "indexed": true,
          "internalType": "address",
          "name": "to",
          "type": "address"
        },
        {
          "indexed": false,
          "internalType": "uint256[]",
          "name": "ids",
          "type": "uint256[]"
        },
        {
          "indexed": false,
          "internalType": "uint256[]",
          "name": "values",
          "type": "uint256[]"
        }
      ],
      "name": "TransferBatch",
      "type": "event"
    },
    {
      "anonymous": false,
      "inputs": [
        {
          "indexed": true,
          "internalType": "address",
          "name": "operator",
          "type": "address"
        },
        {
          "indexed": true,
          "internalType": "address",
          "name": "from",
          "type": "address"
        },
        {
          "indexed": true,
          "internalType": "address",
          "name": "to",
          "type": "address"
        },
        {
          "indexed": false,
          "internalType": "uint256",
          "name": "id",
          "type": "uint256"
        },
        {
          "indexed": false,
          "internalType": "uint256",
          "name": "value",
          "type": "uint256"
        }
      ],
      "name": "TransferSingle",
      "type": "event"
    },
    {
      "anonymous": false,
      "inputs": [
        {
          "indexed": false,
          "internalType": "string",
          "name": "value",
          "type": "string"
        },
        {
          "indexed": true,
          "internalType": "uint256",
          "name": "id",
          "type": "uint256"
        }
      ],
      "name": "URI",
      "type": "event"
    },
    {
      "anonymous": false,
      "inputs": [
        {
          "indexed": false,
          "internalType": "address",
          "name": "account",
          "type": "address"
        }
      ],
      "name": "Unpaused",
      "type": "event"
    },
    {
      "inputs": [
        {
          "internalType": "address",
          "name": "account",
          "type": "address"
        },
        {
          "internalType": "uint256",
          "name": "id",
          "type": "uint256"
        }
      ],
      "name": "balanceOf",
      "outputs": [
        {
          "internalType": "uint256",
          "name": "",
          "type": "uint256"
        }
      ],
      "stateMutability": "view",
      "type": "function"
    },
    {
      "inputs": [
        {
          "internalType": "address[]",
          "name": "accounts",
          "type": "address[]"
        },
        {
          "internalType": "uint256[]",
          "name": "ids",
          "type": "uint256[]"
        }
      ],
      "name": "balanceOfBatch",
      "outputs": [
        {
          "internalType": "uint256[]",
          "name": "",
          "type": "uint256[]"
        }
      ],
      "stateMutability": "view",
      "type": "function"
    },
    {
      "inputs": [
        {
          "internalType": "address",
          "name": "account",
          "type": "address"
        },
        {
          "internalType": "uint256",
          "name": "id",
          "type": "uint256"
        },
        {
          "internalType": "uint256",
          "name": "value",
          "type": "uint256"
        }
      ],
      "name": "burn",
      "outputs": [],
      "stateMutability": "nonpayable",
      "type": "function"
    },
    {
      "inputs": [
        {
          "internalType": "address",
          "name": "account",
          "type": "address"
        },
        {
          "internalType": "uint256[]",
          "name": "ids",
          "type": "uint256[]"
        },
        {
          "internalType": "uint256[]",
          "name": "values",
          "type": "uint256[]"
        }
      ],
      "name": "burnBatch",
      "outputs": [],
      "stateMutability": "nonpayable",
      "type": "function"
    },
    {
      "inputs": [],
      "name": "burnWindowCloses",
      "outputs": [
        {
          "internalType": "uint256",
          "name": "",
          "type": "uint256"
        }
      ],
      "stateMutability": "view",
      "type": "function"
    },
    {
      "inputs": [],
      "name": "burnWindowOpens",
      "outputs": [
        {
          "internalType": "uint256",
          "name": "",
          "type": "uint256"
        }
      ],
      "stateMutability": "view",
      "type": "function"
    },
    {
      "inputs": [],
      "name": "cardIdToMint",
      "outputs": [
        {
          "internalType": "uint256",
          "name": "",
          "type": "uint256"
        }
      ],
      "stateMutability": "view",
      "type": "function"
    },
    {
      "inputs": [
        {
          "internalType": "uint256",
          "name": "amount",
          "type": "uint256"
        },
        {
          "internalType": "uint256",
          "name": "index",
          "type": "uint256"
        },
        {
          "internalType": "bytes32[]",
          "name": "merkleProof",
          "type": "bytes32[]"
        }
      ],
      "name": "earlyAccessSale",
      "outputs": [],
      "stateMutability": "payable",
      "type": "function"
    },
    {
      "inputs": [],
      "name": "earlyAccessWindowOpens",
      "outputs": [
        {
          "internalType": "uint256",
          "name": "",
          "type": "uint256"
        }
      ],
      "stateMutability": "view",
      "type": "function"
    },
    {
      "inputs": [
        {
          "internalType": "uint8",
          "name": "_maxPerTx",
          "type": "uint8"
        },
        {
          "internalType": "uint8",
          "name": "_maxTxEarly",
          "type": "uint8"
        },
        {
          "internalType": "uint8",
          "name": "_maxTxPublic",
          "type": "uint8"
        }
      ],
      "name": "editSaleRestrictions",
      "outputs": [],
      "stateMutability": "nonpayable",
      "type": "function"
    },
    {
      "inputs": [
        {
          "internalType": "uint256",
          "name": "_purchaseWindowOpens",
          "type": "uint256"
        },
        {
          "internalType": "uint256",
          "name": "_purchaseWindowCloses",
          "type": "uint256"
        },
        {
          "internalType": "uint256",
          "name": "_earlyAccessWindowOpens",
          "type": "uint256"
        },
        {
          "internalType": "uint256",
          "name": "_burnWindowOpens",
          "type": "uint256"
        },
        {
          "internalType": "uint256",
          "name": "_burnWindowCloses",
          "type": "uint256"
        }
      ],
      "name": "editWindows",
      "outputs": [],
      "stateMutability": "nonpayable",
      "type": "function"
    },
    {
      "inputs": [
        {
          "internalType": "uint256",
          "name": "id",
          "type": "uint256"
        }
      ],
      "name": "exists",
      "outputs": [
        {
          "internalType": "bool",
          "name": "",
          "type": "bool"
        }
      ],
      "stateMutability": "view",
      "type": "function"
    },
    {
      "inputs": [
        {
          "internalType": "address",
          "name": "account",
          "type": "address"
        },
        {
          "internalType": "address",
          "name": "operator",
          "type": "address"
        }
      ],
      "name": "isApprovedForAll",
      "outputs": [
        {
          "internalType": "bool",
          "name": "",
          "type": "bool"
        }
      ],
      "stateMutability": "view",
      "type": "function"
    },
    {
      "inputs": [],
      "name": "merkleRoot",
      "outputs": [
        {
          "internalType": "bytes32",
          "name": "",
          "type": "bytes32"
        }
      ],
      "stateMutability": "view",
      "type": "function"
    },
    {
      "inputs": [],
      "name": "mintPrice",
      "outputs": [
        {
          "internalType": "uint256",
          "name": "",
          "type": "uint256"
        }
      ],
      "stateMutability": "view",
      "type": "function"
    },
    {
      "inputs": [],
      "name": "name",
      "outputs": [
        {
          "internalType": "string",
          "name": "",
          "type": "string"
        }
      ],
      "stateMutability": "view",
      "type": "function"
    },
    {
      "inputs": [],
      "name": "owner",
      "outputs": [
        {
          "internalType": "address",
          "name": "",
          "type": "address"
        }
      ],
      "stateMutability": "view",
      "type": "function"
    },
    {
      "inputs": [],
      "name": "pause",
      "outputs": [],
      "stateMutability": "nonpayable",
      "type": "function"
    },
    {
      "inputs": [],
      "name": "paused",
      "outputs": [
        {
          "internalType": "bool",
          "name": "",
          "type": "bool"
        }
      ],
      "stateMutability": "view",
      "type": "function"
    },
    {
      "inputs": [
        {
          "internalType": "uint256",
          "name": "amount",
          "type": "uint256"
        }
      ],
      "name": "purchase",
      "outputs": [],
      "stateMutability": "payable",
      "type": "function"
    },
    {
      "inputs": [
        {
          "internalType": "address",
          "name": "",
          "type": "address"
        }
      ],
      "name": "purchaseTxs",
      "outputs": [
        {
          "internalType": "uint256",
          "name": "",
          "type": "uint256"
        }
      ],
      "stateMutability": "view",
      "type": "function"
    },
    {
      "inputs": [],
      "name": "purchaseWindowCloses",
      "outputs": [
        {
          "internalType": "uint256",
          "name": "",
          "type": "uint256"
        }
      ],
      "stateMutability": "view",
      "type": "function"
    },
    {
      "inputs": [],
      "name": "purchaseWindowOpens",
      "outputs": [
        {
          "internalType": "uint256",
          "name": "",
          "type": "uint256"
        }
      ],
      "stateMutability": "view",
      "type": "function"
    },
    {
      "inputs": [
        {
          "internalType": "uint256",
          "name": "cardIdToRedeem",
          "type": "uint256"
        },
        {
          "internalType": "uint256",
          "name": "amount",
          "type": "uint256"
        }
      ],
      "name": "redeemCardForOther",
      "outputs": [],
      "stateMutability": "nonpayable",
      "type": "function"
    },
    {
      "inputs": [
        {
          "internalType": "address payable",
          "name": "account",
          "type": "address"
        }
      ],
      "name": "release",
      "outputs": [],
      "stateMutability": "nonpayable",
      "type": "function"
    },
    {
      "inputs": [],
      "name": "renounceOwnership",
      "outputs": [],
      "stateMutability": "nonpayable",
      "type": "function"
    },
    {
      "inputs": [],
      "name": "returnToPreviousStage",
      "outputs": [],
      "stateMutability": "nonpayable",
      "type": "function"
    },
    {
      "inputs": [
        {
          "internalType": "address",
          "name": "from",
          "type": "address"
        },
        {
          "internalType": "address",
          "name": "to",
          "type": "address"
        },
        {
          "internalType": "uint256[]",
          "name": "ids",
          "type": "uint256[]"
        },
        {
          "internalType": "uint256[]",
          "name": "amounts",
          "type": "uint256[]"
        },
        {
          "internalType": "bytes",
          "name": "data",
          "type": "bytes"
        }
      ],
      "name": "safeBatchTransferFrom",
      "outputs": [],
      "stateMutability": "nonpayable",
      "type": "function"
    },
    {
      "inputs": [
        {
          "internalType": "address",
          "name": "from",
          "type": "address"
        },
        {
          "internalType": "address",
          "name": "to",
          "type": "address"
        },
        {
          "internalType": "uint256",
          "name": "id",
          "type": "uint256"
        },
        {
          "internalType": "uint256",
          "name": "amount",
          "type": "uint256"
        },
        {
          "internalType": "bytes",
          "name": "data",
          "type": "bytes"
        }
      ],
      "name": "safeTransferFrom",
      "outputs": [],
      "stateMutability": "nonpayable",
      "type": "function"
    },
    {
      "inputs": [
        {
          "internalType": "address",
          "name": "operator",
          "type": "address"
        },
        {
          "internalType": "bool",
          "name": "approved",
          "type": "bool"
        }
      ],
      "name": "setApprovalForAll",
      "outputs": [],
      "stateMutability": "nonpayable",
      "type": "function"
    },
    {
      "inputs": [
        {
          "internalType": "bytes32",
          "name": "_merkleRoot",
          "type": "bytes32"
        }
      ],
      "name": "setMerkleRoot",
      "outputs": [],
      "stateMutability": "nonpayable",
      "type": "function"
    },
    {
      "inputs": [
        {
          "internalType": "uint256",
          "name": "_mintPrice",
          "type": "uint256"
        }
      ],
      "name": "setPrice",
      "outputs": [],
      "stateMutability": "nonpayable",
      "type": "function"
    },
    {
      "inputs": [
        {
          "internalType": "string",
          "name": "baseURI",
          "type": "string"
        }
      ],
      "name": "setURI",
      "outputs": [],
      "stateMutability": "nonpayable",
      "type": "function"
    },
    {
      "inputs": [
        {
          "internalType": "address",
          "name": "account",
          "type": "address"
        }
      ],
      "name": "shares",
      "outputs": [
        {
          "internalType": "uint256",
          "name": "",
          "type": "uint256"
        }
      ],
      "stateMutability": "view",
      "type": "function"
    },
    {
      "inputs": [],
      "name": "startNextStage",
      "outputs": [],
      "stateMutability": "nonpayable",
      "type": "function"
    },
    {
      "inputs": [
        {
          "internalType": "bytes4",
          "name": "interfaceId",
          "type": "bytes4"
        }
      ],
      "name": "supportsInterface",
      "outputs": [
        {
          "internalType": "bool",
          "name": "",
          "type": "bool"
        }
      ],
      "stateMutability": "view",
      "type": "function"
    },
    {
      "inputs": [],
      "name": "symbol",
      "outputs": [
        {
          "internalType": "string",
          "name": "",
          "type": "string"
        }
      ],
      "stateMutability": "view",
      "type": "function"
    },
    {
      "inputs": [
        {
          "internalType": "uint256",
          "name": "id",
          "type": "uint256"
        }
      ],
      "name": "totalSupply",
      "outputs": [
        {
          "internalType": "uint256",
          "name": "",
          "type": "uint256"
        }
      ],
      "stateMutability": "view",
      "type": "function"
    },
    {
      "inputs": [
        {
          "internalType": "address",
          "name": "newOwner",
          "type": "address"
        }
      ],
      "name": "transferOwnership",
      "outputs": [],
      "stateMutability": "nonpayable",
      "type": "function"
    },
    {
      "inputs": [],
      "name": "unpause",
      "outputs": [],
      "stateMutability": "nonpayable",
      "type": "function"
    },
    {
      "inputs": [
        {
          "internalType": "uint256",
          "name": "_id",
          "type": "uint256"
        }
      ],
      "name": "uri",
      "outputs": [
        {
          "internalType": "string",
          "name": "",
          "type": "string"
        }
      ],
      "stateMutability": "view",
      "type": "function"
    }
  ],
  "bytecode": "0x6080604052600d805462010000600260ff199092169190911761ff0019166102001762ff000019161790556702c68af0bb140000600e556001600f556407932c3ec46010556407932c3ec56011556407932c3ec66012556407932c3ec76013556407932c3ec86014553480156200007557600080fd5b50604051620049d5380380620049d5833981016040819052620000989162000a58565b6000805460ff19169055818185620000b08162000216565b50620000c5620000bf6200022f565b62000234565b8051825114620000f25760405162461bcd60e51b8152600401620000e99062000ccf565b60405180910390fd5b6000825111620001165760405162461bcd60e51b8152600401620000e99062000dad565b60005b82518110156200019a57620001858382815181106200014857634e487b7160e01b600052603260045260246000fd5b60200260200101518383815181106200017157634e487b7160e01b600052603260045260246000fd5b60200260200101516200028660201b60201c565b80620001918162000f23565b91505062000119565b50508651620001b2915060069060208901906200080f565b508451620001c89060079060208801906200080f565b50826015819055506200020a735b1ab6a09297c57911d1971537f569143a601b93600061017c60405180602001604052806000815250620003b860201b60201c565b50505050505062001020565b80516200022b9060039060208401906200080f565b5050565b335b90565b600580546001600160a01b038381166001600160a01b0319831681179093556040519116919082907f8be0079c531659141344cd1fd0a4f28419497f9722a3daafe3b4186f6b6457e090600090a35050565b6001600160a01b038216620002af5760405162461bcd60e51b8152600401620000e99062000c83565b60008111620002d25760405162461bcd60e51b8152600401620000e99062000de4565b6001600160a01b0382166000908152600a6020526040902054156200030b5760405162461bcd60e51b8152600401620000e99062000d21565b600c8054600181019091557fdf6966c971051c3d54ec59162606531493a51404a002842f56009d7e5cf4a8c70180546001600160a01b0319166001600160a01b0384169081179091556000908152600a602052604090208190556008546200037590829062000e4f565b6008556040517f40c340f65e17194d14ddddb073d3c9f888e3cb52b5aae0c6c7706b4fbc905fac90620003ac908490849062000bb0565b60405180910390a15050565b6001600160a01b038416620003e15760405162461bcd60e51b8152600401620000e99062000d6c565b6000620003ed6200022f565b905062000414816000876200040288620004c1565b6200040d88620004c1565b876200051b565b60008481526001602090815260408083206001600160a01b0389168452909152812080548592906200044890849062000e4f565b92505081905550846001600160a01b031660006001600160a01b0316826001600160a01b03167fc3d58168c5ae7397731d063d5bbf3d657854427343f4c083240f7aacaa2d0f628787604051620004a192919062000e1b565b60405180910390a4620004ba816000878787876200053e565b5050505050565b604080516001808252818301909252606091600091906020808301908036833701905050905082816000815181106200050a57634e487b7160e01b600052603260045260246000fd5b602090810291909101015292915050565b620005368686868686866200068f60201b620013a81760201c565b505050505050565b6200055d846001600160a01b03166200080060201b620015041760201c565b15620005365760405163f23a6e6160e01b81526001600160a01b0385169063f23a6e619062000599908990899088908890889060040162000b69565b602060405180830381600087803b158015620005b457600080fd5b505af1925050508015620005e7575060408051601f3d908101601f19168201909252620005e49181019062000a27565b60015b6200065357620005f662000f6d565b806308c379a014156200063757506200060e62000f85565b806200061b575062000639565b8060405162461bcd60e51b8152600401620000e9919062000bc9565b505b60405162461bcd60e51b8152600401620000e99062000bde565b6001600160e01b0319811663f23a6e6160e01b14620006865760405162461bcd60e51b8152600401620000e99062000c3b565b50505050505050565b620006aa8686868686866200053660201b620014fc1760201c565b6001600160a01b038516620007565760005b83518110156200075457828181518110620006e757634e487b7160e01b600052603260045260246000fd5b6020026020010151600460008684815181106200071457634e487b7160e01b600052603260045260246000fd5b6020026020010151815260200190815260200160002060008282546200073b919062000e4f565b909155506200074c90508162000f23565b9050620006bc565b505b6001600160a01b038416620005365760005b835181101562000686578281815181106200079357634e487b7160e01b600052603260045260246000fd5b602002602001015160046000868481518110620007c057634e487b7160e01b600052603260045260246000fd5b602002602001015181526020019081526020016000206000828254620007e7919062000e6a565b90915550620007f890508162000f23565b905062000768565b6001600160a01b03163b151590565b8280546200081d9062000eb7565b90600052602060002090601f0160209004810192826200084157600085556200088c565b82601f106200085c57805160ff19168380011785556200088c565b828001600101855582156200088c579182015b828111156200088c5782518255916020019190600101906200086f565b506200089a9291506200089e565b5090565b5b808211156200089a57600081556001016200089f565b600082601f830112620008c6578081fd5b81516020620008d58262000e29565b604051620008e4828262000ef4565b83815282810191508583018385028701840188101562000902578586fd5b855b85811015620009375781516001600160a01b038116811462000924578788fd5b8452928401929084019060010162000904565b5090979650505050505050565b600082601f83011262000955578081fd5b81516020620009648262000e29565b60405162000973828262000ef4565b83815282810191508583018385028701840188101562000991578586fd5b855b85811015620009375781518452928401929084019060010162000993565b600082601f830112620009c2578081fd5b81516001600160401b03811115620009de57620009de62000f57565b604051620009f7601f8301601f19166020018262000ef4565b81815284602083860101111562000a0c578283fd5b62000a1f82602083016020870162000e84565b949350505050565b60006020828403121562000a39578081fd5b81516001600160e01b03198116811462000a51578182fd5b9392505050565b60008060008060008060c0878903121562000a71578182fd5b86516001600160401b038082111562000a88578384fd5b62000a968a838b01620009b1565b9750602089015191508082111562000aac578384fd5b62000aba8a838b01620009b1565b9650604089015191508082111562000ad0578384fd5b62000ade8a838b01620009b1565b955060608901519450608089015191508082111562000afb578384fd5b62000b098a838b01620008b5565b935060a089015191508082111562000b1f578283fd5b5062000b2e89828a0162000944565b9150509295509295509295565b6000815180845262000b5581602086016020860162000e84565b601f01601f19169290920160200192915050565b6001600160a01b03868116825285166020820152604081018490526060810183905260a06080820181905260009062000ba59083018462000b3b565b979650505050505050565b6001600160a01b03929092168252602082015260400190565b60006020825262000a51602083018462000b3b565b60208082526034908201527f455243313135353a207472616e7366657220746f206e6f6e204552433131353560408201527f526563656976657220696d706c656d656e746572000000000000000000000000606082015260800190565b60208082526028908201527f455243313135353a204552433131353552656365697665722072656a656374656040820152676420746f6b656e7360c01b606082015260800190565b6020808252602c908201527f5061796d656e7453706c69747465723a206163636f756e74206973207468652060408201526b7a65726f206164647265737360a01b606082015260800190565b60208082526032908201527f5061796d656e7453706c69747465723a2070617965657320616e6420736861726040820152710cae640d8cadccee8d040dad2e6dac2e8c6d60731b606082015260800190565b6020808252602b908201527f5061796d656e7453706c69747465723a206163636f756e7420616c726561647960408201526a206861732073686172657360a81b606082015260800190565b60208082526021908201527f455243313135353a206d696e7420746f20746865207a65726f206164647265736040820152607360f81b606082015260800190565b6020808252601a908201527f5061796d656e7453706c69747465723a206e6f20706179656573000000000000604082015260600190565b6020808252601d908201527f5061796d656e7453706c69747465723a20736861726573206172652030000000604082015260600190565b918252602082015260400190565b60006001600160401b0382111562000e455762000e4562000f57565b5060209081020190565b6000821982111562000e655762000e6562000f41565b500190565b60008282101562000e7f5762000e7f62000f41565b500390565b60005b8381101562000ea157818101518382015260200162000e87565b8381111562000eb1576000848401525b50505050565b60028104600182168062000ecc57607f821691505b6020821081141562000eee57634e487b7160e01b600052602260045260246000fd5b50919050565b601f8201601f191681016001600160401b038111828210171562000f1c5762000f1c62000f57565b6040525050565b600060001982141562000f3a5762000f3a62000f41565b5060010190565b634e487b7160e01b600052601160045260246000fd5b634e487b7160e01b600052604160045260246000fd5b600060033d11156200023157600481823e5160e01c90565b600060443d101562000f975762000231565b6040516003193d81016004833e81513d6001600160401b03808311602484018310171562000fca57505050505062000231565b828501915081518181111562000fe65750505050505062000231565b843d8701016020828501011115620010045750505050505062000231565b620010156020828601018762000ef4565b509094505050505090565b6139a580620010306000396000f3fe6080604052600436106102455760003560e01c80637b58de8b11610139578063ab22ff02116100b6578063efef39a11161007a578063efef39a114610639578063f242432a1461064c578063f260159e1461066c578063f2fde38b14610681578063f5298aca146106a1578063f8685030146106c157610245565b8063ab22ff02146105a4578063ab8e0a29146105c4578063bd85b039146105d9578063ce7c2ac2146105f9578063e985e9c51461061957610245565b80638f0d94b2116100fd5780638f0d94b21461051c57806391b7f5ed1461053c5780639245011d1461055c57806395d89b411461056f578063a22cb4651461058457610245565b80637b58de8b1461049b5780637cb64759146104b057806381e3d057146104d05780638456cb59146104e55780638da5cb5b146104fa57610245565b80633e8d1c07116101c75780635c975abb1161018b5780635c975abb146104275780635ee6509a1461043c5780636817c76c146104515780636b20c45414610466578063715018a61461048657610245565b80633e8d1c07146103905780633f4ba83a146103a55780634bbce33f146103ba5780634e1273f4146103da5780634f558e791461040757610245565b80630e89341c1161020e5780630e89341c1461030657806319165587146103265780632eb2c2d6146103465780632eb4a7ab146103665780633b44c8d01461037b57610245565b8062fdd58e1461024a578063019863c31461028057806301ffc9a71461029557806302fe5305146102c257806306fdde03146102e4575b600080fd5b34801561025657600080fd5b5061026a610265366004612904565b6106e1565b6040516102779190612db7565b60405180910390f35b34801561028c57600080fd5b5061026a61073a565b3480156102a157600080fd5b506102b56102b0366004612a46565b610740565b6040516102779190612dac565b3480156102ce57600080fd5b506102e26102dd366004612a7e565b610788565b005b3480156102f057600080fd5b506102f96107d3565b6040516102779190612dc0565b34801561031257600080fd5b506102f9610321366004612a2e565b610866565b34801561033257600080fd5b506102e26103413660046126fb565b6108c6565b34801561035257600080fd5b506102e261036136600461274f565b61091a565b34801561037257600080fd5b5061026a610978565b34801561038757600080fd5b5061026a61097e565b34801561039c57600080fd5b5061026a610984565b3480156103b157600080fd5b506102e261098a565b3480156103c657600080fd5b506102e26103d5366004612ac4565b6109d3565b3480156103e657600080fd5b506103fa6103f5366004612963565b610aef565b6040516102779190612d6b565b34801561041357600080fd5b506102b5610422366004612a2e565b610c0f565b34801561043357600080fd5b506102b5610c22565b34801561044857600080fd5b506102e2610c2b565b34801561045d57600080fd5b5061026a610c84565b34801561047257600080fd5b506102e2610481366004612860565b610c8a565b34801561049257600080fd5b506102e2610d1a565b3480156104a757600080fd5b5061026a610d63565b3480156104bc57600080fd5b506102e26104cb366004612a2e565b610d69565b3480156104dc57600080fd5b5061026a610dad565b3480156104f157600080fd5b506102e2610db3565b34801561050657600080fd5b5061050f610dfa565b6040516102779190612c9b565b34801561052857600080fd5b506102e2610537366004612b9c565b610e09565b34801561054857600080fd5b506102e2610557366004612a2e565b610e80565b6102e261056a366004612ae5565b610ec4565b34801561057b57600080fd5b506102f961101f565b34801561059057600080fd5b506102e261059f3660046128d3565b61102e565b3480156105b057600080fd5b506102e26105bf366004612b62565b611044565b3480156105d057600080fd5b5061026a6110da565b3480156105e557600080fd5b5061026a6105f4366004612a2e565b6110e0565b34801561060557600080fd5b5061026a6106143660046126fb565b6110f2565b34801561062557600080fd5b506102b5610634366004612717565b61110d565b6102e2610647366004612a2e565b61113b565b34801561065857600080fd5b506102e26106673660046127f9565b6111d2565b34801561067857600080fd5b506102e2611229565b34801561068d57600080fd5b506102e261069c3660046126fb565b61129d565b3480156106ad57600080fd5b506102e26106bc36600461292f565b61130b565b3480156106cd57600080fd5b5061026a6106dc3660046126fb565b611396565b60006001600160a01b0383166107125760405162461bcd60e51b815260040161070990612ed4565b60405180910390fd5b5060009081526001602090815260408083206001600160a01b03949094168352929052205490565b60145481565b60006001600160e01b03198216636cdb3d1360e11b148061077157506001600160e01b031982166303a24d0760e21b145b80610780575061078082611513565b90505b919050565b61079061152c565b6001600160a01b03166107a1610dfa565b6001600160a01b0316146107c75760405162461bcd60e51b81526004016107099061338f565b6107d081611530565b50565b6060600680546107e2906137c2565b80601f016020809104026020016040519081016040528092919081815260200182805461080e906137c2565b801561085b5780601f106108305761010080835404028352916020019161085b565b820191906000526020600020905b81548152906001019060200180831161083e57829003601f168201915b505050505090505b90565b606061087182610c0f565b61088d5760405162461bcd60e51b8152600401610709906133c4565b61089682611543565b61089f836115d7565b6040516020016108b0929190612c44565b6040516020818303038152906040529050919050565b336001600160a01b03821614806108f557506108e0610dfa565b6001600160a01b0316336001600160a01b0316145b6109115760405162461bcd60e51b81526004016107099061356a565b6107d0816116fa565b61092261152c565b6001600160a01b0316856001600160a01b0316148061094857506109488561063461152c565b6109645760405162461bcd60e51b8152600401610709906132b0565b610971858585858561183f565b5050505050565b60155481565b60115481565b60105481565b61099261152c565b6001600160a01b03166109a3610dfa565b6001600160a01b0316146109c95760405162461bcd60e51b81526004016107099061338f565b6109d1611a0b565b565b6109db610c22565b156109f85760405162461bcd60e51b815260040161070990613200565b80610a0333846106e1565b10158015610a115750600081115b610a2d5760405162461bcd60e51b815260040161070990613029565b6013544210158015610a4157506014544211155b610a5d5760405162461bcd60e51b8152600401610709906136c7565b600f548210610a7e5760405162461bcd60e51b8152600401610709906135db565b610a89338383611a79565b610aa633600f548360405180602001604052806000815250611b8c565b336001600160a01b0316600f54837f7e3df7e16f2dd583d1d92bde1a070a6a70abb33398944ad0a17a09c10989162a84604051610ae39190612db7565b60405180910390a45050565b60608151835114610b125760405162461bcd60e51b8152600401610709906134d9565b6000835167ffffffffffffffff811115610b3c57634e487b7160e01b600052604160045260246000fd5b604051908082528060200260200182016040528015610b65578160200160208202803683370190505b50905060005b8451811015610c0757610bcc858281518110610b9757634e487b7160e01b600052603260045260246000fd5b6020026020010151858381518110610bbf57634e487b7160e01b600052603260045260246000fd5b60200260200101516106e1565b828281518110610bec57634e487b7160e01b600052603260045260246000fd5b6020908102919091010152610c008161382a565b9050610b6b565b509392505050565b600080610c1b836110e0565b1192915050565b60005460ff1690565b610c3361152c565b6001600160a01b0316610c44610dfa565b6001600160a01b031614610c6a5760405162461bcd60e51b81526004016107099061338f565b6001600f6000828254610c7d9190613730565b9091555050565b600e5481565b601254421180610ca45750617530610ca260006110e0565b145b610cc05760405162461bcd60e51b815260040161070990613690565b610cc861152c565b6001600160a01b0316836001600160a01b03161480610cee5750610cee8361063461152c565b610d0a5760405162461bcd60e51b815260040161070990612fa9565b610d15838383611c7d565b505050565b610d2261152c565b6001600160a01b0316610d33610dfa565b6001600160a01b031614610d595760405162461bcd60e51b81526004016107099061338f565b6109d16000611e31565b60135481565b610d7161152c565b6001600160a01b0316610d82610dfa565b6001600160a01b031614610da85760405162461bcd60e51b81526004016107099061338f565b601555565b60125481565b610dbb61152c565b6001600160a01b0316610dcc610dfa565b6001600160a01b031614610df25760405162461bcd60e51b81526004016107099061338f565b6109d1611e83565b6005546001600160a01b031690565b610e1161152c565b6001600160a01b0316610e22610dfa565b6001600160a01b031614610e485760405162461bcd60e51b81526004016107099061338f565b600d805460ff191660ff9485161762ff0000191662010000938516939093029290921761ff0019166101009190931602919091179055565b610e8861152c565b6001600160a01b0316610e99610dfa565b6001600160a01b031614610ebf5760405162461bcd60e51b81526004016107099061338f565b600e55565b610ecc610c22565b15610ee95760405162461bcd60e51b815260040161070990613200565b6010544210158015610efd57506012544211155b610f195760405162461bcd60e51b815260040161070990613429565b614f9c84610f2760006110e0565b610f319190613730565b1115610f4f5760405162461bcd60e51b8152600401610709906133f4565b600d54336000908152601660205260409020546201000090910460ff1611610f895760405162461bcd60e51b8152600401610709906134a9565b600083336002604051602001610fa193929190612c73565b604051602081830303815290604052805190602001209050610ffa838380806020026020016040519081016040528093929190818152602001838360200280828437600092019190915250506015549150849050611ede565b6110165760405162461bcd60e51b81526004016107099061322a565b61097185611ef4565b6060600780546107e2906137c2565b61104061103961152c565b838361200f565b5050565b61104c61152c565b6001600160a01b031661105d610dfa565b6001600160a01b0316146110835760405162461bcd60e51b81526004016107099061338f565b838211801561109157508285115b801561109c57508484115b80156110a757508181115b6110c35760405162461bcd60e51b815260040161070990613622565b601194909455601292909255601055601355601455565b600f5481565b60009081526004602052604090205490565b6001600160a01b03166000908152600a602052604090205490565b6001600160a01b03918216600090815260026020908152604080832093909416825291909152205460ff1690565b611143610c22565b156111605760405162461bcd60e51b815260040161070990613200565b601154421015801561117457506012544211155b6111905760405162461bcd60e51b815260040161070990613192565b600d543360009081526016602052604090205461010090910460ff16116111c95760405162461bcd60e51b8152600401610709906134a9565b6107d081611ef4565b6111da61152c565b6001600160a01b0316856001600160a01b0316148061120057506112008561063461152c565b61121c5760405162461bcd60e51b815260040161070990612fa9565b61097185858585856120b2565b61123161152c565b6001600160a01b0316611242610dfa565b6001600160a01b0316146112685760405162461bcd60e51b81526004016107099061338f565b6001600f541161128a5760405162461bcd60e51b8152600401610709906131c9565b6001600f6000828254610c7d919061377b565b6112a561152c565b6001600160a01b03166112b6610dfa565b6001600160a01b0316146112dc5760405162461bcd60e51b81526004016107099061338f565b6001600160a01b0381166113025760405162461bcd60e51b815260040161070990612f1f565b6107d081611e31565b601254421180611325575061753061132360006110e0565b145b6113415760405162461bcd60e51b815260040161070990613690565b61134961152c565b6001600160a01b0316836001600160a01b0316148061136f575061136f8361063461152c565b61138b5760405162461bcd60e51b815260040161070990612fa9565b610d15838383611a79565b60166020526000908152604090205481565b6113b68686868686866114fc565b6001600160a01b0385166114595760005b8351811015611457578281815181106113f057634e487b7160e01b600052603260045260246000fd5b60200260200101516004600086848151811061141c57634e487b7160e01b600052603260045260246000fd5b6020026020010151815260200190815260200160002060008282546114419190613730565b9091555061145090508161382a565b90506113c7565b505b6001600160a01b0384166114fc5760005b83518110156114fa5782818151811061149357634e487b7160e01b600052603260045260246000fd5b6020026020010151600460008684815181106114bf57634e487b7160e01b600052603260045260246000fd5b6020026020010151815260200190815260200160002060008282546114e4919061377b565b909155506114f390508161382a565b905061146a565b505b505050505050565b6001600160a01b03163b151590565b6001600160e01b031981166301ffc9a760e01b14919050565b3390565b805161104090600390602084019061255b565b606060038054611552906137c2565b80601f016020809104026020016040519081016040528092919081815260200182805461157e906137c2565b80156115cb5780601f106115a0576101008083540402835291602001916115cb565b820191906000526020600020905b8154815290600101906020018083116115ae57829003601f168201915b50505050509050919050565b6060816115fc57506040805180820190915260018152600360fc1b6020820152610783565b8160005b811561162657806116108161382a565b915061161f9050600a83613748565b9150611600565b60008167ffffffffffffffff81111561164f57634e487b7160e01b600052604160045260246000fd5b6040519080825280601f01601f191660200182016040528015611679576020820181803683370190505b5090505b84156116f25761168e60018361377b565b915061169b600a86613845565b6116a6906030613730565b60f81b8183815181106116c957634e487b7160e01b600052603260045260246000fd5b60200101906001600160f81b031916908160001a9053506116eb600a86613748565b945061167d565b949350505050565b6001600160a01b0381166000908152600a602052604090205461172f5760405162461bcd60e51b81526004016107099061306d565b60006009544761173f9190613730565b6001600160a01b0383166000908152600b6020908152604080832054600854600a909352908320549394509192611776908561375c565b6117809190613748565b61178a919061377b565b9050806117a95760405162461bcd60e51b815260040161070990613147565b6001600160a01b0383166000908152600b60205260409020546117cd908290613730565b6001600160a01b0384166000908152600b60205260409020556009546117f4908290613730565b60095561180183826121e1565b7fdf20fd1e76bc69d672e4814fafb2c449bba3a5369d8359adf9e05e6fde87b0568382604051611832929190612caf565b60405180910390a1505050565b81518351146118605760405162461bcd60e51b815260040161070990613522565b6001600160a01b0384166118865760405162461bcd60e51b81526004016107099061326b565b600061189061152c565b90506118a081878787878761227d565b60005b84518110156119a55760008582815181106118ce57634e487b7160e01b600052603260045260246000fd5b6020026020010151905060008583815181106118fa57634e487b7160e01b600052603260045260246000fd5b60209081029190910181015160008481526001835260408082206001600160a01b038e16835290935291909120549091508181101561194b5760405162461bcd60e51b815260040161070990613345565b60008381526001602090815260408083206001600160a01b038e8116855292528083208585039055908b1682528120805484929061198a908490613730565b925050819055505050508061199e9061382a565b90506118a3565b50846001600160a01b0316866001600160a01b0316826001600160a01b03167f4a39dc06d4c0dbc64b70af90fd698a233a518aa5d07e595d983b8c0526c8f7fb87876040516119f5929190612d7e565b60405180910390a46114fc81878787878761228b565b611a13610c22565b611a2f5760405162461bcd60e51b815260040161070990612ea6565b6000805460ff191690557f5db9ee0a495bf2e6ff9c91a7834c1ba4fdd244a5e8aa4e537bd38aeae4b073aa611a6261152c565b604051611a6f9190612c9b565b60405180910390a1565b6001600160a01b038316611a9f5760405162461bcd60e51b815260040161070990613302565b6000611aa961152c565b9050611ad981856000611abb876123b0565b611ac4876123b0565b6040518060200160405280600081525061227d565b60008381526001602090815260408083206001600160a01b038816845290915290205482811015611b1c5760405162461bcd60e51b815260040161070990612f65565b60008481526001602090815260408083206001600160a01b03808a16808652919093528184208786039055905190918516907fc3d58168c5ae7397731d063d5bbf3d657854427343f4c083240f7aacaa2d0f6290611b7d90899089906136fe565b60405180910390a45050505050565b6001600160a01b038416611bb25760405162461bcd60e51b81526004016107099061359a565b6000611bbc61152c565b9050611bdd81600087611bce886123b0565b611bd7886123b0565b8761227d565b60008481526001602090815260408083206001600160a01b038916845290915281208054859290611c0f908490613730565b92505081905550846001600160a01b031660006001600160a01b0316826001600160a01b03167fc3d58168c5ae7397731d063d5bbf3d657854427343f4c083240f7aacaa2d0f628787604051611c669291906136fe565b60405180910390a461097181600087878787612409565b6001600160a01b038316611ca35760405162461bcd60e51b815260040161070990613302565b8051825114611cc45760405162461bcd60e51b815260040161070990613522565b6000611cce61152c565b9050611cee8185600086866040518060200160405280600081525061227d565b60005b8351811015611dd2576000848281518110611d1c57634e487b7160e01b600052603260045260246000fd5b602002602001015190506000848381518110611d4857634e487b7160e01b600052603260045260246000fd5b60209081029190910181015160008481526001835260408082206001600160a01b038c168352909352919091205490915081811015611d995760405162461bcd60e51b815260040161070990612f65565b60009283526001602090815260408085206001600160a01b038b1686529091529092209103905580611dca8161382a565b915050611cf1565b5060006001600160a01b0316846001600160a01b0316826001600160a01b03167f4a39dc06d4c0dbc64b70af90fd698a233a518aa5d07e595d983b8c0526c8f7fb8686604051611e23929190612d7e565b60405180910390a450505050565b600580546001600160a01b038381166001600160a01b0319831681179093556040519116919082907f8be0079c531659141344cd1fd0a4f28419497f9722a3daafe3b4186f6b6457e090600090a35050565b611e8b610c22565b15611ea85760405162461bcd60e51b815260040161070990613200565b6000805460ff191660011790557f62e78cea01bee320cd4e420270b5ea74000d11b0c9f74754ebdbfc544b05a258611a6261152c565b600082611eeb85846124da565b14949350505050565b600081118015611f095750600d5460ff168111155b611f255760405162461bcd60e51b815260040161070990612e6f565b61753081611f3360006110e0565b611f3d9190613730565b1115611f5b5760405162461bcd60e51b815260040161070990612ff2565b600e54611f68908261375c565b3414611f865760405162461bcd60e51b815260040161070990613659565b336000908152601660205260408120805460019290611fa6908490613730565b92505081905550611fc93360008360405180602001604052806000815250611b8c565b336001600160a01b031660007ffd51b2c9f55c42d2b72ac683526519563be02fc0107f034ff430c05185ff1b66836040516120049190612db7565b60405180910390a350565b816001600160a01b0316836001600160a01b031614156120415760405162461bcd60e51b815260040161070990613460565b6001600160a01b0383811660008181526002602090815260408083209487168084529490915290819020805460ff1916851515179055517f17307eab39ab6107e8899845ad3d59bd9653f200f220920489ca2b5937696c31906120a5908590612dac565b60405180910390a3505050565b6001600160a01b0384166120d85760405162461bcd60e51b81526004016107099061326b565b60006120e261152c565b90506120f3818787611bce886123b0565b60008481526001602090815260408083206001600160a01b038a168452909152902054838110156121365760405162461bcd60e51b815260040161070990613345565b60008581526001602090815260408083206001600160a01b038b8116855292528083208785039055908816825281208054869290612175908490613730565b92505081905550856001600160a01b0316876001600160a01b0316836001600160a01b03167fc3d58168c5ae7397731d063d5bbf3d657854427343f4c083240f7aacaa2d0f6288886040516121cb9291906136fe565b60405180910390a46114fa828888888888612409565b804710156122015760405162461bcd60e51b815260040161070990613110565b6000826001600160a01b03168260405161221a90610863565b60006040518083038185875af1925050503d8060008114612257576040519150601f19603f3d011682016040523d82523d6000602084013e61225c565b606091505b5050905080610d155760405162461bcd60e51b8152600401610709906130b3565b6114fc8686868686866113a8565b61229d846001600160a01b0316611504565b156114fc5760405163bc197c8160e01b81526001600160a01b0385169063bc197c81906122d69089908990889088908890600401612cc8565b602060405180830381600087803b1580156122f057600080fd5b505af1925050508015612320575060408051601f3d908101601f1916820190925261231d91810190612a62565b60015b6123805761232c61389b565b806308c379a0141561236657506123416138b2565b8061234c5750612368565b8060405162461bcd60e51b81526004016107099190612dc0565b505b60405162461bcd60e51b815260040161070990612dd3565b6001600160e01b0319811663bc197c8160e01b146114fa5760405162461bcd60e51b815260040161070990612e27565b604080516001808252818301909252606091600091906020808301908036833701905050905082816000815181106123f857634e487b7160e01b600052603260045260246000fd5b602090810291909101015292915050565b61241b846001600160a01b0316611504565b156114fc5760405163f23a6e6160e01b81526001600160a01b0385169063f23a6e61906124549089908990889088908890600401612d26565b602060405180830381600087803b15801561246e57600080fd5b505af192505050801561249e575060408051601f3d908101601f1916820190925261249b91810190612a62565b60015b6124aa5761232c61389b565b6001600160e01b0319811663f23a6e6160e01b146114fa5760405162461bcd60e51b815260040161070990612e27565b600081815b8451811015610c0757600085828151811061250a57634e487b7160e01b600052603260045260246000fd5b6020026020010151905080831161252c57612525838261254c565b9250612539565b612536818461254c565b92505b50806125448161382a565b9150506124df565b60009182526020526040902090565b828054612567906137c2565b90600052602060002090601f01602090048101928261258957600085556125cf565b82601f106125a257805160ff19168380011785556125cf565b828001600101855582156125cf579182015b828111156125cf5782518255916020019190600101906125b4565b506125db9291506125df565b5090565b5b808211156125db57600081556001016125e0565b600067ffffffffffffffff83111561260e5761260e613885565b604051612625601f8501601f1916602001826137fd565b80915083815284848401111561263a57600080fd5b83836020830137600060208583010152509392505050565b600082601f830112612662578081fd5b8135602061266f8261370c565b60405161267c82826137fd565b838152828101915085830183850287018401881015612699578586fd5b855b858110156126b75781358452928401929084019060010161269b565b5090979650505050505050565b600082601f8301126126d4578081fd5b6126e3838335602085016125f4565b9392505050565b803560ff8116811461078357600080fd5b60006020828403121561270c578081fd5b81356126e381613944565b60008060408385031215612729578081fd5b823561273481613944565b9150602083013561274481613944565b809150509250929050565b600080600080600060a08688031215612766578081fd5b853561277181613944565b9450602086013561278181613944565b9350604086013567ffffffffffffffff8082111561279d578283fd5b6127a989838a01612652565b945060608801359150808211156127be578283fd5b6127ca89838a01612652565b935060808801359150808211156127df578283fd5b506127ec888289016126c4565b9150509295509295909350565b600080600080600060a08688031215612810578081fd5b853561281b81613944565b9450602086013561282b81613944565b93506040860135925060608601359150608086013567ffffffffffffffff811115612854578182fd5b6127ec888289016126c4565b600080600060608486031215612874578283fd5b833561287f81613944565b9250602084013567ffffffffffffffff8082111561289b578384fd5b6128a787838801612652565b935060408601359150808211156128bc578283fd5b506128c986828701612652565b9150509250925092565b600080604083850312156128e5578182fd5b82356128f081613944565b915060208301358015158114612744578182fd5b60008060408385031215612916578182fd5b823561292181613944565b946020939093013593505050565b600080600060608486031215612943578081fd5b833561294e81613944565b95602085013595506040909401359392505050565b60008060408385031215612975578182fd5b823567ffffffffffffffff8082111561298c578384fd5b818501915085601f83011261299f578384fd5b813560206129ac8261370c565b6040516129b982826137fd565b8381528281019150858301838502870184018b10156129d6578889fd5b8896505b84871015612a015780356129ed81613944565b8352600196909601959183019183016129da565b5096505086013592505080821115612a17578283fd5b50612a2485828601612652565b9150509250929050565b600060208284031215612a3f578081fd5b5035919050565b600060208284031215612a57578081fd5b81356126e381613959565b600060208284031215612a73578081fd5b81516126e381613959565b600060208284031215612a8f578081fd5b813567ffffffffffffffff811115612aa5578182fd5b8201601f81018413612ab5578182fd5b6116f2848235602084016125f4565b60008060408385031215612ad6578182fd5b50508035926020909101359150565b60008060008060608587031215612afa578182fd5b8435935060208501359250604085013567ffffffffffffffff80821115612b1f578384fd5b818701915087601f830112612b32578384fd5b813581811115612b40578485fd5b8860208083028501011115612b53578485fd5b95989497505060200194505050565b600080600080600060a08688031215612b79578283fd5b505083359560208501359550604085013594606081013594506080013592509050565b600080600060608486031215612bb0578081fd5b612bb9846126ea565b9250612bc7602085016126ea565b9150612bd5604085016126ea565b90509250925092565b6000815180845260208085019450808401835b83811015612c0d57815187529582019590820190600101612bf1565b509495945050505050565b60008151808452612c30816020860160208601613792565b601f01601f19169290920160200192915050565b60008351612c56818460208801613792565b835190830190612c6a818360208801613792565b01949350505050565b92835260609190911b6bffffffffffffffffffffffff19166020830152603482015260540190565b6001600160a01b0391909116815260200190565b6001600160a01b03929092168252602082015260400190565b6001600160a01b0386811682528516602082015260a060408201819052600090612cf490830186612bde565b8281036060840152612d068186612bde565b90508281036080840152612d1a8185612c18565b98975050505050505050565b6001600160a01b03868116825285166020820152604081018490526060810183905260a060808201819052600090612d6090830184612c18565b979650505050505050565b6000602082526126e36020830184612bde565b600060408252612d916040830185612bde565b8281036020840152612da38185612bde565b95945050505050565b901515815260200190565b90815260200190565b6000602082526126e36020830184612c18565b60208082526034908201527f455243313135353a207472616e7366657220746f206e6f6e20455243313135356040820152732932b1b2b4bb32b91034b6b83632b6b2b73a32b960611b606082015260800190565b60208082526028908201527f455243313135353a204552433131353552656365697665722072656a656374656040820152676420746f6b656e7360c01b606082015260800190565b6020808252601b908201527f50757263686173653a20616d6f756e742070726f686962697465640000000000604082015260600190565b60208082526014908201527314185d5cd8589b194e881b9bdd081c185d5cd95960621b604082015260600190565b6020808252602b908201527f455243313135353a2062616c616e636520717565727920666f7220746865207a60408201526a65726f206164647265737360a81b606082015260800190565b60208082526026908201527f4f776e61626c653a206e6577206f776e657220697320746865207a65726f206160408201526564647265737360d01b606082015260800190565b60208082526024908201527f455243313135353a206275726e20616d6f756e7420657863656564732062616c604082015263616e636560e01b606082015260800190565b60208082526029908201527f455243313135353a2063616c6c6572206973206e6f74206f776e6572206e6f7260408201526808185c1c1c9bdd995960ba1b606082015260800190565b6020808252601c908201527f50757263686173653a204d617820737570706c79207265616368656400000000604082015260600190565b60208082526024908201527f4275726e43617264466f724f746865723a20616d6f756e74206e6f7420616c6c6040820152631bddd95960e21b606082015260800190565b60208082526026908201527f5061796d656e7453706c69747465723a206163636f756e7420686173206e6f2060408201526573686172657360d01b606082015260800190565b6020808252603a908201527f416464726573733a20756e61626c6520746f2073656e642076616c75652c207260408201527f6563697069656e74206d61792068617665207265766572746564000000000000606082015260800190565b6020808252601d908201527f416464726573733a20696e73756666696369656e742062616c616e6365000000604082015260600190565b6020808252602b908201527f5061796d656e7453706c69747465723a206163636f756e74206973206e6f742060408201526a191d59481c185e5b595b9d60aa1b606082015260800190565b60208082526017908201527f50757263686173653a2077696e646f7720636c6f736564000000000000000000604082015260600190565b60208082526017908201527f43616e6e6f7420676f2062656c6f772073746167652031000000000000000000604082015260600190565b60208082526010908201526f14185d5cd8589b194e881c185d5cd95960821b604082015260600190565b60208082526021908201527f4d65726b6c654469737472696275746f723a20496e76616c69642070726f6f666040820152601760f91b606082015260800190565b60208082526025908201527f455243313135353a207472616e7366657220746f20746865207a65726f206164604082015264647265737360d81b606082015260800190565b60208082526032908201527f455243313135353a207472616e736665722063616c6c6572206973206e6f74206040820152711bdddb995c881b9bdc88185c1c1c9bdd995960721b606082015260800190565b60208082526023908201527f455243313135353a206275726e2066726f6d20746865207a65726f206164647260408201526265737360e81b606082015260800190565b6020808252602a908201527f455243313135353a20696e73756666696369656e742062616c616e636520666f60408201526939103a3930b739b332b960b11b606082015260800190565b6020808252818101527f4f776e61626c653a2063616c6c6572206973206e6f7420746865206f776e6572604082015260600190565b6020808252601690820152752aa9249d103737b732bc34b9ba32b73a103a37b5b2b760511b604082015260600190565b6020808252818101527f4561726c79206163636573733a206d617820737570706c792072656163686564604082015260600190565b6020808252601b908201527f4561726c79206163636573733a2077696e646f7720636c6f7365640000000000604082015260600190565b60208082526029908201527f455243313135353a2073657474696e6720617070726f76616c20737461747573604082015268103337b91039b2b63360b91b606082015260800190565b6020808252601690820152751b585e081d1e08185b5bdd5b9d08195e18d95959195960521b604082015260600190565b60208082526029908201527f455243313135353a206163636f756e747320616e6420696473206c656e677468604082015268040dad2e6dac2e8c6d60bb1b606082015260800190565b60208082526028908201527f455243313135353a2069647320616e6420616d6f756e7473206c656e677468206040820152670dad2e6dac2e8c6d60c31b606082015260800190565b6020808252601690820152752932b632b0b9b29d103737903832b936b4b9b9b4b7b760511b604082015260600190565b60208082526021908201527f455243313135353a206d696e7420746f20746865207a65726f206164647265736040820152607360f81b606082015260800190565b60208082526027908201527f4275726e43617264466f724f746865723a20636172642063616e6e6f7420626560408201526608189d5c9b995960ca1b606082015260800190565b6020808252601e908201527f77696e646f7720636f6d62696e6174696f6e206e6f7420616c6c6f7765640000604082015260600190565b6020808252601b908201527f50757263686173653a20496e636f7272656374207061796d656e740000000000604082015260600190565b6020808252601d908201527f4275726e3a206e6f7420616c6c6f77656420647572696e672073616c65000000604082015260600190565b6020808252601f908201527f4275726e43617264466f724f746865723a2077696e646f7720636c6f73656400604082015260600190565b918252602082015260400190565b600067ffffffffffffffff82111561372657613726613885565b5060209081020190565b6000821982111561374357613743613859565b500190565b6000826137575761375761386f565b500490565b600081600019048311821515161561377657613776613859565b500290565b60008282101561378d5761378d613859565b500390565b60005b838110156137ad578181015183820152602001613795565b838111156137bc576000848401525b50505050565b6002810460018216806137d657607f821691505b602082108114156137f757634e487b7160e01b600052602260045260246000fd5b50919050565b601f8201601f1916810167ffffffffffffffff8111828210171561382357613823613885565b6040525050565b600060001982141561383e5761383e613859565b5060010190565b6000826138545761385461386f565b500690565b634e487b7160e01b600052601160045260246000fd5b634e487b7160e01b600052601260045260246000fd5b634e487b7160e01b600052604160045260246000fd5b600060033d111561086357600481823e5160e01c90565b600060443d10156138c257610863565b6040516003193d81016004833e81513d67ffffffffffffffff81602484011181841117156138f4575050505050610863565b828501915081518181111561390e57505050505050610863565b843d870101602082850101111561392a57505050505050610863565b613939602082860101876137fd565b509094505050505090565b6001600160a01b03811681146107d057600080fd5b6001600160e01b0319811681146107d057600080fdfea2646970667358221220befaa6cfcf3dce6e3476fe7b0df9c998dbf59a461b2aeb9ba50f0ea399138c3364736f6c63430008010033",
  "linkReferences": {},
  "deployedLinkReferences": {}
}