{
  "_format": "hh-sol-artifact-1",
  "contractName": "TestToken1",
  "sourceName": "contracts/Uniswap/TestToken1.sol",
  "abi": [
    {
      "inputs": [],
      "stateMutability": "nonpayable",
      "type": "constructor"
    },
    {
      "anonymous": false,
      "inputs": [
        {
          "indexed": true,
          "internalType": "address",
          "name": "owner",
          "type": "address"
        },
        {
          "indexed": true,
          "internalType": "address",
          "name": "spender",
          "type": "address"
        },
        {
          "indexed": false,
          "internalType": "uint256",
          "name": "value",
          "type": "uint256"
        }
      ],
      "name": "Approval",
      "type": "event"
    },
    {
      "anonymous": false,
      "inputs": [
        {
          "indexed": true,
          "internalType": "address",
          "name": "previousOwner",
          "type": "address"
        },
        {
          "indexed": true,
          "internalType": "address",
          "name": "newOwner",
          "type": "address"
        }
      ],
      "name": "OwnershipTransferred",
      "type": "event"
    },
    {
      "anonymous": false,
      "inputs": [
        {
          "indexed": true,
          "internalType": "address",
          "name": "from",
          "type": "address"
        },
        {
          "indexed": true,
          "internalType": "address",
          "name": "to",
          "type": "address"
        },
        {
          "indexed": false,
          "internalType": "uint256",
          "name": "value",
          "type": "uint256"
        }
      ],
      "name": "Transfer",
      "type": "event"
    },
    {
      "inputs": [],
      "name": "INITIAL_SUPPLY",
      "outputs": [
        {
          "internalType": "uint256",
          "name": "",
          "type": "uint256"
        }
      ],
      "stateMutability": "view",
      "type": "function"
    },
    {
      "inputs": [],
      "name": "MAX_SUPPLY",
      "outputs": [
        {
          "internalType": "uint256",
          "name": "",
          "type": "uint256"
        }
      ],
      "stateMutability": "view",
      "type": "function"
    },
    {
      "inputs": [
        {
          "internalType": "address",
          "name": "owner",
          "type": "address"
        },
        {
          "internalType": "address",
          "name": "spender",
          "type": "address"
        }
      ],
      "name": "allowance",
      "outputs": [
        {
          "internalType": "uint256",
          "name": "",
          "type": "uint256"
        }
      ],
      "stateMutability": "view",
      "type": "function"
    },
    {
      "inputs": [
        {
          "internalType": "address",
          "name": "spender",
          "type": "address"
        },
        {
          "internalType": "uint256",
          "name": "amount",
          "type": "uint256"
        }
      ],
      "name": "approve",
      "outputs": [
        {
          "internalType": "bool",
          "name": "",
          "type": "bool"
        }
      ],
      "stateMutability": "nonpayable",
      "type": "function"
    },
    {
      "inputs": [
        {
          "internalType": "address",
          "name": "account",
          "type": "address"
        }
      ],
      "name": "balanceOf",
      "outputs": [
        {
          "internalType": "uint256",
          "name": "",
          "type": "uint256"
        }
      ],
      "stateMutability": "view",
      "type": "function"
    },
    {
      "inputs": [],
      "name": "decimals",
      "outputs": [
        {
          "internalType": "uint8",
          "name": "",
          "type": "uint8"
        }
      ],
      "stateMutability": "view",
      "type": "function"
    },
    {
      "inputs": [
        {
          "internalType": "address",
          "name": "spender",
          "type": "address"
        },
        {
          "internalType": "uint256",
          "name": "subtractedValue",
          "type": "uint256"
        }
      ],
      "name": "decreaseAllowance",
      "outputs": [
        {
          "internalType": "bool",
          "name": "",
          "type": "bool"
        }
      ],
      "stateMutability": "nonpayable",
      "type": "function"
    },
    {
      "inputs": [
        {
          "internalType": "address",
          "name": "spender",
          "type": "address"
        },
        {
          "internalType": "uint256",
          "name": "addedValue",
          "type": "uint256"
        }
      ],
      "name": "increaseAllowance",
      "outputs": [
        {
          "internalType": "bool",
          "name": "",
          "type": "bool"
        }
      ],
      "stateMutability": "nonpayable",
      "type": "function"
    },
    {
      "inputs": [
        {
          "internalType": "address",
          "name": "_to",
          "type": "address"
        },
        {
          "internalType": "uint256",
          "name": "_amount",
          "type": "uint256"
        }
      ],
      "name": "mint",
      "outputs": [],
      "stateMutability": "nonpayable",
      "type": "function"
    },
    {
      "inputs": [],
      "name": "minter",
      "outputs": [
        {
          "internalType": "address",
          "name": "",
          "type": "address"
        }
      ],
      "stateMutability": "view",
      "type": "function"
    },
    {
      "inputs": [],
      "name": "name",
      "outputs": [
        {
          "internalType": "string",
          "name": "",
          "type": "string"
        }
      ],
      "stateMutability": "view",
      "type": "function"
    },
    {
      "inputs": [],
      "name": "owner",
      "outputs": [
        {
          "internalType": "address",
          "name": "",
          "type": "address"
        }
      ],
      "stateMutability": "view",
      "type": "function"
    },
    {
      "inputs": [],
      "name": "renounceOwnership",
      "outputs": [],
      "stateMutability": "nonpayable",
      "type": "function"
    },
    {
      "inputs": [],
      "name": "symbol",
      "outputs": [
        {
          "internalType": "string",
          "name": "",
          "type": "string"
        }
      ],
      "stateMutability": "view",
      "type": "function"
    },
    {
      "inputs": [],
      "name": "totalSupply",
      "outputs": [
        {
          "internalType": "uint256",
          "name": "",
          "type": "uint256"
        }
      ],
      "stateMutability": "view",
      "type": "function"
    },
    {
      "inputs": [
        {
          "internalType": "address",
          "name": "recipient",
          "type": "address"
        },
        {
          "internalType": "uint256",
          "name": "amount",
          "type": "uint256"
        }
      ],
      "name": "transfer",
      "outputs": [
        {
          "internalType": "bool",
          "name": "",
          "type": "bool"
        }
      ],
      "stateMutability": "nonpayable",
      "type": "function"
    },
    {
      "inputs": [
        {
          "internalType": "address",
          "name": "sender",
          "type": "address"
        },
        {
          "internalType": "address",
          "name": "recipient",
          "type": "address"
        },
        {
          "internalType": "uint256",
          "name": "amount",
          "type": "uint256"
        }
      ],
      "name": "transferFrom",
      "outputs": [
        {
          "internalType": "bool",
          "name": "",
          "type": "bool"
        }
      ],
      "stateMutability": "nonpayable",
      "type": "function"
    },
    {
      "inputs": [
        {
          "internalType": "address",
          "name": "newOwner",
          "type": "address"
        }
      ],
      "name": "transferOwnership",
      "outputs": [],
      "stateMutability": "nonpayable",
      "type": "function"
    },
    {
      "inputs": [
        {
          "internalType": "address",
          "name": "newMinter",
          "type": "address"
        }
      ],
      "name": "updateMinter",
      "outputs": [],
      "stateMutability": "nonpayable",
      "type": "function"
    }
  ],
  "bytecode": "0x60806040523480156200001157600080fd5b506040518060400160405280600c81526020016b5465737420546f6b656e203160a01b8152506040518060400160405280600381526020016254543160e81b81525081600390805190602001906200006b92919062000232565b5080516200008190600490602084019062000232565b5050506200009e62000098620000e660201b60201c565b620000ea565b620000b6620000ac6200013c565b620f42406200014b565b620000c0620000e6565b600680546001600160a01b0319166001600160a01b03929092169190911790556200037a565b3390565b600580546001600160a01b038381166001600160a01b0319831681179093556040519116919082907f8be0079c531659141344cd1fd0a4f28419497f9722a3daafe3b4186f6b6457e090600090a35050565b6005546001600160a01b031690565b6001600160a01b0382166200017d5760405162461bcd60e51b81526004016200017490620002d8565b60405180910390fd5b6200018b600083836200022d565b80600260008282546200019f919062000318565b90915550506001600160a01b03821660009081526020819052604081208054839290620001ce90849062000318565b90915550506040516001600160a01b038316906000907fddf252ad1be2c89b69c2b068fc378daa952ba7f163c4a11628f55a4df523b3ef90620002139085906200030f565b60405180910390a362000229600083836200022d565b5050565b505050565b82805462000240906200033d565b90600052602060002090601f016020900481019282620002645760008555620002af565b82601f106200027f57805160ff1916838001178555620002af565b82800160010185558215620002af579182015b82811115620002af57825182559160200191906001019062000292565b50620002bd929150620002c1565b5090565b5b80821115620002bd5760008155600101620002c2565b6020808252601f908201527f45524332303a206d696e7420746f20746865207a65726f206164647265737300604082015260600190565b90815260200190565b600082198211156200033857634e487b7160e01b81526011600452602481fd5b500190565b6002810460018216806200035257607f821691505b602082108114156200037457634e487b7160e01b600052602260045260246000fd5b50919050565b610e38806200038a6000396000f3fe608060405234801561001057600080fd5b50600436106101215760003560e01c806340c10f19116100ad57806395d89b411161007157806395d89b4114610224578063a457c2d71461022c578063a9059cbb1461023f578063dd62ed3e14610252578063f2fde38b1461026557610121565b806340c10f19146101d95780634eb03f6e146101ee57806370a0823114610201578063715018a6146102145780638da5cb5b1461021c57610121565b806323b872dd116100f457806323b872dd1461018e5780632ff2e9dc146101a1578063313ce567146101a957806332cb6b0c146101be57806339509351146101c657610121565b806306fdde03146101265780630754617214610144578063095ea7b31461015957806318160ddd14610179575b600080fd5b61012e610278565b60405161013b9190610a96565b60405180910390f35b61014c61030a565b60405161013b9190610a77565b61016c610167366004610a4e565b610364565b60405161013b9190610a8b565b610181610386565b60405161013b9190610d6b565b61016c61019c366004610a13565b61038c565b6101816103cf565b6101b16103d6565b60405161013b9190610d74565b6101816103db565b61016c6101d4366004610a4e565b6103ea565b6101ec6101e7366004610a4e565b610431565b005b6101ec6101fc3660046109c0565b6104a7565b61018161020f3660046109c0565b610508565b6101ec610527565b61014c610572565b61012e610581565b61016c61023a366004610a4e565b610590565b61016c61024d366004610a4e565b6105f1565b6101816102603660046109e1565b61060e565b6101ec6102733660046109c0565b610639565b60606003805461028790610db1565b80601f01602080910402602001604051908101604052809291908181526020018280546102b390610db1565b80156103005780601f106102d557610100808354040283529160200191610300565b820191906000526020600020905b8154815290600101906020018083116102e357829003601f168201915b5050505050905090565b60006103146106aa565b6001600160a01b0316610325610572565b6001600160a01b0316146103545760405162461bcd60e51b815260040161034b90610c31565b60405180910390fd5b506006546001600160a01b031690565b60008061036f6106aa565b905061037c8185856106ae565b5060019392505050565b60025490565b6000610399848484610762565b60006103a7856102606106aa565b90506103c4856103b56106aa565b6103bf8685610d9a565b6106ae565b506001949350505050565b620f424081565b601290565b6a084595161401484a00000081565b6000806103f56106aa565b6001600160a01b0380821660009081526001602090815260408083209389168352929052205490915061037c90829086906103bf908790610d82565b600061043b610386565b90506a084595161401484a00000081106104675760405162461bcd60e51b815260040161034b90610bfa565b600061047e826a084595161401484a000000610d9a565b905082811115610497576104928484610886565b6104a1565b6104a18482610886565b50505050565b6104af6106aa565b6001600160a01b03166104c0610572565b6001600160a01b0316146104e65760405162461bcd60e51b815260040161034b90610c31565b600680546001600160a01b0319166001600160a01b0392909216919091179055565b6001600160a01b0381166000908152602081905260409020545b919050565b61052f6106aa565b6001600160a01b0316610540610572565b6001600160a01b0316146105665760405162461bcd60e51b815260040161034b90610c31565b6105706000610952565b565b6005546001600160a01b031690565b60606004805461028790610db1565b60008061059b6106aa565b6001600160a01b03808216600090815260016020908152604080832093891683529290522054909150838110156105e45760405162461bcd60e51b815260040161034b90610cef565b6103c482868684036106ae565b60006106056105fe6106aa565b8484610762565b50600192915050565b6001600160a01b03918216600090815260016020908152604080832093909416825291909152205490565b6106416106aa565b6001600160a01b0316610652610572565b6001600160a01b0316146106785760405162461bcd60e51b815260040161034b90610c31565b6001600160a01b03811661069e5760405162461bcd60e51b815260040161034b90610b2c565b6106a781610952565b50565b3390565b6001600160a01b0383166106d45760405162461bcd60e51b815260040161034b90610cab565b6001600160a01b0382166106fa5760405162461bcd60e51b815260040161034b90610b72565b6001600160a01b0380841660008181526001602090815260408083209487168084529490915290819020849055517f8c5be1e5ebec7d5bd14f71427d1e84f3dd0314c0f7b2291e5b200ac8c7c3b92590610755908590610d6b565b60405180910390a3505050565b6001600160a01b0383166107885760405162461bcd60e51b815260040161034b90610c66565b6001600160a01b0382166107ae5760405162461bcd60e51b815260040161034b90610ae9565b6107b98383836109a4565b6001600160a01b038316600090815260208190526040902054818110156107f25760405162461bcd60e51b815260040161034b90610bb4565b6001600160a01b03808516600090815260208190526040808220858503905591851681529081208054849290610829908490610d82565b92505081905550826001600160a01b0316846001600160a01b03167fddf252ad1be2c89b69c2b068fc378daa952ba7f163c4a11628f55a4df523b3ef846040516108739190610d6b565b60405180910390a36104a18484846109a4565b6001600160a01b0382166108ac5760405162461bcd60e51b815260040161034b90610d34565b6108b8600083836109a4565b80600260008282546108ca9190610d82565b90915550506001600160a01b038216600090815260208190526040812080548392906108f7908490610d82565b90915550506040516001600160a01b038316906000907fddf252ad1be2c89b69c2b068fc378daa952ba7f163c4a11628f55a4df523b3ef9061093a908590610d6b565b60405180910390a361094e600083836109a4565b5050565b600580546001600160a01b038381166001600160a01b0319831681179093556040519116919082907f8be0079c531659141344cd1fd0a4f28419497f9722a3daafe3b4186f6b6457e090600090a35050565b505050565b80356001600160a01b038116811461052257600080fd5b6000602082840312156109d1578081fd5b6109da826109a9565b9392505050565b600080604083850312156109f3578081fd5b6109fc836109a9565b9150610a0a602084016109a9565b90509250929050565b600080600060608486031215610a27578081fd5b610a30846109a9565b9250610a3e602085016109a9565b9150604084013590509250925092565b60008060408385031215610a60578182fd5b610a69836109a9565b946020939093013593505050565b6001600160a01b0391909116815260200190565b901515815260200190565b6000602080835283518082850152825b81811015610ac257858101830151858201604001528201610aa6565b81811115610ad35783604083870101525b50601f01601f1916929092016040019392505050565b60208082526023908201527f45524332303a207472616e7366657220746f20746865207a65726f206164647260408201526265737360e81b606082015260800190565b60208082526026908201527f4f776e61626c653a206e6577206f776e657220697320746865207a65726f206160408201526564647265737360d01b606082015260800190565b60208082526022908201527f45524332303a20617070726f766520746f20746865207a65726f206164647265604082015261737360f01b606082015260800190565b60208082526026908201527f45524332303a207472616e7366657220616d6f756e7420657863656564732062604082015265616c616e636560d01b606082015260800190565b6020808252601c908201527f65786365656420746f74616c20737570706c79206f6620746f6b656e00000000604082015260600190565b6020808252818101527f4f776e61626c653a2063616c6c6572206973206e6f7420746865206f776e6572604082015260600190565b60208082526025908201527f45524332303a207472616e736665722066726f6d20746865207a65726f206164604082015264647265737360d81b606082015260800190565b60208082526024908201527f45524332303a20617070726f76652066726f6d20746865207a65726f206164646040820152637265737360e01b606082015260800190565b60208082526025908201527f45524332303a2064656372656173656420616c6c6f77616e63652062656c6f77604082015264207a65726f60d81b606082015260800190565b6020808252601f908201527f45524332303a206d696e7420746f20746865207a65726f206164647265737300604082015260600190565b90815260200190565b60ff91909116815260200190565b60008219821115610d9557610d95610dec565b500190565b600082821015610dac57610dac610dec565b500390565b600281046001821680610dc557607f821691505b60208210811415610de657634e487b7160e01b600052602260045260246000fd5b50919050565b634e487b7160e01b600052601160045260246000fdfea26469706673582212205707956cf8ab5f17cd9f7c15d742ef414d039c96b6467c24fb9a13dff7d08a9964736f6c63430008010033",
  "linkReferences": {},
  "deployedLinkReferences": {}
}