{
  "_format": "hh-sol-artifact-1",
  "contractName": "UniswapExchange",
  "sourceName": "contracts/UniswapV1/UniswapExchange.sol",
  "abi": [
    {
      "anonymous": false,
      "inputs": [
        {
          "indexed": true,
          "internalType": "address",
          "name": "provider",
          "type": "address"
        },
        {
          "indexed": true,
          "internalType": "uint256",
          "name": "eth_amount",
          "type": "uint256"
        },
        {
          "indexed": true,
          "internalType": "uint256",
          "name": "token_amount",
          "type": "uint256"
        }
      ],
      "name": "AddLiquidity",
      "type": "event"
    },
    {
      "anonymous": false,
      "inputs": [
        {
          "indexed": true,
          "internalType": "address",
          "name": "owner",
          "type": "address"
        },
        {
          "indexed": true,
          "internalType": "address",
          "name": "spender",
          "type": "address"
        },
        {
          "indexed": false,
          "internalType": "uint256",
          "name": "value",
          "type": "uint256"
        }
      ],
      "name": "Approval",
      "type": "event"
    },
    {
      "anonymous": false,
      "inputs": [
        {
          "indexed": true,
          "internalType": "address",
          "name": "buyer",
          "type": "address"
        },
        {
          "indexed": true,
          "internalType": "uint256",
          "name": "tokens_sold",
          "type": "uint256"
        },
        {
          "indexed": true,
          "internalType": "uint256",
          "name": "eth_bought",
          "type": "uint256"
        }
      ],
      "name": "EthPurchase",
      "type": "event"
    },
    {
      "anonymous": false,
      "inputs": [
        {
          "indexed": true,
          "internalType": "address",
          "name": "provider",
          "type": "address"
        },
        {
          "indexed": true,
          "internalType": "uint256",
          "name": "eth_amount",
          "type": "uint256"
        },
        {
          "indexed": true,
          "internalType": "uint256",
          "name": "token_amount",
          "type": "uint256"
        }
      ],
      "name": "RemoveLiquidity",
      "type": "event"
    },
    {
      "anonymous": false,
      "inputs": [
        {
          "indexed": true,
          "internalType": "address",
          "name": "buyer",
          "type": "address"
        },
        {
          "indexed": true,
          "internalType": "uint256",
          "name": "eth_sold",
          "type": "uint256"
        },
        {
          "indexed": true,
          "internalType": "uint256",
          "name": "tokens_bought",
          "type": "uint256"
        }
      ],
      "name": "TokenPurchase",
      "type": "event"
    },
    {
      "anonymous": false,
      "inputs": [
        {
          "indexed": true,
          "internalType": "address",
          "name": "from",
          "type": "address"
        },
        {
          "indexed": true,
          "internalType": "address",
          "name": "to",
          "type": "address"
        },
        {
          "indexed": false,
          "internalType": "uint256",
          "name": "value",
          "type": "uint256"
        }
      ],
      "name": "Transfer",
      "type": "event"
    },
    {
      "inputs": [
        {
          "internalType": "uint256",
          "name": "min_liquidity",
          "type": "uint256"
        },
        {
          "internalType": "uint256",
          "name": "max_tokens",
          "type": "uint256"
        },
        {
          "internalType": "uint256",
          "name": "deadline",
          "type": "uint256"
        }
      ],
      "name": "addLiquidity",
      "outputs": [
        {
          "internalType": "uint256",
          "name": "",
          "type": "uint256"
        }
      ],
      "stateMutability": "payable",
      "type": "function"
    },
    {
      "inputs": [
        {
          "internalType": "address",
          "name": "owner",
          "type": "address"
        },
        {
          "internalType": "address",
          "name": "spender",
          "type": "address"
        }
      ],
      "name": "allowance",
      "outputs": [
        {
          "internalType": "uint256",
          "name": "",
          "type": "uint256"
        }
      ],
      "stateMutability": "view",
      "type": "function"
    },
    {
      "inputs": [
        {
          "internalType": "address",
          "name": "spender",
          "type": "address"
        },
        {
          "internalType": "uint256",
          "name": "value",
          "type": "uint256"
        }
      ],
      "name": "approve",
      "outputs": [
        {
          "internalType": "bool",
          "name": "",
          "type": "bool"
        }
      ],
      "stateMutability": "nonpayable",
      "type": "function"
    },
    {
      "inputs": [
        {
          "internalType": "address",
          "name": "owner",
          "type": "address"
        }
      ],
      "name": "balanceOf",
      "outputs": [
        {
          "internalType": "uint256",
          "name": "",
          "type": "uint256"
        }
      ],
      "stateMutability": "view",
      "type": "function"
    },
    {
      "inputs": [],
      "name": "decimals",
      "outputs": [
        {
          "internalType": "uint256",
          "name": "",
          "type": "uint256"
        }
      ],
      "stateMutability": "view",
      "type": "function"
    },
    {
      "inputs": [
        {
          "internalType": "address",
          "name": "spender",
          "type": "address"
        },
        {
          "internalType": "uint256",
          "name": "subtractedValue",
          "type": "uint256"
        }
      ],
      "name": "decreaseAllowance",
      "outputs": [
        {
          "internalType": "bool",
          "name": "",
          "type": "bool"
        }
      ],
      "stateMutability": "nonpayable",
      "type": "function"
    },
    {
      "inputs": [
        {
          "internalType": "uint256",
          "name": "min_tokens",
          "type": "uint256"
        },
        {
          "internalType": "uint256",
          "name": "deadline",
          "type": "uint256"
        }
      ],
      "name": "ethToTokenSwapInput",
      "outputs": [
        {
          "internalType": "uint256",
          "name": "",
          "type": "uint256"
        }
      ],
      "stateMutability": "payable",
      "type": "function"
    },
    {
      "inputs": [
        {
          "internalType": "uint256",
          "name": "tokens_bought",
          "type": "uint256"
        },
        {
          "internalType": "uint256",
          "name": "deadline",
          "type": "uint256"
        }
      ],
      "name": "ethToTokenSwapOutput",
      "outputs": [
        {
          "internalType": "uint256",
          "name": "",
          "type": "uint256"
        }
      ],
      "stateMutability": "payable",
      "type": "function"
    },
    {
      "inputs": [
        {
          "internalType": "uint256",
          "name": "min_tokens",
          "type": "uint256"
        },
        {
          "internalType": "uint256",
          "name": "deadline",
          "type": "uint256"
        },
        {
          "internalType": "address",
          "name": "recipient",
          "type": "address"
        }
      ],
      "name": "ethToTokenTransferInput",
      "outputs": [
        {
          "internalType": "uint256",
          "name": "",
          "type": "uint256"
        }
      ],
      "stateMutability": "payable",
      "type": "function"
    },
    {
      "inputs": [
        {
          "internalType": "uint256",
          "name": "tokens_bought",
          "type": "uint256"
        },
        {
          "internalType": "uint256",
          "name": "deadline",
          "type": "uint256"
        },
        {
          "internalType": "address",
          "name": "recipient",
          "type": "address"
        }
      ],
      "name": "ethToTokenTransferOutput",
      "outputs": [
        {
          "internalType": "uint256",
          "name": "",
          "type": "uint256"
        }
      ],
      "stateMutability": "payable",
      "type": "function"
    },
    {
      "inputs": [],
      "name": "factoryAddress",
      "outputs": [
        {
          "internalType": "address",
          "name": "",
          "type": "address"
        }
      ],
      "stateMutability": "view",
      "type": "function"
    },
    {
      "inputs": [
        {
          "internalType": "uint256",
          "name": "eth_sold",
          "type": "uint256"
        }
      ],
      "name": "getEthToTokenInputPrice",
      "outputs": [
        {
          "internalType": "uint256",
          "name": "",
          "type": "uint256"
        }
      ],
      "stateMutability": "view",
      "type": "function"
    },
    {
      "inputs": [
        {
          "internalType": "uint256",
          "name": "tokens_bought",
          "type": "uint256"
        }
      ],
      "name": "getEthToTokenOutputPrice",
      "outputs": [
        {
          "internalType": "uint256",
          "name": "",
          "type": "uint256"
        }
      ],
      "stateMutability": "view",
      "type": "function"
    },
    {
      "inputs": [
        {
          "internalType": "uint256",
          "name": "input_amount",
          "type": "uint256"
        },
        {
          "internalType": "uint256",
          "name": "input_reserve",
          "type": "uint256"
        },
        {
          "internalType": "uint256",
          "name": "output_reserve",
          "type": "uint256"
        }
      ],
      "name": "getInputPrice",
      "outputs": [
        {
          "internalType": "uint256",
          "name": "",
          "type": "uint256"
        }
      ],
      "stateMutability": "view",
      "type": "function"
    },
    {
      "inputs": [
        {
          "internalType": "uint256",
          "name": "output_amount",
          "type": "uint256"
        },
        {
          "internalType": "uint256",
          "name": "input_reserve",
          "type": "uint256"
        },
        {
          "internalType": "uint256",
          "name": "output_reserve",
          "type": "uint256"
        }
      ],
      "name": "getOutputPrice",
      "outputs": [
        {
          "internalType": "uint256",
          "name": "",
          "type": "uint256"
        }
      ],
      "stateMutability": "view",
      "type": "function"
    },
    {
      "inputs": [
        {
          "internalType": "uint256",
          "name": "tokens_sold",
          "type": "uint256"
        }
      ],
      "name": "getTokenToEthInputPrice",
      "outputs": [
        {
          "internalType": "uint256",
          "name": "",
          "type": "uint256"
        }
      ],
      "stateMutability": "view",
      "type": "function"
    },
    {
      "inputs": [
        {
          "internalType": "uint256",
          "name": "eth_bought",
          "type": "uint256"
        }
      ],
      "name": "getTokenToEthOutputPrice",
      "outputs": [
        {
          "internalType": "uint256",
          "name": "",
          "type": "uint256"
        }
      ],
      "stateMutability": "view",
      "type": "function"
    },
    {
      "inputs": [
        {
          "internalType": "address",
          "name": "spender",
          "type": "address"
        },
        {
          "internalType": "uint256",
          "name": "addedValue",
          "type": "uint256"
        }
      ],
      "name": "increaseAllowance",
      "outputs": [
        {
          "internalType": "bool",
          "name": "",
          "type": "bool"
        }
      ],
      "stateMutability": "nonpayable",
      "type": "function"
    },
    {
      "inputs": [],
      "name": "name",
      "outputs": [
        {
          "internalType": "bytes32",
          "name": "",
          "type": "bytes32"
        }
      ],
      "stateMutability": "view",
      "type": "function"
    },
    {
      "inputs": [
        {
          "internalType": "uint256",
          "name": "amount",
          "type": "uint256"
        },
        {
          "internalType": "uint256",
          "name": "min_eth",
          "type": "uint256"
        },
        {
          "internalType": "uint256",
          "name": "min_tokens",
          "type": "uint256"
        },
        {
          "internalType": "uint256",
          "name": "deadline",
          "type": "uint256"
        }
      ],
      "name": "removeLiquidity",
      "outputs": [
        {
          "internalType": "uint256",
          "name": "",
          "type": "uint256"
        },
        {
          "internalType": "uint256",
          "name": "",
          "type": "uint256"
        }
      ],
      "stateMutability": "nonpayable",
      "type": "function"
    },
    {
      "inputs": [
        {
          "internalType": "address",
          "name": "token_addr",
          "type": "address"
        }
      ],
      "name": "setup",
      "outputs": [],
      "stateMutability": "nonpayable",
      "type": "function"
    },
    {
      "inputs": [],
      "name": "symbol",
      "outputs": [
        {
          "internalType": "bytes32",
          "name": "",
          "type": "bytes32"
        }
      ],
      "stateMutability": "view",
      "type": "function"
    },
    {
      "inputs": [],
      "name": "tokenAddress",
      "outputs": [
        {
          "internalType": "address",
          "name": "",
          "type": "address"
        }
      ],
      "stateMutability": "view",
      "type": "function"
    },
    {
      "inputs": [
        {
          "internalType": "uint256",
          "name": "tokens_sold",
          "type": "uint256"
        },
        {
          "internalType": "uint256",
          "name": "min_eth",
          "type": "uint256"
        },
        {
          "internalType": "uint256",
          "name": "deadline",
          "type": "uint256"
        }
      ],
      "name": "tokenToEthSwapInput",
      "outputs": [
        {
          "internalType": "uint256",
          "name": "",
          "type": "uint256"
        }
      ],
      "stateMutability": "nonpayable",
      "type": "function"
    },
    {
      "inputs": [
        {
          "internalType": "uint256",
          "name": "eth_bought",
          "type": "uint256"
        },
        {
          "internalType": "uint256",
          "name": "max_tokens",
          "type": "uint256"
        },
        {
          "internalType": "uint256",
          "name": "deadline",
          "type": "uint256"
        }
      ],
      "name": "tokenToEthSwapOutput",
      "outputs": [
        {
          "internalType": "uint256",
          "name": "",
          "type": "uint256"
        }
      ],
      "stateMutability": "nonpayable",
      "type": "function"
    },
    {
      "inputs": [
        {
          "internalType": "uint256",
          "name": "tokens_sold",
          "type": "uint256"
        },
        {
          "internalType": "uint256",
          "name": "min_eth",
          "type": "uint256"
        },
        {
          "internalType": "uint256",
          "name": "deadline",
          "type": "uint256"
        },
        {
          "internalType": "address payable",
          "name": "recipient",
          "type": "address"
        }
      ],
      "name": "tokenToEthTransferInput",
      "outputs": [
        {
          "internalType": "uint256",
          "name": "",
          "type": "uint256"
        }
      ],
      "stateMutability": "nonpayable",
      "type": "function"
    },
    {
      "inputs": [
        {
          "internalType": "uint256",
          "name": "eth_bought",
          "type": "uint256"
        },
        {
          "internalType": "uint256",
          "name": "max_tokens",
          "type": "uint256"
        },
        {
          "internalType": "uint256",
          "name": "deadline",
          "type": "uint256"
        },
        {
          "internalType": "address payable",
          "name": "recipient",
          "type": "address"
        }
      ],
      "name": "tokenToEthTransferOutput",
      "outputs": [
        {
          "internalType": "uint256",
          "name": "",
          "type": "uint256"
        }
      ],
      "stateMutability": "nonpayable",
      "type": "function"
    },
    {
      "inputs": [
        {
          "internalType": "uint256",
          "name": "tokens_sold",
          "type": "uint256"
        },
        {
          "internalType": "uint256",
          "name": "min_tokens_bought",
          "type": "uint256"
        },
        {
          "internalType": "uint256",
          "name": "min_eth_bought",
          "type": "uint256"
        },
        {
          "internalType": "uint256",
          "name": "deadline",
          "type": "uint256"
        },
        {
          "internalType": "address payable",
          "name": "exchange_addr",
          "type": "address"
        }
      ],
      "name": "tokenToExchangeSwapInput",
      "outputs": [
        {
          "internalType": "uint256",
          "name": "",
          "type": "uint256"
        }
      ],
      "stateMutability": "nonpayable",
      "type": "function"
    },
    {
      "inputs": [
        {
          "internalType": "uint256",
          "name": "tokens_bought",
          "type": "uint256"
        },
        {
          "internalType": "uint256",
          "name": "max_tokens_sold",
          "type": "uint256"
        },
        {
          "internalType": "uint256",
          "name": "max_eth_sold",
          "type": "uint256"
        },
        {
          "internalType": "uint256",
          "name": "deadline",
          "type": "uint256"
        },
        {
          "internalType": "address payable",
          "name": "exchange_addr",
          "type": "address"
        }
      ],
      "name": "tokenToExchangeSwapOutput",
      "outputs": [
        {
          "internalType": "uint256",
          "name": "",
          "type": "uint256"
        }
      ],
      "stateMutability": "nonpayable",
      "type": "function"
    },
    {
      "inputs": [
        {
          "internalType": "uint256",
          "name": "tokens_sold",
          "type": "uint256"
        },
        {
          "internalType": "uint256",
          "name": "min_tokens_bought",
          "type": "uint256"
        },
        {
          "internalType": "uint256",
          "name": "min_eth_bought",
          "type": "uint256"
        },
        {
          "internalType": "uint256",
          "name": "deadline",
          "type": "uint256"
        },
        {
          "internalType": "address",
          "name": "recipient",
          "type": "address"
        },
        {
          "internalType": "address payable",
          "name": "exchange_addr",
          "type": "address"
        }
      ],
      "name": "tokenToExchangeTransferInput",
      "outputs": [
        {
          "internalType": "uint256",
          "name": "",
          "type": "uint256"
        }
      ],
      "stateMutability": "nonpayable",
      "type": "function"
    },
    {
      "inputs": [
        {
          "internalType": "uint256",
          "name": "tokens_bought",
          "type": "uint256"
        },
        {
          "internalType": "uint256",
          "name": "max_tokens_sold",
          "type": "uint256"
        },
        {
          "internalType": "uint256",
          "name": "max_eth_sold",
          "type": "uint256"
        },
        {
          "internalType": "uint256",
          "name": "deadline",
          "type": "uint256"
        },
        {
          "internalType": "address",
          "name": "recipient",
          "type": "address"
        },
        {
          "internalType": "address payable",
          "name": "exchange_addr",
          "type": "address"
        }
      ],
      "name": "tokenToExchangeTransferOutput",
      "outputs": [
        {
          "internalType": "uint256",
          "name": "",
          "type": "uint256"
        }
      ],
      "stateMutability": "nonpayable",
      "type": "function"
    },
    {
      "inputs": [
        {
          "internalType": "uint256",
          "name": "tokens_sold",
          "type": "uint256"
        },
        {
          "internalType": "uint256",
          "name": "min_tokens_bought",
          "type": "uint256"
        },
        {
          "internalType": "uint256",
          "name": "min_eth_bought",
          "type": "uint256"
        },
        {
          "internalType": "uint256",
          "name": "deadline",
          "type": "uint256"
        },
        {
          "internalType": "address",
          "name": "token_addr",
          "type": "address"
        }
      ],
      "name": "tokenToTokenSwapInput",
      "outputs": [
        {
          "internalType": "uint256",
          "name": "",
          "type": "uint256"
        }
      ],
      "stateMutability": "nonpayable",
      "type": "function"
    },
    {
      "inputs": [
        {
          "internalType": "uint256",
          "name": "tokens_bought",
          "type": "uint256"
        },
        {
          "internalType": "uint256",
          "name": "max_tokens_sold",
          "type": "uint256"
        },
        {
          "internalType": "uint256",
          "name": "max_eth_sold",
          "type": "uint256"
        },
        {
          "internalType": "uint256",
          "name": "deadline",
          "type": "uint256"
        },
        {
          "internalType": "address",
          "name": "token_addr",
          "type": "address"
        }
      ],
      "name": "tokenToTokenSwapOutput",
      "outputs": [
        {
          "internalType": "uint256",
          "name": "",
          "type": "uint256"
        }
      ],
      "stateMutability": "nonpayable",
      "type": "function"
    },
    {
      "inputs": [
        {
          "internalType": "uint256",
          "name": "tokens_sold",
          "type": "uint256"
        },
        {
          "internalType": "uint256",
          "name": "min_tokens_bought",
          "type": "uint256"
        },
        {
          "internalType": "uint256",
          "name": "min_eth_bought",
          "type": "uint256"
        },
        {
          "internalType": "uint256",
          "name": "deadline",
          "type": "uint256"
        },
        {
          "internalType": "address",
          "name": "recipient",
          "type": "address"
        },
        {
          "internalType": "address",
          "name": "token_addr",
          "type": "address"
        }
      ],
      "name": "tokenToTokenTransferInput",
      "outputs": [
        {
          "internalType": "uint256",
          "name": "",
          "type": "uint256"
        }
      ],
      "stateMutability": "nonpayable",
      "type": "function"
    },
    {
      "inputs": [
        {
          "internalType": "uint256",
          "name": "tokens_bought",
          "type": "uint256"
        },
        {
          "internalType": "uint256",
          "name": "max_tokens_sold",
          "type": "uint256"
        },
        {
          "internalType": "uint256",
          "name": "max_eth_sold",
          "type": "uint256"
        },
        {
          "internalType": "uint256",
          "name": "deadline",
          "type": "uint256"
        },
        {
          "internalType": "address",
          "name": "recipient",
          "type": "address"
        },
        {
          "internalType": "address",
          "name": "token_addr",
          "type": "address"
        }
      ],
      "name": "tokenToTokenTransferOutput",
      "outputs": [
        {
          "internalType": "uint256",
          "name": "",
          "type": "uint256"
        }
      ],
      "stateMutability": "nonpayable",
      "type": "function"
    },
    {
      "inputs": [],
      "name": "totalSupply",
      "outputs": [
        {
          "internalType": "uint256",
          "name": "",
          "type": "uint256"
        }
      ],
      "stateMutability": "view",
      "type": "function"
    },
    {
      "inputs": [
        {
          "internalType": "address",
          "name": "to",
          "type": "address"
        },
        {
          "internalType": "uint256",
          "name": "value",
          "type": "uint256"
        }
      ],
      "name": "transfer",
      "outputs": [
        {
          "internalType": "bool",
          "name": "",
          "type": "bool"
        }
      ],
      "stateMutability": "nonpayable",
      "type": "function"
    },
    {
      "inputs": [
        {
          "internalType": "address",
          "name": "from",
          "type": "address"
        },
        {
          "internalType": "address",
          "name": "to",
          "type": "address"
        },
        {
          "internalType": "uint256",
          "name": "value",
          "type": "uint256"
        }
      ],
      "name": "transferFrom",
      "outputs": [
        {
          "internalType": "bool",
          "name": "",
          "type": "bool"
        }
      ],
      "stateMutability": "nonpayable",
      "type": "function"
    },
    {
      "stateMutability": "payable",
      "type": "receive"
    }
  ],
  "bytecode": "0x608060405234801561001057600080fd5b50612a3c806100206000396000f3fe6080604052600436106102295760003560e01c8063966dae0e11610123578063d4e4841d116100ab578063f39b5b9b1161006f578063f39b5b9b14610620578063f3c0efe914610633578063f552d91b14610653578063f88bf15a14610673578063fd11c223146106a15761023f565b8063d4e4841d14610580578063dd62ed3e146105a0578063ddf7e1a7146105c0578063ea650c7d146105e0578063ec384a3e146106005761023f565b8063a9059cbb116100f2578063a9059cbb146104ed578063ad65d76d1461050d578063b040d54514610520578063b1cb43bf14610540578063cd7724c3146105605761023f565b8063966dae0e14610476578063981a1327146104985780639d76ea58146104b8578063a457c2d7146104cd5761023f565b8063422f1043116101b15780637237e031116101755780637237e031146103e157806389f2a8711461040157806395b68fe71461042157806395d89b411461044157806395e3c50b146104565761023f565b8063422f10431461035957806359e948621461036c57806366d382031461038c5780636b1d4db7146103ae57806370a08231146103c15761023f565b806318160ddd116101f857806318160ddd146102cf57806323b872dd146102e45780632640f62c14610304578063313ce5671461032457806339509351146103395761023f565b8063013efd8b1461024457806306fdde031461027a578063095ea7b31461028f5780630b573638146102bc5761023f565b3661023f5761023c3460014233336106c1565b50005b600080fd5b34801561025057600080fd5b5061026461025f3660046125fb565b610860565b60405161027191906127b3565b60405180910390f35b34801561028657600080fd5b50610264610879565b34801561029b57600080fd5b506102af6102aa366004612527565b61087f565b60405161027191906127a8565b6102646102ca3660046125c3565b610895565b3480156102db57600080fd5b506102646108ce565b3480156102f057600080fd5b506102af6102ff3660046124e7565b6108d4565b34801561031057600080fd5b5061026461031f366004612572565b610925565b34801561033057600080fd5b506102646109c1565b34801561034557600080fd5b506102af610354366004612527565b6109c7565b6102646103673660046125fb565b6109fd565b34801561037857600080fd5b50610264610387366004612572565b610e63565b34801561039857600080fd5b506103ac6103a7366004612477565b610f09565b005b6102646103bc3660046125a2565b610fae565b3480156103cd57600080fd5b506102646103dc366004612477565b610fbd565b3480156103ed57600080fd5b506102646103fc366004612626565b610fd8565b34801561040d57600080fd5b5061026461041c3660046125fb565b61101a565b34801561042d57600080fd5b5061026461043c366004612572565b61108e565b34801561044d57600080fd5b5061026461112c565b34801561046257600080fd5b506102646104713660046125fb565b611132565b34801561048257600080fd5b5061048b611141565b6040516102719190612757565b3480156104a457600080fd5b506102646104b33660046126fa565b611150565b3480156104c457600080fd5b5061048b611177565b3480156104d957600080fd5b506102af6104e8366004612527565b611186565b3480156104f957600080fd5b506102af610508366004612527565b6111bc565b61026461051b3660046125c3565b6111c9565b34801561052c57600080fd5b5061026461053b366004612697565b611202565b34801561054c57600080fd5b5061026461055b3660046126e3565b611298565b34801561056c57600080fd5b5061026461057b366004612572565b6112b3565b34801561058c57600080fd5b5061026461059b366004612626565b61134f565b3480156105ac57600080fd5b506102646105bb3660046124af565b611388565b3480156105cc57600080fd5b506102646105db366004612697565b6113b3565b3480156105ec57600080fd5b506102646105fb3660046126e3565b611449565b34801561060c57600080fd5b5061026461061b3660046126fa565b61145a565b61026461062e3660046125a2565b611481565b34801561063f57600080fd5b5061026461064e3660046126fa565b611490565b34801561065f57600080fd5b5061026461066e3660046126fa565b611532565b34801561067f57600080fd5b5061069361068e366004612666565b6115c8565b6040516102719291906128fd565b3480156106ad57600080fd5b506102646106bc3660046125fb565b611844565b60004284101580156106d35750600086115b80156106df5750600085115b6106e857600080fd5b6006546040516370a0823160e01b81526000916001600160a01b0316906370a0823190610719903090600401612757565b60206040518083038186803b15801561073157600080fd5b505afa158015610745573d6000803e3d6000fd5b505050506040513d601f19601f82011682018060405250810190610769919061258a565b905060006107818861077b478261189b565b8461101a565b90508681101561079057600080fd5b60065460405163a9059cbb60e01b81526001600160a01b039091169063a9059cbb906107c2908790859060040161278f565b602060405180830381600087803b1580156107dc57600080fd5b505af11580156107f0573d6000803e3d6000fd5b505050506040513d601f19601f820116820180604052508101906108149190612552565b61081d57600080fd5b8088866001600160a01b03167fcd60aa75dea3072fbc07ae6d7d856b5dc5f4eee88854f5b4abf7b680ef8bc50f60405160405180910390a4979650505050505050565b600061086f84848433336118a7565b90505b9392505050565b60035481565b600061088c338484611a58565b50600192915050565b60006001600160a01b03821630148015906108b857506001600160a01b03821615155b6108c157600080fd5b61086f8434853386611ae6565b60025490565b60006108e1848484611cc5565b6001600160a01b03841660009081526001602090815260408083203380855292529091205461091b918691610916908661189b565b611a58565b5060019392505050565b600080821161093357600080fd5b6006546040516370a0823160e01b81526000916001600160a01b0316906370a0823190610964903090600401612757565b60206040518083038186803b15801561097c57600080fd5b505afa158015610990573d6000803e3d6000fd5b505050506040513d601f19601f820116820180604052508101906109b4919061258a565b9050610872838247611844565b60055481565b3360008181526001602090815260408083206001600160a01b0387168452909152812054909161088c9185906109169086611d6a565b60004282118015610a0e5750600083115b8015610a1a5750600034115b610a3f5760405162461bcd60e51b8152600401610a369061286d565b60405180910390fd5b6002548015610c6b5760008511610a5557600080fd5b6000610a61473461189b565b6006546040516370a0823160e01b81529192506000916001600160a01b03909116906370a0823190610a97903090600401612757565b60206040518083038186803b158015610aaf57600080fd5b505afa158015610ac3573d6000803e3d6000fd5b505050506040513d601f19601f82011682018060405250810190610ae7919061258a565b90506000610b0b600184610afb3486611d76565b610b059190612942565b90611d6a565b9050600083610b1a3487611d76565b610b249190612942565b9050818810158015610b365750888110155b610b3f57600080fd5b33600090815260208190526040902054610b599082611d6a565b33600090815260208190526040902055610b738582611d6a565b6002556006546040516323b872dd60e01b81526001600160a01b03909116906323b872dd90610baa9033903090879060040161276b565b602060405180830381600087803b158015610bc457600080fd5b505af1158015610bd8573d6000803e3d6000fd5b505050506040513d601f19601f82011682018060405250810190610bfc9190612552565b610c0557600080fd5b6040518290349033907f06239653922ac7bea6aa2b19dc486b9361821d37712eb796adfd38d81de278ca90600090a460405133906000906000805160206129c783398151915290610c579085906127b3565b60405180910390a394506108729350505050565b6007546001600160a01b031615801590610c8f57506006546001600160a01b031615155b8015610c9f5750633b9aca003410155b610cbb5760405162461bcd60e51b8152600401610a36906128d6565b6007546006546040516303795fb160e11b815230926001600160a01b03908116926306f2bf6292610cf29290911690600401612757565b60206040518083038186803b158015610d0a57600080fd5b505afa158015610d1e573d6000803e3d6000fd5b505050506040513d601f19601f82011682018060405250810190610d429190612493565b6001600160a01b031614610d5557600080fd5b476002819055336000818152602081905260409081902083905560065490516323b872dd60e01b81528793926001600160a01b03909216916323b872dd91610da491903090879060040161276b565b602060405180830381600087803b158015610dbe57600080fd5b505af1158015610dd2573d6000803e3d6000fd5b505050506040513d601f19601f82011682018060405250810190610df69190612552565b610dff57600080fd5b6040518290349033907f06239653922ac7bea6aa2b19dc486b9361821d37712eb796adfd38d81de278ca90600090a460405133906000906000805160206129c783398151915290610e519085906127b3565b60405180910390a39250610872915050565b6000808211610e7157600080fd5b6006546040516370a0823160e01b81526000916001600160a01b0316906370a0823190610ea2903090600401612757565b60206040518083038186803b158015610eba57600080fd5b505afa158015610ece573d6000803e3d6000fd5b505050506040513d601f19601f82011682018060405250810190610ef2919061258a565b90506000610f01844784611844565b949350505050565b6007546001600160a01b0316158015610f2b57506006546001600160a01b0316155b8015610f3f57506001600160a01b03811615155b610f5b5760405162461bcd60e51b8152600401610a3690612844565b60078054336001600160a01b031991821617909155600680549091166001600160a01b039290921691909117905569556e697377617020563160b01b60035565554e492d563160d01b6004556012600555565b60006108728334843333611ae6565b6001600160a01b031660009081526020819052604090205490565b60006001600160a01b0382163014801590610ffb57506001600160a01b03821615155b61100457600080fd5b6110118585853386611d82565b95945050505050565b6000808311801561102b5750600082115b6110475760405162461bcd60e51b8152600401610a369061280d565b6000611055856103e5611d76565b905060006110638285611d76565b9050600061107783610b05886103e8611d76565b90506110838183612942565b979650505050505050565b600080821161109c57600080fd5b6006546040516370a0823160e01b81526000916001600160a01b0316906370a08231906110cd903090600401612757565b60206040518083038186803b1580156110e557600080fd5b505afa1580156110f9573d6000803e3d6000fd5b505050506040513d601f19601f8201168201806040525081019061111d919061258a565b90506000610f0184834761101a565b60045481565b600061086f8484843333611d82565b6007546001600160a01b031690565b60006001600160a01b03831630141561116857600080fd5b61108387878787338888611f41565b6006546001600160a01b031690565b3360008181526001602090815260408083206001600160a01b0387168452909152812054909161088c918590610916908661189b565b600061088c338484611cc5565b60006001600160a01b03821630148015906111ec57506001600160a01b03821615155b6111f557600080fd5b61086f34858533866106c1565b6007546040516303795fb160e11b815260009182916001600160a01b03909116906306f2bf6290611237908690600401612757565b60206040518083038186803b15801561124f57600080fd5b505afa158015611263573d6000803e3d6000fd5b505050506040513d601f19601f820116820180604052508101906112879190612493565b905061108387878787333387611f41565b60006112a98686868633338861220b565b9695505050505050565b60008082116112c157600080fd5b6006546040516370a0823160e01b81526000916001600160a01b0316906370a08231906112f2903090600401612757565b60206040518083038186803b15801561130a57600080fd5b505afa15801561131e573d6000803e3d6000fd5b505050506040513d601f19601f82011682018060405250810190611342919061258a565b905061087283478361101a565b60006001600160a01b038216301480159061137257506001600160a01b03821615155b61137b57600080fd5b61101185858533866118a7565b6001600160a01b03918216600090815260016020908152604080832093909416825291909152205490565b6007546040516303795fb160e11b815260009182916001600160a01b03909116906306f2bf62906113e8908690600401612757565b60206040518083038186803b15801561140057600080fd5b505afa158015611414573d6000803e3d6000fd5b505050506040513d601f19601f820116820180604052508101906114389190612493565b90506110838787878733338761220b565b60006112a986868686333388611f41565b60006001600160a01b03831630141561147257600080fd5b6110838787878733888861220b565b600061087234848433336106c1565b6007546040516303795fb160e11b815260009182916001600160a01b03909116906306f2bf62906114c5908690600401612757565b60206040518083038186803b1580156114dd57600080fd5b505afa1580156114f1573d6000803e3d6000fd5b505050506040513d601f19601f820116820180604052508101906115159190612493565b905061152688888888338987611f41565b98975050505050505050565b6007546040516303795fb160e11b815260009182916001600160a01b03909116906306f2bf6290611567908690600401612757565b60206040518083038186803b15801561157f57600080fd5b505afa158015611593573d6000803e3d6000fd5b505050506040513d601f19601f820116820180604052508101906115b79190612493565b90506115268888888833898761220b565b6000806000861180156115da57504283115b80156115e65750600085115b80156115f25750600084115b61160e5760405162461bcd60e51b8152600401610a36906127bc565b6002548061161b57600080fd5b6006546040516370a0823160e01b81526000916001600160a01b0316906370a082319061164c903090600401612757565b60206040518083038186803b15801561166457600080fd5b505afa158015611678573d6000803e3d6000fd5b505050506040513d601f19601f8201168201806040525081019061169c919061258a565b90506000826116ab8a47611d76565b6116b59190612942565b90506000836116c48b85611d76565b6116ce9190612942565b90508882101580156116e05750878110155b6116e957600080fd5b33600090815260208190526040902054611703908b61189b565b3360009081526020819052604090205561171d848b61189b565b600255604051339083156108fc029084906000818181858888f1935050505015801561174d573d6000803e3d6000fd5b5060065460405163a9059cbb60e01b81526001600160a01b039091169063a9059cbb90611780903390859060040161278f565b602060405180830381600087803b15801561179a57600080fd5b505af11580156117ae573d6000803e3d6000fd5b505050506040513d601f19601f820116820180604052508101906117d29190612552565b6117db57600080fd5b6040518190839033907f0fbf06c058b90cb038a618f8c2acbf6145f8b3570fd1fa56abb8f0f3f05b36e890600090a460405160009033906000805160206129c78339815191529061182d908e906127b3565b60405180910390a390999098509650505050505050565b600080831180156118555750600082115b61185e57600080fd5b60006118766103e86118708688611d76565b90611d76565b9050600061188a6103e5611870868961189b565b90506112a96001610b058385612942565b60006108728284612981565b60004284101580156118b95750600086115b6118c257600080fd5b6006546040516370a0823160e01b81526000916001600160a01b0316906370a08231906118f3903090600401612757565b60206040518083038186803b15801561190b57600080fd5b505afa15801561191f573d6000803e3d6000fd5b505050506040513d601f19601f82011682018060405250810190611943919061258a565b90506000611952888347611844565b90508087101561196157600080fd5b6040516001600160a01b0385169089156108fc02908a906000818181858888f19350505050158015611997573d6000803e3d6000fd5b506006546040516323b872dd60e01b81526001600160a01b03909116906323b872dd906119cc9088903090869060040161276b565b602060405180830381600087803b1580156119e657600080fd5b505af11580156119fa573d6000803e3d6000fd5b505050506040513d601f19601f82011682018060405250810190611a1e9190612552565b611a2757600080fd5b8781866001600160a01b03166000805160206129e783398151915260405160405180910390a4979650505050505050565b6001600160a01b038216611a6b57600080fd5b6001600160a01b038316611a7e57600080fd5b6001600160a01b0380841660008181526001602090815260408083209487168084529490915290819020849055517f8c5be1e5ebec7d5bd14f71427d1e84f3dd0314c0f7b2291e5b200ac8c7c3b92590611ad99085906127b3565b60405180910390a3505050565b6000428410158015611af85750600086115b8015611b045750600085115b611b0d57600080fd5b6006546040516370a0823160e01b81526000916001600160a01b0316906370a0823190611b3e903090600401612757565b60206040518083038186803b158015611b5657600080fd5b505afa158015611b6a573d6000803e3d6000fd5b505050506040513d601f19601f82011682018060405250810190611b8e919061258a565b90506000611ba688611ba0478a61189b565b84611844565b90506000611bb4888361189b565b90508015611bf4576040516001600160a01b0387169082156108fc029083906000818181858888f19350505050158015611bf2573d6000803e3d6000fd5b505b60065460405163a9059cbb60e01b81526001600160a01b039091169063a9059cbb90611c269088908d9060040161278f565b602060405180830381600087803b158015611c4057600080fd5b505af1158015611c54573d6000803e3d6000fd5b505050506040513d601f19601f82011682018060405250810190611c789190612552565b611c8157600080fd5b8882876001600160a01b03167fcd60aa75dea3072fbc07ae6d7d856b5dc5f4eee88854f5b4abf7b680ef8bc50f60405160405180910390a450979650505050505050565b6001600160a01b038216611cd857600080fd5b6001600160a01b038316600090815260208190526040902054611cfb908261189b565b6001600160a01b038085166000908152602081905260408082209390935590841681522054611d2a9082611d6a565b6001600160a01b0380841660008181526020819052604090819020939093559151908516906000805160206129c783398151915290611ad99085906127b3565b6000610872828461292a565b60006108728284612962565b6000428410158015611d945750600086115b8015611da05750600085115b611da957600080fd5b6006546040516370a0823160e01b81526000916001600160a01b0316906370a0823190611dda903090600401612757565b60206040518083038186803b158015611df257600080fd5b505afa158015611e06573d6000803e3d6000fd5b505050506040513d601f19601f82011682018060405250810190611e2a919061258a565b90506000611e3988834761101a565b90508087811015611e4957600080fd5b6040516001600160a01b0386169082156108fc029083906000818181858888f19350505050158015611e7f573d6000803e3d6000fd5b506006546040516323b872dd60e01b81526001600160a01b03909116906323b872dd90611eb490899030908e9060040161276b565b602060405180830381600087803b158015611ece57600080fd5b505af1158015611ee2573d6000803e3d6000fd5b505050506040513d601f19601f82011682018060405250810190611f069190612552565b611f0f57600080fd5b8089876001600160a01b03166000805160206129e783398151915260405160405180910390a498975050505050505050565b6000428510158015611f5e5750600088118015611f5e5750600086115b611f6757600080fd5b6001600160a01b0382163014801590611f8857506001600160a01b03821615155b611f9157600080fd5b604051632cf4a43160e11b81526000906001600160a01b038416906359e9486290611fc0908c906004016127b3565b60206040518083038186803b158015611fd857600080fd5b505afa158015611fec573d6000803e3d6000fd5b505050506040513d601f19601f82011682018060405250810190612010919061258a565b6006546040516370a0823160e01b81529192506000916001600160a01b03909116906370a0823190612046903090600401612757565b60206040518083038186803b15801561205e57600080fd5b505afa158015612072573d6000803e3d6000fd5b505050506040513d601f19601f82011682018060405250810190612096919061258a565b905060006120a5838347611844565b9050808a101580156120b75750828910155b6120c057600080fd5b6006546040516323b872dd60e01b81526001600160a01b03909116906323b872dd906120f4908a903090869060040161276b565b602060405180830381600087803b15801561210e57600080fd5b505af1158015612122573d6000803e3d6000fd5b505050506040513d601f19601f820116820180604052508101906121469190612552565b61214f57600080fd5b6000856001600160a01b0316630b573638858e8c8b6040518563ffffffff1660e01b81526004016121829392919061290b565b6020604051808303818588803b15801561219b57600080fd5b505af11580156121af573d6000803e3d6000fd5b50505050506040513d601f19601f820116820180604052508101906121d4919061258a565b90508382896001600160a01b03166000805160206129e783398151915260405160405180910390a4509a9950505050505050505050565b600042851015801561221d5750600088115b80156122295750600087115b80156122355750600086115b61223e57600080fd5b6001600160a01b038216301480159061225f57506001600160a01b03821615155b61226857600080fd5b6006546040516370a0823160e01b81526000916001600160a01b0316906370a0823190612299903090600401612757565b60206040518083038186803b1580156122b157600080fd5b505afa1580156122c5573d6000803e3d6000fd5b505050506040513d601f19601f820116820180604052508101906122e9919061258a565b905060006122f88a834761101a565b9050808881101561230857600080fd5b600660009054906101000a90046001600160a01b03166001600160a01b03166323b872dd88308e6040518463ffffffff1660e01b815260040161234d9392919061276b565b602060405180830381600087803b15801561236757600080fd5b505af115801561237b573d6000803e3d6000fd5b505050506040513d601f19601f8201168201806040525081019061239f9190612552565b6123bb5760405162461bcd60e51b8152600401610a36906128bb565b6000856001600160a01b031663ad65d76d838d8c8b6040518563ffffffff1660e01b81526004016123ee9392919061290b565b6020604051808303818588803b15801561240757600080fd5b505af115801561241b573d6000803e3d6000fd5b50505050506040513d601f19601f82011682018060405250810190612440919061258a565b9050818c896001600160a01b03166000805160206129e783398151915260405160405180910390a49b9a5050505050505050505050565b600060208284031215612488578081fd5b8135610872816129ae565b6000602082840312156124a4578081fd5b8151610872816129ae565b600080604083850312156124c1578081fd5b82356124cc816129ae565b915060208301356124dc816129ae565b809150509250929050565b6000806000606084860312156124fb578081fd5b8335612506816129ae565b92506020840135612516816129ae565b929592945050506040919091013590565b60008060408385031215612539578182fd5b8235612544816129ae565b946020939093013593505050565b600060208284031215612563578081fd5b81518015158114610872578182fd5b600060208284031215612583578081fd5b5035919050565b60006020828403121561259b578081fd5b5051919050565b600080604083850312156125b4578182fd5b50508035926020909101359150565b6000806000606084860312156125d7578283fd5b833592506020840135915060408401356125f0816129ae565b809150509250925092565b60008060006060848603121561260f578283fd5b505081359360208301359350604090920135919050565b6000806000806080858703121561263b578081fd5b843593506020850135925060408501359150606085013561265b816129ae565b939692955090935050565b6000806000806080858703121561267b578384fd5b5050823594602084013594506040840135936060013592509050565b600080600080600060a086880312156126ae578081fd5b8535945060208601359350604086013592506060860135915060808601356126d5816129ae565b809150509295509295909350565b600080600080600060a086880312156126ae578283fd5b60008060008060008060c08789031215612712578384fd5b863595506020870135945060408701359350606087013592506080870135612739816129ae565b915060a0870135612749816129ae565b809150509295509295509295565b6001600160a01b0391909116815260200190565b6001600160a01b039384168152919092166020820152604081019190915260600190565b6001600160a01b03929092168252602082015260400190565b901515815260200190565b90815260200190565b60208082526031908201527f556e697377617045786368616e67652372656d6f76654c69717569646974793a604082015270081253959053125117d05491d553515395607a1b606082015260800190565b6020808252601b908201527f494e56414c49445f56414c55455f676574496e70757450726963650000000000604082015260600190565b6020808252600f908201526e494e56414c49445f4144445245535360881b604082015260600190565b6020808252602e908201527f556e697377617045786368616e6765236164644c69717569646974793a20494e60408201526d159053125117d05491d55351539560921b606082015260800190565b6020808252600190820152601960f91b604082015260600190565b6020808252600d908201526c494e56414c49445f56414c554560981b604082015260600190565b918252602082015260400190565b92835260208301919091526001600160a01b0316604082015260600190565b6000821982111561293d5761293d612998565b500190565b60008261295d57634e487b7160e01b81526012600452602481fd5b500490565b600081600019048311821515161561297c5761297c612998565b500290565b60008282101561299357612993612998565b500390565b634e487b7160e01b600052601160045260246000fd5b6001600160a01b03811681146129c357600080fd5b5056feddf252ad1be2c89b69c2b068fc378daa952ba7f163c4a11628f55a4df523b3ef7f4091b46c33e918a0f3aa42307641d17bb67029427a5369e54b353984238705a2646970667358221220214ea97ef1b53483d8ec7257af8c3b81db2b5e63f80cb0117e5f185c4f5860b264736f6c63430008010033",
  "linkReferences": {},
  "deployedLinkReferences": {}
}